{
  "contractName": "ERC1155Metadata",
  "abi": [
    {
      "anonymous": false,
      "inputs": [
        {
          "indexed": false,
          "internalType": "string",
          "name": "_uri",
          "type": "string"
        },
        {
          "indexed": true,
          "internalType": "uint256",
          "name": "_id",
          "type": "uint256"
        }
      ],
      "name": "URI",
      "type": "event"
    },
    {
      "inputs": [
        {
          "internalType": "uint256",
          "name": "_id",
          "type": "uint256"
        }
      ],
      "name": "uri",
      "outputs": [
        {
          "internalType": "string",
          "name": "",
          "type": "string"
        }
      ],
      "stateMutability": "view",
      "type": "function"
    },
    {
      "inputs": [
        {
          "internalType": "bytes4",
          "name": "_interfaceID",
          "type": "bytes4"
        }
      ],
      "name": "supportsInterface",
      "outputs": [
        {
          "internalType": "bool",
          "name": "",
          "type": "bool"
        }
      ],
      "stateMutability": "view",
      "type": "function"
    }
  ],
  "bytecode": "0x608060405234801561001057600080fd5b506108e1806100206000396000f3fe608060405234801561001057600080fd5b50600436106100365760003560e01c806301ffc9a71461003b5780630e89341c1461006b575b600080fd5b610055600480360381019061005091906103a7565b61009b565b6040516100629190610560565b60405180910390f35b610085600480360381019061008091906103d0565b61011d565b604051610092919061057b565b60405180910390f35b60007f0e89341c000000000000000000000000000000000000000000000000000000007bffffffffffffffffffffffffffffffffffffffffffffffffffffffff1916827bffffffffffffffffffffffffffffffffffffffffffffffffffffffff1916141561010c5760019050610118565b61011582610151565b90505b919050565b6060600061012a836101bb565b60405160200161013b929190610531565b6040516020818303038152906040529050919050565b60007f01ffc9a7000000000000000000000000000000000000000000000000000000007bffffffffffffffffffffffffffffffffffffffffffffffffffffffff1916827bffffffffffffffffffffffffffffffffffffffffffffffffffffffff1916149050919050565b60606000821415610203576040518060400160405280600181526020017f30000000000000000000000000000000000000000000000000000000000000008152509050610378565b6000829050600083905060005b6000831461023a57808061022390610765565b915050600a83610233919061062f565b9250610210565b60008167ffffffffffffffff81111561027c577f4e487b7100000000000000000000000000000000000000000000000000000000600052604160045260246000fd5b6040519080825280601f01601f1916602001820160405280156102ae5781602001600182028036833780820191505090505b50905060006001836102c09190610660565b90505b6000841461036f57600a846102d891906107ae565b60306102e491906105d9565b60f81b8282806102f390610709565b93508151811061032c577f4e487b7100000000000000000000000000000000000000000000000000000000600052603260045260246000fd5b60200101907effffffffffffffffffffffffffffffffffffffffffffffffffffffffffffff1916908160001a905350600a84610368919061062f565b93506102c3565b81955050505050505b919050565b60008135905061038c8161087d565b92915050565b6000813590506103a181610894565b92915050565b6000602082840312156103b957600080fd5b60006103c78482850161037d565b91505092915050565b6000602082840312156103e257600080fd5b60006103f084828501610392565b91505092915050565b61040281610694565b82525050565b6000610413826105b2565b61041d81856105bd565b935061042d8185602086016106d6565b6104368161086c565b840191505092915050565b600061044c826105b2565b61045681856105ce565b93506104668185602086016106d6565b80840191505092915050565b6000815461047f81610733565b61048981866105ce565b945060018216600081146104a457600181146104b5576104e8565b60ff198316865281860193506104e8565b6104be8561059d565b60005b838110156104e0578154818901526001820191506020810190506104c1565b838801955050505b50505092915050565b60006104fe6005836105ce565b91507f2e6a736f6e0000000000000000000000000000000000000000000000000000006000830152600582019050919050565b600061053d8285610472565b91506105498284610441565b9150610554826104f1565b91508190509392505050565b600060208201905061057560008301846103f9565b92915050565b600060208201905081810360008301526105958184610408565b905092915050565b60008190508160005260206000209050919050565b600081519050919050565b600082825260208201905092915050565b600081905092915050565b60006105e4826106cc565b91506105ef836106cc565b9250827fffffffffffffffffffffffffffffffffffffffffffffffffffffffffffffffff03821115610624576106236107df565b5b828201905092915050565b600061063a826106cc565b9150610645836106cc565b9250826106555761065461080e565b5b828204905092915050565b600061066b826106cc565b9150610676836106cc565b925082821015610689576106886107df565b5b828203905092915050565b60008115159050919050565b60007fffffffff0000000000000000000000000000000000000000000000000000000082169050919050565b6000819050919050565b60005b838110156106f45780820151818401526020810190506106d9565b83811115610703576000848401525b50505050565b6000610714826106cc565b91506000821415610728576107276107df565b5b600182039050919050565b6000600282049050600182168061074b57607f821691505b6020821081141561075f5761075e61083d565b5b50919050565b6000610770826106cc565b91507fffffffffffffffffffffffffffffffffffffffffffffffffffffffffffffffff8214156107a3576107a26107df565b5b600182019050919050565b60006107b9826106cc565b91506107c4836106cc565b9250826107d4576107d361080e565b5b828206905092915050565b7f4e487b7100000000000000000000000000000000000000000000000000000000600052601160045260246000fd5b7f4e487b7100000000000000000000000000000000000000000000000000000000600052601260045260246000fd5b7f4e487b7100000000000000000000000000000000000000000000000000000000600052602260045260246000fd5b6000601f19601f8301169050919050565b610886816106a0565b811461089157600080fd5b50565b61089d816106cc565b81146108a857600080fd5b5056fea26469706673582212205e463952cd589056a3a7cfbe48663e1c59855b5295f30e89e0a5d2f7e4029fde64736f6c63430008000033",
  "immutableReferences": {},
  "source": "// SPDX-License-Identifier: GPL-3.0\npragma solidity ^0.8.0;\n\nimport \"@openzeppelin/contracts/utils/introspection/ERC165.sol\";\n\nimport \"../../interfaces/IERC1155Metadata.sol\";\n\n/**\n * @notice Contract that handles metadata related methods.\n * @dev Methods assume a deterministic generation of URI based on token IDs.\n *      Methods also assume that URI uses hex representation of token IDs.\n */\ncontract ERC1155Metadata is IERC1155Metadata, ERC165 {\n    // URI's default URI prefix\n    string internal baseMetadataURI;\n\n    /***********************************|\n    |     Metadata Public Function s    |\n    |__________________________________*/\n\n    /**\n     * @notice A distinct Uniform Resource Identifier (URI) for a given token.\n     * @dev URIs are defined in RFC 3986.\n     *      URIs are assumed to be deterministically generated based on token ID\n     * @return URI string\n     */\n    function uri(uint256 _id)\n        public\n        view\n        virtual\n        override\n        returns (string memory)\n    {\n        return\n            string(abi.encodePacked(baseMetadataURI, _uint2str(_id), \".json\"));\n    }\n\n    /***********************************|\n    |    Metadata Internal Functions    |\n    |__________________________________*/\n\n    /**\n     * @notice Will emit default URI log event for corresponding token _id\n     * @param _tokenIDs Array of IDs of tokens to log default URI\n     */\n    function _logURIs(uint256[] memory _tokenIDs) internal {\n        string memory baseURL = baseMetadataURI;\n        string memory tokenURI;\n\n        for (uint256 i = 0; i < _tokenIDs.length; i++) {\n            tokenURI = string(\n                abi.encodePacked(baseURL, _uint2str(_tokenIDs[i]), \".json\")\n            );\n            emit URI(tokenURI, _tokenIDs[i]);\n        }\n    }\n\n    /**\n     * @notice Will update the base URL of token's URI\n     * @param _newBaseMetadataURI New base URL of token's URI\n     */\n    function _setBaseMetadataURI(string memory _newBaseMetadataURI) internal {\n        baseMetadataURI = _newBaseMetadataURI;\n    }\n\n    /**\n     * @notice Query if a contract implements an interface\n     * @param _interfaceID  The interface identifier, as specified in ERC-165\n     * @return `true` if the contract implements `_interfaceID` and\n     */\n    function supportsInterface(bytes4 _interfaceID)\n        public\n        view\n        virtual\n        override\n        returns (bool)\n    {\n        if (_interfaceID == type(IERC1155Metadata).interfaceId) {\n            return true;\n        }\n        return super.supportsInterface(_interfaceID);\n    }\n\n    /***********************************|\n    |    Utility Internal Functions     |\n    |__________________________________*/\n\n    /**\n     * @notice Convert uint256 to string\n     * @param _i Unsigned integer to convert to string\n     */\n    function _uint2str(uint256 _i)\n        internal\n        pure\n        returns (string memory _uintAsString)\n    {\n        if (_i == 0) {\n            return \"0\";\n        }\n\n        uint256 j = _i;\n        uint256 ii = _i;\n        uint256 len;\n\n        // Get number of bytes\n        while (j != 0) {\n            len++;\n            j /= 10;\n        }\n\n        bytes memory bstr = new bytes(len);\n        uint256 k = len - 1;\n\n        // Get each individual ASCII\n        while (ii != 0) {\n            bstr[k--] = bytes1(uint8(48 + (ii % 10)));\n            ii /= 10;\n        }\n\n        // Convert to string\n        return string(bstr);\n    }\n}\n",
  "sourcePath": "E:\\Optimusfox\\1111 abosch\\contracts\\multi-token-standard\\tokens\\ERC1155\\ERC1155Metadata.sol",
  "compiler": {
    "name": "solc",
    "version": "0.8.0+commit.c7dfd78e.Emscripten.clang"
  },
  "schemaVersion": "3.4.1",
  "updatedAt": "2021-09-28T11:07:38.229Z",
  "devdoc": {
    "details": "Methods assume a deterministic generation of URI based on token IDs.      Methods also assume that URI uses hex representation of token IDs.",
    "kind": "dev",
    "methods": {
      "supportsInterface(bytes4)": {
        "params": {
          "_interfaceID": "The interface identifier, as specified in ERC-165"
        },
        "returns": {
          "_0": "`true` if the contract implements `_interfaceID` and"
        }
      },
      "uri(uint256)": {
        "details": "URIs are defined in RFC 3986.      URIs are assumed to be deterministically generated based on token ID",
        "returns": {
          "_0": "URI string"
        }
      }
    },
    "version": 1
  },
  "userdoc": {
    "kind": "user",
    "methods": {
      "supportsInterface(bytes4)": {
        "notice": "Query if a contract implements an interface"
      },
      "uri(uint256)": {
        "notice": "A distinct Uniform Resource Identifier (URI) for a given token."
      }
    },
    "notice": "Contract that handles metadata related methods.",
    "version": 1
  }
}