{
  "contractName": "ERC1155",
  "abi": [
    {
      "anonymous": false,
      "inputs": [
        {
          "indexed": true,
          "internalType": "address",
          "name": "_owner",
          "type": "address"
        },
        {
          "indexed": true,
          "internalType": "address",
          "name": "_operator",
          "type": "address"
        },
        {
          "indexed": false,
          "internalType": "bool",
          "name": "_approved",
          "type": "bool"
        }
      ],
      "name": "ApprovalForAll",
      "type": "event"
    },
    {
      "anonymous": false,
      "inputs": [
        {
          "indexed": true,
          "internalType": "address",
          "name": "_operator",
          "type": "address"
        },
        {
          "indexed": true,
          "internalType": "address",
          "name": "_from",
          "type": "address"
        },
        {
          "indexed": true,
          "internalType": "address",
          "name": "_to",
          "type": "address"
        },
        {
          "indexed": false,
          "internalType": "uint256[]",
          "name": "_ids",
          "type": "uint256[]"
        },
        {
          "indexed": false,
          "internalType": "uint256[]",
          "name": "_amounts",
          "type": "uint256[]"
        }
      ],
      "name": "TransferBatch",
      "type": "event"
    },
    {
      "anonymous": false,
      "inputs": [
        {
          "indexed": true,
          "internalType": "address",
          "name": "_operator",
          "type": "address"
        },
        {
          "indexed": true,
          "internalType": "address",
          "name": "_from",
          "type": "address"
        },
        {
          "indexed": true,
          "internalType": "address",
          "name": "_to",
          "type": "address"
        },
        {
          "indexed": false,
          "internalType": "uint256",
          "name": "_id",
          "type": "uint256"
        },
        {
          "indexed": false,
          "internalType": "uint256",
          "name": "_amount",
          "type": "uint256"
        }
      ],
      "name": "TransferSingle",
      "type": "event"
    },
    {
      "inputs": [
        {
          "internalType": "address",
          "name": "_from",
          "type": "address"
        },
        {
          "internalType": "address",
          "name": "_to",
          "type": "address"
        },
        {
          "internalType": "uint256",
          "name": "_id",
          "type": "uint256"
        },
        {
          "internalType": "uint256",
          "name": "_amount",
          "type": "uint256"
        },
        {
          "internalType": "bytes",
          "name": "_data",
          "type": "bytes"
        }
      ],
      "name": "safeTransferFrom",
      "outputs": [],
      "stateMutability": "nonpayable",
      "type": "function"
    },
    {
      "inputs": [
        {
          "internalType": "address",
          "name": "_from",
          "type": "address"
        },
        {
          "internalType": "address",
          "name": "_to",
          "type": "address"
        },
        {
          "internalType": "uint256[]",
          "name": "_ids",
          "type": "uint256[]"
        },
        {
          "internalType": "uint256[]",
          "name": "_amounts",
          "type": "uint256[]"
        },
        {
          "internalType": "bytes",
          "name": "_data",
          "type": "bytes"
        }
      ],
      "name": "safeBatchTransferFrom",
      "outputs": [],
      "stateMutability": "nonpayable",
      "type": "function"
    },
    {
      "inputs": [
        {
          "internalType": "address",
          "name": "_operator",
          "type": "address"
        },
        {
          "internalType": "bool",
          "name": "_approved",
          "type": "bool"
        }
      ],
      "name": "setApprovalForAll",
      "outputs": [],
      "stateMutability": "nonpayable",
      "type": "function"
    },
    {
      "inputs": [
        {
          "internalType": "address",
          "name": "_owner",
          "type": "address"
        },
        {
          "internalType": "address",
          "name": "_operator",
          "type": "address"
        }
      ],
      "name": "isApprovedForAll",
      "outputs": [
        {
          "internalType": "bool",
          "name": "isOperator",
          "type": "bool"
        }
      ],
      "stateMutability": "view",
      "type": "function"
    },
    {
      "inputs": [
        {
          "internalType": "address",
          "name": "_owner",
          "type": "address"
        },
        {
          "internalType": "uint256",
          "name": "_id",
          "type": "uint256"
        }
      ],
      "name": "balanceOf",
      "outputs": [
        {
          "internalType": "uint256",
          "name": "",
          "type": "uint256"
        }
      ],
      "stateMutability": "view",
      "type": "function"
    },
    {
      "inputs": [
        {
          "internalType": "address[]",
          "name": "_owners",
          "type": "address[]"
        },
        {
          "internalType": "uint256[]",
          "name": "_ids",
          "type": "uint256[]"
        }
      ],
      "name": "balanceOfBatch",
      "outputs": [
        {
          "internalType": "uint256[]",
          "name": "",
          "type": "uint256[]"
        }
      ],
      "stateMutability": "view",
      "type": "function"
    },
    {
      "inputs": [
        {
          "internalType": "bytes4",
          "name": "_interfaceID",
          "type": "bytes4"
        }
      ],
      "name": "supportsInterface",
      "outputs": [
        {
          "internalType": "bool",
          "name": "",
          "type": "bool"
        }
      ],
      "stateMutability": "view",
      "type": "function"
    }
  ],
  "bytecode": "0x608060405234801561001057600080fd5b50611fd9806100206000396000f3fe608060405234801561001057600080fd5b506004361061007c5760003560e01c80634e1273f41161005b5780634e1273f4146100fd578063a22cb4651461012d578063e985e9c514610149578063f242432a146101795761007c565b8062fdd58e1461008157806301ffc9a7146100b15780632eb2c2d6146100e1575b600080fd5b61009b600480360381019061009691906114a1565b610195565b6040516100a89190611bec565b60405180910390f35b6100cb60048036038101906100c69190611549565b6101ef565b6040516100d89190611ad1565b60405180910390f35b6100fb60048036038101906100f69190611317565b610271565b005b610117600480360381019061011291906114dd565b610381565b6040516101249190611a78565b60405180910390f35b61014760048036038101906101429190611465565b61057a565b005b610163600480360381019061015e91906112db565b610677565b6040516101709190611ad1565b60405180910390f35b610193600480360381019061018e91906113d6565b61070b565b005b60008060008473ffffffffffffffffffffffffffffffffffffffff1673ffffffffffffffffffffffffffffffffffffffff168152602001908152602001600020600083815260200190815260200160002054905092915050565b60007fd9b67a26000000000000000000000000000000000000000000000000000000007bffffffffffffffffffffffffffffffffffffffffffffffffffffffff1916827bffffffffffffffffffffffffffffffffffffffffffffffffffffffff19161415610260576001905061026c565b6102698261081b565b90505b919050565b8473ffffffffffffffffffffffffffffffffffffffff163373ffffffffffffffffffffffffffffffffffffffff1614806102b157506102b08533610677565b5b6102f0576040517f08c379a00000000000000000000000000000000000000000000000000000000081526004016102e790611b8c565b60405180910390fd5b600073ffffffffffffffffffffffffffffffffffffffff168473ffffffffffffffffffffffffffffffffffffffff161415610360576040517f08c379a000000000000000000000000000000000000000000000000000000000815260040161035790611b4c565b60405180910390fd5b61036c85858585610885565b61037a858585855a86610c4f565b5050505050565b606081518351146103c7576040517f08c379a00000000000000000000000000000000000000000000000000000000081526004016103be90611b6c565b60405180910390fd5b6000835167ffffffffffffffff81111561040a577f4e487b7100000000000000000000000000000000000000000000000000000000600052604160045260246000fd5b6040519080825280602002602001820160405280156104385781602001602082028036833780820191505090505b50905060005b845181101561056f57600080868381518110610483577f4e487b7100000000000000000000000000000000000000000000000000000000600052603260045260246000fd5b602002602001015173ffffffffffffffffffffffffffffffffffffffff1673ffffffffffffffffffffffffffffffffffffffff1681526020019081526020016000206000858381518110610500577f4e487b7100000000000000000000000000000000000000000000000000000000600052603260045260246000fd5b6020026020010151815260200190815260200160002054828281518110610550577f4e487b7100000000000000000000000000000000000000000000000000000000600052603260045260246000fd5b602002602001018181525050808061056790611e8f565b91505061043e565b508091505092915050565b80600160003373ffffffffffffffffffffffffffffffffffffffff1673ffffffffffffffffffffffffffffffffffffffff16815260200190815260200160002060008473ffffffffffffffffffffffffffffffffffffffff1673ffffffffffffffffffffffffffffffffffffffff16815260200190815260200160002060006101000a81548160ff0219169083151502179055508173ffffffffffffffffffffffffffffffffffffffff163373ffffffffffffffffffffffffffffffffffffffff167f17307eab39ab6107e8899845ad3d59bd9653f200f220920489ca2b5937696c318360405161066b9190611ad1565b60405180910390a35050565b6000600160008473ffffffffffffffffffffffffffffffffffffffff1673ffffffffffffffffffffffffffffffffffffffff16815260200190815260200160002060008373ffffffffffffffffffffffffffffffffffffffff1673ffffffffffffffffffffffffffffffffffffffff16815260200190815260200160002060009054906101000a900460ff16905092915050565b8473ffffffffffffffffffffffffffffffffffffffff163373ffffffffffffffffffffffffffffffffffffffff16148061074b575061074a8533610677565b5b61078a576040517f08c379a000000000000000000000000000000000000000000000000000000000815260040161078190611b0c565b60405180910390fd5b600073ffffffffffffffffffffffffffffffffffffffff168473ffffffffffffffffffffffffffffffffffffffff1614156107fa576040517f08c379a00000000000000000000000000000000000000000000000000000000081526004016107f190611aec565b60405180910390fd5b61080685858585610d9d565b610814858585855a86610f7d565b5050505050565b60007f01ffc9a7000000000000000000000000000000000000000000000000000000007bffffffffffffffffffffffffffffffffffffffffffffffffffffffff1916827bffffffffffffffffffffffffffffffffffffffffffffffffffffffff1916149050919050565b80518251146108c9576040517f08c379a00000000000000000000000000000000000000000000000000000000081526004016108c090611b2c565b60405180910390fd5b60008251905060005b81811015610bc957828181518110610913577f4e487b7100000000000000000000000000000000000000000000000000000000600052603260045260246000fd5b60200260200101516000808873ffffffffffffffffffffffffffffffffffffffff1673ffffffffffffffffffffffffffffffffffffffff1681526020019081526020016000206000868481518110610994577f4e487b7100000000000000000000000000000000000000000000000000000000600052603260045260246000fd5b60200260200101518152602001908152602001600020546109b59190611da5565b6000808873ffffffffffffffffffffffffffffffffffffffff1673ffffffffffffffffffffffffffffffffffffffff1681526020019081526020016000206000868481518110610a2e577f4e487b7100000000000000000000000000000000000000000000000000000000600052603260045260246000fd5b6020026020010151815260200190815260200160002081905550828181518110610a81577f4e487b7100000000000000000000000000000000000000000000000000000000600052603260045260246000fd5b60200260200101516000808773ffffffffffffffffffffffffffffffffffffffff1673ffffffffffffffffffffffffffffffffffffffff1681526020019081526020016000206000868481518110610b02577f4e487b7100000000000000000000000000000000000000000000000000000000600052603260045260246000fd5b6020026020010151815260200190815260200160002054610b239190611d4f565b6000808773ffffffffffffffffffffffffffffffffffffffff1673ffffffffffffffffffffffffffffffffffffffff1681526020019081526020016000206000868481518110610b9c577f4e487b7100000000000000000000000000000000000000000000000000000000600052603260045260246000fd5b60200260200101518152602001908152602001600020819055508080610bc190611e8f565b9150506108d2565b508373ffffffffffffffffffffffffffffffffffffffff168573ffffffffffffffffffffffffffffffffffffffff163373ffffffffffffffffffffffffffffffffffffffff167f4a39dc06d4c0dbc64b70af90fd698a233a518aa5d07e595d983b8c0526c8f7fb8686604051610c40929190611a9a565b60405180910390a45050505050565b610c6e8573ffffffffffffffffffffffffffffffffffffffff166110cb565b15610d955760008573ffffffffffffffffffffffffffffffffffffffff1663bc197c8184338a8989886040518763ffffffff1660e01b8152600401610cb79594939291906119b6565b602060405180830381600088803b158015610cd157600080fd5b5087f1158015610ce5573d6000803e3d6000fd5b50505050506040513d601f19601f82011682018060405250810190610d0a9190611572565b905063bc197c8160e01b7bffffffffffffffffffffffffffffffffffffffffffffffffffffffff1916817bffffffffffffffffffffffffffffffffffffffffffffffffffffffff191614610d93576040517f08c379a0000000000000000000000000000000000000000000000000000000008152600401610d8a90611bac565b60405180910390fd5b505b505050505050565b806000808673ffffffffffffffffffffffffffffffffffffffff1673ffffffffffffffffffffffffffffffffffffffff168152602001908152602001600020600084815260200190815260200160002054610df89190611da5565b6000808673ffffffffffffffffffffffffffffffffffffffff1673ffffffffffffffffffffffffffffffffffffffff168152602001908152602001600020600084815260200190815260200160002081905550806000808573ffffffffffffffffffffffffffffffffffffffff1673ffffffffffffffffffffffffffffffffffffffff168152602001908152602001600020600084815260200190815260200160002054610ea69190611d4f565b6000808573ffffffffffffffffffffffffffffffffffffffff1673ffffffffffffffffffffffffffffffffffffffff1681526020019081526020016000206000848152602001908152602001600020819055508273ffffffffffffffffffffffffffffffffffffffff168473ffffffffffffffffffffffffffffffffffffffff163373ffffffffffffffffffffffffffffffffffffffff167fc3d58168c5ae7397731d063d5bbf3d657854427343f4c083240f7aacaa2d0f628585604051610f6f929190611c07565b60405180910390a450505050565b610f9c8573ffffffffffffffffffffffffffffffffffffffff166110cb565b156110c35760008573ffffffffffffffffffffffffffffffffffffffff1663f23a6e6184338a8989886040518763ffffffff1660e01b8152600401610fe5959493929190611a1e565b602060405180830381600088803b158015610fff57600080fd5b5087f1158015611013573d6000803e3d6000fd5b50505050506040513d601f19601f820116820180604052508101906110389190611572565b905063f23a6e6160e01b7bffffffffffffffffffffffffffffffffffffffffffffffffffffffff1916817bffffffffffffffffffffffffffffffffffffffffffffffffffffffff1916146110c1576040517f08c379a00000000000000000000000000000000000000000000000000000000081526004016110b890611bcc565b60405180910390fd5b505b505050505050565b600080823b905060008111915050919050565b60006110f16110ec84611c61565b611c30565b9050808382526020820190508285602086028201111561111057600080fd5b60005b85811015611140578161112688826111f4565b845260208401935060208301925050600181019050611113565b5050509392505050565b600061115d61115884611c8d565b611c30565b9050808382526020820190508285602086028201111561117c57600080fd5b60005b858110156111ac578161119288826112c6565b84526020840193506020830192505060018101905061117f565b5050509392505050565b60006111c96111c484611cb9565b611c30565b9050828152602081018484840111156111e157600080fd5b6111ec848285611e4d565b509392505050565b60008135905061120381611f47565b92915050565b600082601f83011261121a57600080fd5b813561122a8482602086016110de565b91505092915050565b600082601f83011261124457600080fd5b813561125484826020860161114a565b91505092915050565b60008135905061126c81611f5e565b92915050565b60008135905061128181611f75565b92915050565b60008151905061129681611f75565b92915050565b600082601f8301126112ad57600080fd5b81356112bd8482602086016111b6565b91505092915050565b6000813590506112d581611f8c565b92915050565b600080604083850312156112ee57600080fd5b60006112fc858286016111f4565b925050602061130d858286016111f4565b9150509250929050565b600080600080600060a0868803121561132f57600080fd5b600061133d888289016111f4565b955050602061134e888289016111f4565b945050604086013567ffffffffffffffff81111561136b57600080fd5b61137788828901611233565b935050606086013567ffffffffffffffff81111561139457600080fd5b6113a088828901611233565b925050608086013567ffffffffffffffff8111156113bd57600080fd5b6113c98882890161129c565b9150509295509295909350565b600080600080600060a086880312156113ee57600080fd5b60006113fc888289016111f4565b955050602061140d888289016111f4565b945050604061141e888289016112c6565b935050606061142f888289016112c6565b925050608086013567ffffffffffffffff81111561144c57600080fd5b6114588882890161129c565b9150509295509295909350565b6000806040838503121561147857600080fd5b6000611486858286016111f4565b92505060206114978582860161125d565b9150509250929050565b600080604083850312156114b457600080fd5b60006114c2858286016111f4565b92505060206114d3858286016112c6565b9150509250929050565b600080604083850312156114f057600080fd5b600083013567ffffffffffffffff81111561150a57600080fd5b61151685828601611209565b925050602083013567ffffffffffffffff81111561153357600080fd5b61153f85828601611233565b9150509250929050565b60006020828403121561155b57600080fd5b600061156984828501611272565b91505092915050565b60006020828403121561158457600080fd5b600061159284828501611287565b91505092915050565b60006115a78383611998565b60208301905092915050565b6115bc81611dd9565b82525050565b60006115cd82611cf9565b6115d78185611d1c565b93506115e283611ce9565b8060005b838110156116135781516115fa888261159b565b975061160583611d0f565b9250506001810190506115e6565b5085935050505092915050565b61162981611deb565b82525050565b600061163a82611d04565b6116448185611d2d565b9350611654818560208601611e5c565b61165d81611f36565b840191505092915050565b6000611675602b83611d3e565b91507f4552433131353523736166655472616e7366657246726f6d3a20494e56414c4960008301527f445f524543495049454e540000000000000000000000000000000000000000006020830152604082019050919050565b60006116db602a83611d3e565b91507f4552433131353523736166655472616e7366657246726f6d3a20494e56414c4960008301527f445f4f50455241544f52000000000000000000000000000000000000000000006020830152604082019050919050565b6000611741603583611d3e565b91507f45524331313535235f7361666542617463685472616e7366657246726f6d3a2060008301527f494e56414c49445f4152524159535f4c454e47544800000000000000000000006020830152604082019050919050565b60006117a7603083611d3e565b91507f45524331313535237361666542617463685472616e7366657246726f6d3a204960008301527f4e56414c49445f524543495049454e54000000000000000000000000000000006020830152604082019050919050565b600061180d602c83611d3e565b91507f455243313135352362616c616e63654f6642617463683a20494e56414c49445f60008301527f41525241595f4c454e47544800000000000000000000000000000000000000006020830152604082019050919050565b6000611873602f83611d3e565b91507f45524331313535237361666542617463685472616e7366657246726f6d3a204960008301527f4e56414c49445f4f50455241544f5200000000000000000000000000000000006020830152604082019050919050565b60006118d9603f83611d3e565b91507f45524331313535235f63616c6c6f6e455243313135354261746368526563656960008301527f7665643a20494e56414c49445f4f4e5f524543454956455f4d455353414745006020830152604082019050919050565b600061193f603a83611d3e565b91507f45524331313535235f63616c6c6f6e4552433131353552656365697665643a2060008301527f494e56414c49445f4f4e5f524543454956455f4d4553534147450000000000006020830152604082019050919050565b6119a181611e43565b82525050565b6119b081611e43565b82525050565b600060a0820190506119cb60008301886115b3565b6119d860208301876115b3565b81810360408301526119ea81866115c2565b905081810360608301526119fe81856115c2565b90508181036080830152611a12818461162f565b90509695505050505050565b600060a082019050611a3360008301886115b3565b611a4060208301876115b3565b611a4d60408301866119a7565b611a5a60608301856119a7565b8181036080830152611a6c818461162f565b90509695505050505050565b60006020820190508181036000830152611a9281846115c2565b905092915050565b60006040820190508181036000830152611ab481856115c2565b90508181036020830152611ac881846115c2565b90509392505050565b6000602082019050611ae66000830184611620565b92915050565b60006020820190508181036000830152611b0581611668565b9050919050565b60006020820190508181036000830152611b25816116ce565b9050919050565b60006020820190508181036000830152611b4581611734565b9050919050565b60006020820190508181036000830152611b658161179a565b9050919050565b60006020820190508181036000830152611b8581611800565b9050919050565b60006020820190508181036000830152611ba581611866565b9050919050565b60006020820190508181036000830152611bc5816118cc565b9050919050565b60006020820190508181036000830152611be581611932565b9050919050565b6000602082019050611c0160008301846119a7565b92915050565b6000604082019050611c1c60008301856119a7565b611c2960208301846119a7565b9392505050565b6000604051905081810181811067ffffffffffffffff82111715611c5757611c56611f07565b5b8060405250919050565b600067ffffffffffffffff821115611c7c57611c7b611f07565b5b602082029050602081019050919050565b600067ffffffffffffffff821115611ca857611ca7611f07565b5b602082029050602081019050919050565b600067ffffffffffffffff821115611cd457611cd3611f07565b5b601f19601f8301169050602081019050919050565b6000819050602082019050919050565b600081519050919050565b600081519050919050565b6000602082019050919050565b600082825260208201905092915050565b600082825260208201905092915050565b600082825260208201905092915050565b6000611d5a82611e43565b9150611d6583611e43565b9250827fffffffffffffffffffffffffffffffffffffffffffffffffffffffffffffffff03821115611d9a57611d99611ed8565b5b828201905092915050565b6000611db082611e43565b9150611dbb83611e43565b925082821015611dce57611dcd611ed8565b5b828203905092915050565b6000611de482611e23565b9050919050565b60008115159050919050565b60007fffffffff0000000000000000000000000000000000000000000000000000000082169050919050565b600073ffffffffffffffffffffffffffffffffffffffff82169050919050565b6000819050919050565b82818337600083830152505050565b60005b83811015611e7a578082015181840152602081019050611e5f565b83811115611e89576000848401525b50505050565b6000611e9a82611e43565b91507fffffffffffffffffffffffffffffffffffffffffffffffffffffffffffffffff821415611ecd57611ecc611ed8565b5b600182019050919050565b7f4e487b7100000000000000000000000000000000000000000000000000000000600052601160045260246000fd5b7f4e487b7100000000000000000000000000000000000000000000000000000000600052604160045260246000fd5b6000601f19601f8301169050919050565b611f5081611dd9565b8114611f5b57600080fd5b50565b611f6781611deb565b8114611f7257600080fd5b50565b611f7e81611df7565b8114611f8957600080fd5b50565b611f9581611e43565b8114611fa057600080fd5b5056fea26469706673582212205eaf12027fc9217436d7d3a4b875e8fc5cd2a16bfd0df4f7e06094efb7242aa464736f6c63430008000033",
  "immutableReferences": {},
  "source": "// SPDX-License-Identifier: GPL-3.0\npragma solidity ^0.8.0;\n\nimport \"@openzeppelin/contracts/utils/Address.sol\";\nimport \"@openzeppelin/contracts/utils/introspection/ERC165.sol\";\n\nimport \"../../interfaces/IERC1155TokenReceiver.sol\";\nimport \"../../interfaces/IERC1155.sol\";\n\n/**\n * @dev Implementation of Multi-Token Standard contract\n */\ncontract ERC1155 is IERC1155, ERC165 {\n    using Address for address;\n\n    /***********************************|\n    |        Variables and Events       |\n    |__________________________________*/\n\n    // onReceive function signatures\n    bytes4 internal constant ERC1155_RECEIVED_VALUE = 0xf23a6e61;\n    bytes4 internal constant ERC1155_BATCH_RECEIVED_VALUE = 0xbc197c81;\n\n    // Objects balances\n    mapping(address => mapping(uint256 => uint256)) internal balances;\n\n    // Operator Functions\n    mapping(address => mapping(address => bool)) internal operators;\n\n    /***********************************|\n    |     Public Transfer Functions     |\n    |__________________________________*/\n\n    /**\n     * @notice Transfers amount amount of an _id from the _from address to the _to address specified\n     * @param _from    Source address\n     * @param _to      Target address\n     * @param _id      ID of the token type\n     * @param _amount  Transfered amount\n     * @param _data    Additional data with no specified format, sent in call to `_to`\n     */\n    function safeTransferFrom(\n        address _from,\n        address _to,\n        uint256 _id,\n        uint256 _amount,\n        bytes memory _data\n    ) public override {\n        require(\n            (msg.sender == _from) || isApprovedForAll(_from, msg.sender),\n            \"ERC1155#safeTransferFrom: INVALID_OPERATOR\"\n        );\n        require(\n            _to != address(0),\n            \"ERC1155#safeTransferFrom: INVALID_RECIPIENT\"\n        );\n        // require(_amount <= balances[_from][_id]) is not necessary since checked with safemath operations\n\n        _safeTransferFrom(_from, _to, _id, _amount);\n        _callonERC1155Received(_from, _to, _id, _amount, gasleft(), _data);\n    }\n\n    /**\n     * @notice Send multiple types of Tokens from the _from address to the _to address (with safety call)\n     * @param _from     Source addresses\n     * @param _to       Target addresses\n     * @param _ids      IDs of each token type\n     * @param _amounts  Transfer amounts per token type\n     * @param _data     Additional data with no specified format, sent in call to `_to`\n     */\n    function safeBatchTransferFrom(\n        address _from,\n        address _to,\n        uint256[] memory _ids,\n        uint256[] memory _amounts,\n        bytes memory _data\n    ) public override {\n        // Requirements\n        require(\n            (msg.sender == _from) || isApprovedForAll(_from, msg.sender),\n            \"ERC1155#safeBatchTransferFrom: INVALID_OPERATOR\"\n        );\n        require(\n            _to != address(0),\n            \"ERC1155#safeBatchTransferFrom: INVALID_RECIPIENT\"\n        );\n\n        _safeBatchTransferFrom(_from, _to, _ids, _amounts);\n        _callonERC1155BatchReceived(\n            _from,\n            _to,\n            _ids,\n            _amounts,\n            gasleft(),\n            _data\n        );\n    }\n\n    /***********************************|\n    |    Internal Transfer Functions    |\n    |__________________________________*/\n\n    /**\n     * @notice Transfers amount amount of an _id from the _from address to the _to address specified\n     * @param _from    Source address\n     * @param _to      Target address\n     * @param _id      ID of the token type\n     * @param _amount  Transfered amount\n     */\n    function _safeTransferFrom(\n        address _from,\n        address _to,\n        uint256 _id,\n        uint256 _amount\n    ) internal {\n        // Update balances\n        balances[_from][_id] = balances[_from][_id] - _amount; // Subtract amount\n        balances[_to][_id] = balances[_to][_id] + _amount; // Add amount\n\n        // Emit event\n        emit TransferSingle(msg.sender, _from, _to, _id, _amount);\n    }\n\n    /**\n     * @notice Verifies if receiver is contract and if so, calls (_to).onERC1155Received(...)\n     */\n    function _callonERC1155Received(\n        address _from,\n        address _to,\n        uint256 _id,\n        uint256 _amount,\n        uint256 _gasLimit,\n        bytes memory _data\n    ) internal {\n        // Check if recipient is contract\n        if (_to.isContract()) {\n            bytes4 retval =\n                IERC1155TokenReceiver(_to).onERC1155Received{gas: _gasLimit}(\n                    msg.sender,\n                    _from,\n                    _id,\n                    _amount,\n                    _data\n                );\n            require(\n                retval == ERC1155_RECEIVED_VALUE,\n                \"ERC1155#_callonERC1155Received: INVALID_ON_RECEIVE_MESSAGE\"\n            );\n        }\n    }\n\n    /**\n     * @notice Send multiple types of Tokens from the _from address to the _to address (with safety call)\n     * @param _from     Source addresses\n     * @param _to       Target addresses\n     * @param _ids      IDs of each token type\n     * @param _amounts  Transfer amounts per token type\n     */\n    function _safeBatchTransferFrom(\n        address _from,\n        address _to,\n        uint256[] memory _ids,\n        uint256[] memory _amounts\n    ) internal {\n        require(\n            _ids.length == _amounts.length,\n            \"ERC1155#_safeBatchTransferFrom: INVALID_ARRAYS_LENGTH\"\n        );\n\n        // Number of transfer to execute\n        uint256 nTransfer = _ids.length;\n\n        // Executing all transfers\n        for (uint256 i = 0; i < nTransfer; i++) {\n            // Update storage balance of previous bin\n            balances[_from][_ids[i]] = balances[_from][_ids[i]] - _amounts[i];\n            balances[_to][_ids[i]] = balances[_to][_ids[i]] + _amounts[i];\n        }\n\n        // Emit event\n        emit TransferBatch(msg.sender, _from, _to, _ids, _amounts);\n    }\n\n    /**\n     * @notice Verifies if receiver is contract and if so, calls (_to).onERC1155BatchReceived(...)\n     */\n    function _callonERC1155BatchReceived(\n        address _from,\n        address _to,\n        uint256[] memory _ids,\n        uint256[] memory _amounts,\n        uint256 _gasLimit,\n        bytes memory _data\n    ) internal {\n        // Pass data if recipient is contract\n        if (_to.isContract()) {\n            bytes4 retval =\n                IERC1155TokenReceiver(_to).onERC1155BatchReceived{\n                    gas: _gasLimit\n                }(msg.sender, _from, _ids, _amounts, _data);\n            require(\n                retval == ERC1155_BATCH_RECEIVED_VALUE,\n                \"ERC1155#_callonERC1155BatchReceived: INVALID_ON_RECEIVE_MESSAGE\"\n            );\n        }\n    }\n\n    /***********************************|\n    |         Operator Functions        |\n    |__________________________________*/\n\n    /**\n     * @notice Enable or disable approval for a third party (\"operator\") to manage all of caller's tokens\n     * @param _operator  Address to add to the set of authorized operators\n     * @param _approved  True if the operator is approved, false to revoke approval\n     */\n    function setApprovalForAll(address _operator, bool _approved)\n        external\n        override\n    {\n        // Update operator status\n        operators[msg.sender][_operator] = _approved;\n        emit ApprovalForAll(msg.sender, _operator, _approved);\n    }\n\n    /**\n     * @notice Queries the approval status of an operator for a given owner\n     * @param _owner     The owner of the Tokens\n     * @param _operator  Address of authorized operator\n     * @return isOperator True if the operator is approved, false if not\n     */\n    function isApprovedForAll(address _owner, address _operator)\n        public\n        view\n        virtual\n        override\n        returns (bool isOperator)\n    {\n        return operators[_owner][_operator];\n    }\n\n    /***********************************|\n    |         Balance Functions         |\n    |__________________________________*/\n\n    /**\n     * @notice Get the balance of an account's Tokens\n     * @param _owner  The address of the token holder\n     * @param _id     ID of the Token\n     * @return The _owner's balance of the Token type requested\n     */\n    function balanceOf(address _owner, uint256 _id)\n        public\n        view\n        override\n        returns (uint256)\n    {\n        return balances[_owner][_id];\n    }\n\n    /**\n     * @notice Get the balance of multiple account/token pairs\n     * @param _owners The addresses of the token holders\n     * @param _ids    ID of the Tokens\n     * @return        The _owner's balance of the Token types requested (i.e. balance for each (owner, id) pair)\n     */\n    function balanceOfBatch(address[] memory _owners, uint256[] memory _ids)\n        public\n        view\n        override\n        returns (uint256[] memory)\n    {\n        require(\n            _owners.length == _ids.length,\n            \"ERC1155#balanceOfBatch: INVALID_ARRAY_LENGTH\"\n        );\n\n        // Variables\n        uint256[] memory batchBalances = new uint256[](_owners.length);\n\n        // Iterate over each owner and token ID\n        for (uint256 i = 0; i < _owners.length; i++) {\n            batchBalances[i] = balances[_owners[i]][_ids[i]];\n        }\n\n        return batchBalances;\n    }\n\n    /***********************************|\n    |          ERC165 Functions         |\n    |__________________________________*/\n\n    /**\n     * @notice Query if a contract implements an interface\n     * @param _interfaceID  The interface identifier, as specified in ERC-165\n     * @return `true` if the contract implements `_interfaceID` and\n     */\n    function supportsInterface(bytes4 _interfaceID)\n        public\n        view\n        virtual\n        override\n        returns (bool)\n    {\n        if (_interfaceID == type(IERC1155).interfaceId) {\n            return true;\n        }\n        return super.supportsInterface(_interfaceID);\n    }\n}\n",
  "sourcePath": "E:\\Optimusfox\\1111 abosch\\contracts\\multi-token-standard\\tokens\\ERC1155\\ERC1155.sol",
  "compiler": {
    "name": "solc",
    "version": "0.8.0+commit.c7dfd78e.Emscripten.clang"
  },
  "schemaVersion": "3.4.1",
  "updatedAt": "2021-09-28T11:07:38.188Z",
  "devdoc": {
    "details": "Implementation of Multi-Token Standard contract",
    "kind": "dev",
    "methods": {
      "balanceOf(address,uint256)": {
        "params": {
          "_id": "ID of the Token",
          "_owner": "The address of the token holder"
        },
        "returns": {
          "_0": "The _owner's balance of the Token type requested"
        }
      },
      "balanceOfBatch(address[],uint256[])": {
        "params": {
          "_ids": "ID of the Tokens",
          "_owners": "The addresses of the token holders"
        },
        "returns": {
          "_0": "The _owner's balance of the Token types requested (i.e. balance for each (owner, id) pair)"
        }
      },
      "isApprovedForAll(address,address)": {
        "params": {
          "_operator": "Address of authorized operator",
          "_owner": "The owner of the Tokens"
        },
        "returns": {
          "isOperator": "True if the operator is approved, false if not"
        }
      },
      "safeBatchTransferFrom(address,address,uint256[],uint256[],bytes)": {
        "params": {
          "_amounts": "Transfer amounts per token type",
          "_data": "Additional data with no specified format, sent in call to `_to`",
          "_from": "Source addresses",
          "_ids": "IDs of each token type",
          "_to": "Target addresses"
        }
      },
      "safeTransferFrom(address,address,uint256,uint256,bytes)": {
        "params": {
          "_amount": "Transfered amount",
          "_data": "Additional data with no specified format, sent in call to `_to`",
          "_from": "Source address",
          "_id": "ID of the token type",
          "_to": "Target address"
        }
      },
      "setApprovalForAll(address,bool)": {
        "params": {
          "_approved": "True if the operator is approved, false to revoke approval",
          "_operator": "Address to add to the set of authorized operators"
        }
      },
      "supportsInterface(bytes4)": {
        "params": {
          "_interfaceID": "The interface identifier, as specified in ERC-165"
        },
        "returns": {
          "_0": "`true` if the contract implements `_interfaceID` and"
        }
      }
    },
    "version": 1
  },
  "userdoc": {
    "kind": "user",
    "methods": {
      "balanceOf(address,uint256)": {
        "notice": "Get the balance of an account's Tokens"
      },
      "balanceOfBatch(address[],uint256[])": {
        "notice": "Get the balance of multiple account/token pairs"
      },
      "isApprovedForAll(address,address)": {
        "notice": "Queries the approval status of an operator for a given owner"
      },
      "safeBatchTransferFrom(address,address,uint256[],uint256[],bytes)": {
        "notice": "Send multiple types of Tokens from the _from address to the _to address (with safety call)"
      },
      "safeTransferFrom(address,address,uint256,uint256,bytes)": {
        "notice": "Transfers amount amount of an _id from the _from address to the _to address specified"
      },
      "setApprovalForAll(address,bool)": {
        "notice": "Enable or disable approval for a third party (\"operator\") to manage all of caller's tokens"
      },
      "supportsInterface(bytes4)": {
        "notice": "Query if a contract implements an interface"
      }
    },
    "version": 1
  }
}