{
  "contractName": "ERC1155Tradable",
  "abi": [
    {
      "inputs": [
        {
          "internalType": "string",
          "name": "_name",
          "type": "string"
        },
        {
          "internalType": "string",
          "name": "_symbol",
          "type": "string"
        },
        {
          "internalType": "address",
          "name": "_proxyRegistryAddress",
          "type": "address"
        }
      ],
      "stateMutability": "nonpayable",
      "type": "constructor"
    },
    {
      "anonymous": false,
      "inputs": [
        {
          "indexed": true,
          "internalType": "address",
          "name": "_owner",
          "type": "address"
        },
        {
          "indexed": true,
          "internalType": "address",
          "name": "_operator",
          "type": "address"
        },
        {
          "indexed": false,
          "internalType": "bool",
          "name": "_approved",
          "type": "bool"
        }
      ],
      "name": "ApprovalForAll",
      "type": "event"
    },
    {
      "anonymous": false,
      "inputs": [
        {
          "indexed": true,
          "internalType": "address",
          "name": "previousOwner",
          "type": "address"
        },
        {
          "indexed": true,
          "internalType": "address",
          "name": "newOwner",
          "type": "address"
        }
      ],
      "name": "OwnershipTransferred",
      "type": "event"
    },
    {
      "anonymous": false,
      "inputs": [
        {
          "indexed": true,
          "internalType": "address",
          "name": "_operator",
          "type": "address"
        },
        {
          "indexed": true,
          "internalType": "address",
          "name": "_from",
          "type": "address"
        },
        {
          "indexed": true,
          "internalType": "address",
          "name": "_to",
          "type": "address"
        },
        {
          "indexed": false,
          "internalType": "uint256[]",
          "name": "_ids",
          "type": "uint256[]"
        },
        {
          "indexed": false,
          "internalType": "uint256[]",
          "name": "_amounts",
          "type": "uint256[]"
        }
      ],
      "name": "TransferBatch",
      "type": "event"
    },
    {
      "anonymous": false,
      "inputs": [
        {
          "indexed": true,
          "internalType": "address",
          "name": "_operator",
          "type": "address"
        },
        {
          "indexed": true,
          "internalType": "address",
          "name": "_from",
          "type": "address"
        },
        {
          "indexed": true,
          "internalType": "address",
          "name": "_to",
          "type": "address"
        },
        {
          "indexed": false,
          "internalType": "uint256",
          "name": "_id",
          "type": "uint256"
        },
        {
          "indexed": false,
          "internalType": "uint256",
          "name": "_amount",
          "type": "uint256"
        }
      ],
      "name": "TransferSingle",
      "type": "event"
    },
    {
      "anonymous": false,
      "inputs": [
        {
          "indexed": false,
          "internalType": "string",
          "name": "_uri",
          "type": "string"
        },
        {
          "indexed": true,
          "internalType": "uint256",
          "name": "_id",
          "type": "uint256"
        }
      ],
      "name": "URI",
      "type": "event"
    },
    {
      "inputs": [
        {
          "internalType": "address",
          "name": "_owner",
          "type": "address"
        },
        {
          "internalType": "uint256",
          "name": "_id",
          "type": "uint256"
        }
      ],
      "name": "balanceOf",
      "outputs": [
        {
          "internalType": "uint256",
          "name": "",
          "type": "uint256"
        }
      ],
      "stateMutability": "view",
      "type": "function"
    },
    {
      "inputs": [
        {
          "internalType": "address[]",
          "name": "_owners",
          "type": "address[]"
        },
        {
          "internalType": "uint256[]",
          "name": "_ids",
          "type": "uint256[]"
        }
      ],
      "name": "balanceOfBatch",
      "outputs": [
        {
          "internalType": "uint256[]",
          "name": "",
          "type": "uint256[]"
        }
      ],
      "stateMutability": "view",
      "type": "function"
    },
    {
      "inputs": [
        {
          "internalType": "uint256",
          "name": "",
          "type": "uint256"
        }
      ],
      "name": "creators",
      "outputs": [
        {
          "internalType": "address",
          "name": "",
          "type": "address"
        }
      ],
      "stateMutability": "view",
      "type": "function"
    },
    {
      "inputs": [],
      "name": "name",
      "outputs": [
        {
          "internalType": "string",
          "name": "",
          "type": "string"
        }
      ],
      "stateMutability": "view",
      "type": "function"
    },
    {
      "inputs": [],
      "name": "owner",
      "outputs": [
        {
          "internalType": "address",
          "name": "",
          "type": "address"
        }
      ],
      "stateMutability": "view",
      "type": "function"
    },
    {
      "inputs": [],
      "name": "renounceOwnership",
      "outputs": [],
      "stateMutability": "nonpayable",
      "type": "function"
    },
    {
      "inputs": [
        {
          "internalType": "address",
          "name": "_from",
          "type": "address"
        },
        {
          "internalType": "address",
          "name": "_to",
          "type": "address"
        },
        {
          "internalType": "uint256[]",
          "name": "_ids",
          "type": "uint256[]"
        },
        {
          "internalType": "uint256[]",
          "name": "_amounts",
          "type": "uint256[]"
        },
        {
          "internalType": "bytes",
          "name": "_data",
          "type": "bytes"
        }
      ],
      "name": "safeBatchTransferFrom",
      "outputs": [],
      "stateMutability": "nonpayable",
      "type": "function"
    },
    {
      "inputs": [
        {
          "internalType": "address",
          "name": "_from",
          "type": "address"
        },
        {
          "internalType": "address",
          "name": "_to",
          "type": "address"
        },
        {
          "internalType": "uint256",
          "name": "_id",
          "type": "uint256"
        },
        {
          "internalType": "uint256",
          "name": "_amount",
          "type": "uint256"
        },
        {
          "internalType": "bytes",
          "name": "_data",
          "type": "bytes"
        }
      ],
      "name": "safeTransferFrom",
      "outputs": [],
      "stateMutability": "nonpayable",
      "type": "function"
    },
    {
      "inputs": [
        {
          "internalType": "address",
          "name": "_operator",
          "type": "address"
        },
        {
          "internalType": "bool",
          "name": "_approved",
          "type": "bool"
        }
      ],
      "name": "setApprovalForAll",
      "outputs": [],
      "stateMutability": "nonpayable",
      "type": "function"
    },
    {
      "inputs": [],
      "name": "symbol",
      "outputs": [
        {
          "internalType": "string",
          "name": "",
          "type": "string"
        }
      ],
      "stateMutability": "view",
      "type": "function"
    },
    {
      "inputs": [
        {
          "internalType": "uint256",
          "name": "",
          "type": "uint256"
        }
      ],
      "name": "tokenSupply",
      "outputs": [
        {
          "internalType": "uint256",
          "name": "",
          "type": "uint256"
        }
      ],
      "stateMutability": "view",
      "type": "function"
    },
    {
      "inputs": [
        {
          "internalType": "address",
          "name": "newOwner",
          "type": "address"
        }
      ],
      "name": "transferOwnership",
      "outputs": [],
      "stateMutability": "nonpayable",
      "type": "function"
    },
    {
      "inputs": [
        {
          "internalType": "uint256",
          "name": "_id",
          "type": "uint256"
        }
      ],
      "name": "uri",
      "outputs": [
        {
          "internalType": "string",
          "name": "",
          "type": "string"
        }
      ],
      "stateMutability": "view",
      "type": "function"
    },
    {
      "inputs": [
        {
          "internalType": "uint256",
          "name": "_id",
          "type": "uint256"
        }
      ],
      "name": "totalSupply",
      "outputs": [
        {
          "internalType": "uint256",
          "name": "",
          "type": "uint256"
        }
      ],
      "stateMutability": "view",
      "type": "function"
    },
    {
      "inputs": [
        {
          "internalType": "string",
          "name": "_newBaseMetadataURI",
          "type": "string"
        }
      ],
      "name": "setBaseMetadataURI",
      "outputs": [],
      "stateMutability": "nonpayable",
      "type": "function"
    },
    {
      "inputs": [
        {
          "internalType": "address",
          "name": "_initialOwner",
          "type": "address"
        },
        {
          "internalType": "uint256",
          "name": "_initialSupply",
          "type": "uint256"
        },
        {
          "internalType": "string",
          "name": "_uri",
          "type": "string"
        },
        {
          "internalType": "bytes",
          "name": "_data",
          "type": "bytes"
        }
      ],
      "name": "create",
      "outputs": [
        {
          "internalType": "uint256",
          "name": "",
          "type": "uint256"
        }
      ],
      "stateMutability": "nonpayable",
      "type": "function"
    },
    {
      "inputs": [
        {
          "internalType": "address",
          "name": "_to",
          "type": "address"
        },
        {
          "internalType": "uint256",
          "name": "_id",
          "type": "uint256"
        },
        {
          "internalType": "uint256",
          "name": "_quantity",
          "type": "uint256"
        },
        {
          "internalType": "bytes",
          "name": "_data",
          "type": "bytes"
        }
      ],
      "name": "mint",
      "outputs": [],
      "stateMutability": "nonpayable",
      "type": "function"
    },
    {
      "inputs": [
        {
          "internalType": "address",
          "name": "_to",
          "type": "address"
        },
        {
          "internalType": "uint256[]",
          "name": "_ids",
          "type": "uint256[]"
        },
        {
          "internalType": "uint256[]",
          "name": "_quantities",
          "type": "uint256[]"
        },
        {
          "internalType": "bytes",
          "name": "_data",
          "type": "bytes"
        }
      ],
      "name": "batchMint",
      "outputs": [],
      "stateMutability": "nonpayable",
      "type": "function"
    },
    {
      "inputs": [
        {
          "internalType": "address",
          "name": "_from",
          "type": "address"
        },
        {
          "internalType": "uint256",
          "name": "_id",
          "type": "uint256"
        },
        {
          "internalType": "uint256",
          "name": "_quantity",
          "type": "uint256"
        }
      ],
      "name": "burnFrom",
      "outputs": [],
      "stateMutability": "nonpayable",
      "type": "function"
    },
    {
      "inputs": [
        {
          "internalType": "address",
          "name": "_to",
          "type": "address"
        },
        {
          "internalType": "uint256[]",
          "name": "_ids",
          "type": "uint256[]"
        }
      ],
      "name": "setCreator",
      "outputs": [],
      "stateMutability": "nonpayable",
      "type": "function"
    },
    {
      "inputs": [
        {
          "internalType": "address",
          "name": "_owner",
          "type": "address"
        },
        {
          "internalType": "address",
          "name": "_operator",
          "type": "address"
        }
      ],
      "name": "isApprovedForAll",
      "outputs": [
        {
          "internalType": "bool",
          "name": "isOperator",
          "type": "bool"
        }
      ],
      "stateMutability": "view",
      "type": "function"
    },
    {
      "inputs": [
        {
          "internalType": "bytes4",
          "name": "_interfaceID",
          "type": "bytes4"
        }
      ],
      "name": "supportsInterface",
      "outputs": [
        {
          "internalType": "bool",
          "name": "",
          "type": "bool"
        }
      ],
      "stateMutability": "view",
      "type": "function"
    }
  ],
  "bytecode": "0x608060405260006005553480156200001657600080fd5b5060405162004ea638038062004ea683398181016040528101906200003c9190620002df565b6200005c62000050620000d860201b60201c565b620000e060201b60201c565b826008908051906020019062000074929190620001a6565b5081600990805190602001906200008d929190620001a6565b5080600460006101000a81548173ffffffffffffffffffffffffffffffffffffffff021916908373ffffffffffffffffffffffffffffffffffffffff160217905550505050620004e6565b600033905090565b6000600360009054906101000a900473ffffffffffffffffffffffffffffffffffffffff16905081600360006101000a81548173ffffffffffffffffffffffffffffffffffffffff021916908373ffffffffffffffffffffffffffffffffffffffff1602179055508173ffffffffffffffffffffffffffffffffffffffff168173ffffffffffffffffffffffffffffffffffffffff167f8be0079c531659141344cd1fd0a4f28419497f9722a3daafe3b4186f6b6457e060405160405180910390a35050565b828054620001b49062000438565b90600052602060002090601f016020900481019282620001d8576000855562000224565b82601f10620001f357805160ff191683800117855562000224565b8280016001018555821562000224579182015b828111156200022357825182559160200191906001019062000206565b5b50905062000233919062000237565b5090565b5b808211156200025257600081600090555060010162000238565b5090565b60006200026d62000267846200039b565b62000367565b9050828152602081018484840111156200028657600080fd5b6200029384828562000402565b509392505050565b600081519050620002ac81620004cc565b92915050565b600082601f830112620002c457600080fd5b8151620002d684826020860162000256565b91505092915050565b600080600060608486031215620002f557600080fd5b600084015167ffffffffffffffff8111156200031057600080fd5b6200031e86828701620002b2565b935050602084015167ffffffffffffffff8111156200033c57600080fd5b6200034a86828701620002b2565b92505060406200035d868287016200029b565b9150509250925092565b6000604051905081810181811067ffffffffffffffff821117156200039157620003906200049d565b5b8060405250919050565b600067ffffffffffffffff821115620003b957620003b86200049d565b5b601f19601f8301169050602081019050919050565b6000620003db82620003e2565b9050919050565b600073ffffffffffffffffffffffffffffffffffffffff82169050919050565b60005b838110156200042257808201518184015260208101905062000405565b8381111562000432576000848401525b50505050565b600060028204905060018216806200045157607f821691505b602082108114156200046857620004676200046e565b5b50919050565b7f4e487b7100000000000000000000000000000000000000000000000000000000600052602260045260246000fd5b7f4e487b7100000000000000000000000000000000000000000000000000000000600052604160045260246000fd5b620004d781620003ce565b8114620004e357600080fd5b50565b6149b080620004f66000396000f3fe608060405234801561001057600080fd5b50600436106101415760003560e01c80638da5cb5b116100b8578063cd53d08e1161007c578063cd53d08e14610372578063d2a6b51a146103a2578063e38e3b24146103be578063e985e9c5146103ee578063f242432a1461041e578063f2fde38b1461043a57610141565b80638da5cb5b146102ce57806395d89b41146102ec578063a22cb4651461030a578063b48ab8b614610326578063bd85b0391461034257610141565b80632693ebf21161010a5780632693ebf2146102105780632eb2c2d6146102405780634e1273f41461025c578063715018a61461028c578063731133e9146102965780637e518ec8146102b257610141565b8062fdd58e1461014657806301ffc9a71461017657806306fdde03146101a65780630e89341c146101c4578063124d91e5146101f4575b600080fd5b610160600480360381019061015b91906135a9565b610456565b60405161016d9190614443565b60405180910390f35b610190600480360381019061018b91906137b6565b6104b0565b60405161019d91906141c2565b60405180910390f35b6101ae610532565b6040516101bb9190614201565b60405180910390f35b6101de60048036038101906101d99190613872565b6105c0565b6040516101eb9190614201565b60405180910390f35b61020e60048036038101906102099190613680565b6106ad565b005b61022a60048036038101906102259190613872565b610804565b6040516102379190614443565b60405180910390f35b61025a60048036038101906102559190613320565b61081c565b005b6102766004803603810190610271919061374a565b61092c565b6040516102839190614169565b60405180910390f35b610294610b25565b005b6102b060048036038101906102ab91906136cf565b610bad565b005b6102cc60048036038101906102c79190613831565b610c98565b005b6102d6610d20565b6040516102e3919061408c565b60405180910390f35b6102f4610d4a565b6040516103019190614201565b60405180910390f35b610324600480360381019061031f919061356d565b610dd8565b005b610340600480360381019061033b91906134c2565b610ed5565b005b61035c60048036038101906103579190613872565b61106a565b6040516103699190614443565b60405180910390f35b61038c60048036038101906103879190613872565b611087565b604051610399919061408c565b60405180910390f35b6103bc60048036038101906103b7919061346e565b6110ba565b005b6103d860048036038101906103d391906135e5565b61119e565b6040516103e59190614443565b60405180910390f35b610408600480360381019061040391906132e4565b61133f565b60405161041591906141c2565b60405180910390f35b610438600480360381019061043391906133df565b611441565b005b610454600480360381019061044f91906132bb565b611551565b005b60008060008473ffffffffffffffffffffffffffffffffffffffff1673ffffffffffffffffffffffffffffffffffffffff168152602001908152602001600020600083815260200190815260200160002054905092915050565b60007fd9b67a26000000000000000000000000000000000000000000000000000000007bffffffffffffffffffffffffffffffffffffffffffffffffffffffff1916827bffffffffffffffffffffffffffffffffffffffffffffffffffffffff19161415610521576001905061052d565b61052a82611649565b90505b919050565b6008805461053f9061478e565b80601f016020809104026020016040519081016040528092919081815260200182805461056b9061478e565b80156105b85780601f1061058d576101008083540402835291602001916105b8565b820191906000526020600020905b81548152906001019060200180831161059b57829003601f168201915b505050505081565b60606105cb826116cb565b61060a576040517f08c379a0000000000000000000000000000000000000000000000000000000008152600401610601906142e3565b60405180910390fd5b6106a66002805461061a9061478e565b80601f01602080910402602001604051908101604052809291908181526020018280546106469061478e565b80156106935780601f1061066857610100808354040283529160200191610693565b820191906000526020600020905b81548152906001019060200180831161067657829003601f168201915b50505050506106a184611737565b6118e7565b9050919050565b60008060008573ffffffffffffffffffffffffffffffffffffffff1673ffffffffffffffffffffffffffffffffffffffff1681526020019081526020016000206000848152602001908152602001600020541161073f576040517f08c379a000000000000000000000000000000000000000000000000000000000815260040161073690614383565b60405180910390fd5b8273ffffffffffffffffffffffffffffffffffffffff163373ffffffffffffffffffffffffffffffffffffffff16148061077f575061077e833361133f565b5b6107be576040517f08c379a00000000000000000000000000000000000000000000000000000000081526004016107b590614363565b60405180910390fd5b6107c983838361192b565b8060076000848152602001908152602001600020546107e89190614668565b6007600084815260200190815260200160002081905550505050565b60076020528060005260406000206000915090505481565b8473ffffffffffffffffffffffffffffffffffffffff163373ffffffffffffffffffffffffffffffffffffffff16148061085c575061085b853361133f565b5b61089b576040517f08c379a000000000000000000000000000000000000000000000000000000000815260040161089290614343565b60405180910390fd5b600073ffffffffffffffffffffffffffffffffffffffff168473ffffffffffffffffffffffffffffffffffffffff16141561090b576040517f08c379a0000000000000000000000000000000000000000000000000000000008152600401610902906142c3565b60405180910390fd5b61091785858585611a5d565b610925858585855a86611e27565b5050505050565b60608151835114610972576040517f08c379a000000000000000000000000000000000000000000000000000000000815260040161096990614323565b60405180910390fd5b6000835167ffffffffffffffff8111156109b5577f4e487b7100000000000000000000000000000000000000000000000000000000600052604160045260246000fd5b6040519080825280602002602001820160405280156109e35781602001602082028036833780820191505090505b50905060005b8451811015610b1a57600080868381518110610a2e577f4e487b7100000000000000000000000000000000000000000000000000000000600052603260045260246000fd5b602002602001015173ffffffffffffffffffffffffffffffffffffffff1673ffffffffffffffffffffffffffffffffffffffff1681526020019081526020016000206000858381518110610aab577f4e487b7100000000000000000000000000000000000000000000000000000000600052603260045260246000fd5b6020026020010151815260200190815260200160002054828281518110610afb577f4e487b7100000000000000000000000000000000000000000000000000000000600052603260045260246000fd5b6020026020010181815250508080610b12906147c0565b9150506109e9565b508091505092915050565b610b2d611f75565b73ffffffffffffffffffffffffffffffffffffffff16610b4b610d20565b73ffffffffffffffffffffffffffffffffffffffff1614610ba1576040517f08c379a0000000000000000000000000000000000000000000000000000000008152600401610b9890614303565b60405180910390fd5b610bab6000611f7d565b565b823373ffffffffffffffffffffffffffffffffffffffff166006600083815260200190815260200160002060009054906101000a900473ffffffffffffffffffffffffffffffffffffffff1673ffffffffffffffffffffffffffffffffffffffff1614610c4f576040517f08c379a0000000000000000000000000000000000000000000000000000000008152600401610c4690614423565b60405180910390fd5b610c5b85858585612043565b826007600086815260200190815260200160002054610c7a91906145e1565b60076000868152602001908152602001600020819055505050505050565b610ca0611f75565b73ffffffffffffffffffffffffffffffffffffffff16610cbe610d20565b73ffffffffffffffffffffffffffffffffffffffff1614610d14576040517f08c379a0000000000000000000000000000000000000000000000000000000008152600401610d0b90614303565b60405180910390fd5b610d1d81612185565b50565b6000600360009054906101000a900473ffffffffffffffffffffffffffffffffffffffff16905090565b60098054610d579061478e565b80601f0160208091040260200160405190810160405280929190818152602001828054610d839061478e565b8015610dd05780601f10610da557610100808354040283529160200191610dd0565b820191906000526020600020905b815481529060010190602001808311610db357829003601f168201915b505050505081565b80600160003373ffffffffffffffffffffffffffffffffffffffff1673ffffffffffffffffffffffffffffffffffffffff16815260200190815260200160002060008473ffffffffffffffffffffffffffffffffffffffff1673ffffffffffffffffffffffffffffffffffffffff16815260200190815260200160002060006101000a81548160ff0219169083151502179055508173ffffffffffffffffffffffffffffffffffffffff163373ffffffffffffffffffffffffffffffffffffffff167f17307eab39ab6107e8899845ad3d59bd9653f200f220920489ca2b5937696c3183604051610ec991906141c2565b60405180910390a35050565b60005b8351811015611057576000848281518110610f1c577f4e487b7100000000000000000000000000000000000000000000000000000000600052603260045260246000fd5b602002602001015190503373ffffffffffffffffffffffffffffffffffffffff166006600083815260200190815260200160002060009054906101000a900473ffffffffffffffffffffffffffffffffffffffff1673ffffffffffffffffffffffffffffffffffffffff1614610fc7576040517f08c379a0000000000000000000000000000000000000000000000000000000008152600401610fbe90614243565b60405180910390fd5b6000848381518110611002577f4e487b7100000000000000000000000000000000000000000000000000000000600052603260045260246000fd5b6020026020010151905080600760008481526020019081526020016000205461102b91906145e1565b60076000848152602001908152602001600020819055505050808061104f906147c0565b915050610ed8565b506110648484848461219f565b50505050565b600060076000838152602001908152602001600020549050919050565b60066020528060005260406000206000915054906101000a900473ffffffffffffffffffffffffffffffffffffffff1681565b600073ffffffffffffffffffffffffffffffffffffffff168273ffffffffffffffffffffffffffffffffffffffff16141561112a576040517f08c379a000000000000000000000000000000000000000000000000000000000815260040161112190614403565b60405180910390fd5b60005b8151811015611199576000828281518110611171577f4e487b7100000000000000000000000000000000000000000000000000000000600052603260045260246000fd5b60200260200101519050611185848261240b565b508080611191906147c0565b91505061112d565b505050565b60006111a8611f75565b73ffffffffffffffffffffffffffffffffffffffff166111c6610d20565b73ffffffffffffffffffffffffffffffffffffffff161461121c576040517f08c379a000000000000000000000000000000000000000000000000000000000815260040161121390614303565b60405180910390fd5b6000611226612504565b905061123061251a565b336006600083815260200190815260200160002060006101000a81548173ffffffffffffffffffffffffffffffffffffffff021916908373ffffffffffffffffffffffffffffffffffffffff16021790555060008686905011156112c957807f6bb7ff708619ba0610cba295a58592e0451dee2622938c8755667688daf3529b87876040516112c09291906141dd565b60405180910390a25b61131988828987878080601f016020809104026020016040519081016040528093929190818152602001838380828437600081840152601f19601f82011690508083019250505050505050612043565b866007600083815260200190815260200160002081905550809150509695505050505050565b600080600460009054906101000a900473ffffffffffffffffffffffffffffffffffffffff1690508273ffffffffffffffffffffffffffffffffffffffff168173ffffffffffffffffffffffffffffffffffffffff1663c4552791866040518263ffffffff1660e01b81526004016113b7919061408c565b60206040518083038186803b1580156113cf57600080fd5b505afa1580156113e3573d6000803e3d6000fd5b505050506040513d601f19601f820116820180604052508101906114079190613808565b73ffffffffffffffffffffffffffffffffffffffff16141561142d57600191505061143b565b6114378484612534565b9150505b92915050565b8473ffffffffffffffffffffffffffffffffffffffff163373ffffffffffffffffffffffffffffffffffffffff1614806114815750611480853361133f565b5b6114c0576040517f08c379a00000000000000000000000000000000000000000000000000000000081526004016114b790614283565b60405180910390fd5b600073ffffffffffffffffffffffffffffffffffffffff168473ffffffffffffffffffffffffffffffffffffffff161415611530576040517f08c379a000000000000000000000000000000000000000000000000000000000815260040161152790614223565b60405180910390fd5b61153c858585856125c8565b61154a858585855a866127a8565b5050505050565b611559611f75565b73ffffffffffffffffffffffffffffffffffffffff16611577610d20565b73ffffffffffffffffffffffffffffffffffffffff16146115cd576040517f08c379a00000000000000000000000000000000000000000000000000000000081526004016115c490614303565b60405180910390fd5b600073ffffffffffffffffffffffffffffffffffffffff168173ffffffffffffffffffffffffffffffffffffffff16141561163d576040517f08c379a000000000000000000000000000000000000000000000000000000000815260040161163490614263565b60405180910390fd5b61164681611f7d565b50565b60007f0e89341c000000000000000000000000000000000000000000000000000000007bffffffffffffffffffffffffffffffffffffffffffffffffffffffff1916827bffffffffffffffffffffffffffffffffffffffffffffffffffffffff191614156116ba57600190506116c6565b6116c3826128f6565b90505b919050565b60008073ffffffffffffffffffffffffffffffffffffffff166006600084815260200190815260200160002060009054906101000a900473ffffffffffffffffffffffffffffffffffffffff1673ffffffffffffffffffffffffffffffffffffffff1614159050919050565b6060600082141561177f576040518060400160405280600181526020017f300000000000000000000000000000000000000000000000000000000000000081525090506118e2565b600082905060005b600082146117b157808061179a906147c0565b915050600a826117aa9190614637565b9150611787565b60008167ffffffffffffffff8111156117f3577f4e487b7100000000000000000000000000000000000000000000000000000000600052604160045260246000fd5b6040519080825280601f01601f1916602001820160405280156118255781602001600182028036833780820191505090505b50905060008290505b600086146118da57600a866118439190614809565b603061184f91906145e1565b60f81b828261185d90614764565b92508281518110611897577f4e487b7100000000000000000000000000000000000000000000000000000000600052603260045260246000fd5b60200101907effffffffffffffffffffffffffffffffffffffffffffffffffffffffffffff1916908160001a905350600a866118d39190614637565b955061182e565b819450505050505b919050565b60606119238383604051806020016040528060008152506040518060200160405280600081525060405180602001604052806000815250612978565b905092915050565b806000808573ffffffffffffffffffffffffffffffffffffffff1673ffffffffffffffffffffffffffffffffffffffff1681526020019081526020016000206000848152602001908152602001600020546119869190614668565b6000808573ffffffffffffffffffffffffffffffffffffffff1673ffffffffffffffffffffffffffffffffffffffff168152602001908152602001600020600084815260200190815260200160002081905550600073ffffffffffffffffffffffffffffffffffffffff168373ffffffffffffffffffffffffffffffffffffffff163373ffffffffffffffffffffffffffffffffffffffff167fc3d58168c5ae7397731d063d5bbf3d657854427343f4c083240f7aacaa2d0f628585604051611a5092919061445e565b60405180910390a4505050565b8051825114611aa1576040517f08c379a0000000000000000000000000000000000000000000000000000000008152600401611a98906142a3565b60405180910390fd5b60008251905060005b81811015611da157828181518110611aeb577f4e487b7100000000000000000000000000000000000000000000000000000000600052603260045260246000fd5b60200260200101516000808873ffffffffffffffffffffffffffffffffffffffff1673ffffffffffffffffffffffffffffffffffffffff1681526020019081526020016000206000868481518110611b6c577f4e487b7100000000000000000000000000000000000000000000000000000000600052603260045260246000fd5b6020026020010151815260200190815260200160002054611b8d9190614668565b6000808873ffffffffffffffffffffffffffffffffffffffff1673ffffffffffffffffffffffffffffffffffffffff1681526020019081526020016000206000868481518110611c06577f4e487b7100000000000000000000000000000000000000000000000000000000600052603260045260246000fd5b6020026020010151815260200190815260200160002081905550828181518110611c59577f4e487b7100000000000000000000000000000000000000000000000000000000600052603260045260246000fd5b60200260200101516000808773ffffffffffffffffffffffffffffffffffffffff1673ffffffffffffffffffffffffffffffffffffffff1681526020019081526020016000206000868481518110611cda577f4e487b7100000000000000000000000000000000000000000000000000000000600052603260045260246000fd5b6020026020010151815260200190815260200160002054611cfb91906145e1565b6000808773ffffffffffffffffffffffffffffffffffffffff1673ffffffffffffffffffffffffffffffffffffffff1681526020019081526020016000206000868481518110611d74577f4e487b7100000000000000000000000000000000000000000000000000000000600052603260045260246000fd5b60200260200101518152602001908152602001600020819055508080611d99906147c0565b915050611aaa565b508373ffffffffffffffffffffffffffffffffffffffff168573ffffffffffffffffffffffffffffffffffffffff163373ffffffffffffffffffffffffffffffffffffffff167f4a39dc06d4c0dbc64b70af90fd698a233a518aa5d07e595d983b8c0526c8f7fb8686604051611e1892919061418b565b60405180910390a45050505050565b611e468573ffffffffffffffffffffffffffffffffffffffff16612e8d565b15611f6d5760008573ffffffffffffffffffffffffffffffffffffffff1663bc197c8184338a8989886040518763ffffffff1660e01b8152600401611e8f9594939291906140a7565b602060405180830381600088803b158015611ea957600080fd5b5087f1158015611ebd573d6000803e3d6000fd5b50505050506040513d601f19601f82011682018060405250810190611ee291906137df565b905063bc197c8160e01b7bffffffffffffffffffffffffffffffffffffffffffffffffffffffff1916817bffffffffffffffffffffffffffffffffffffffffffffffffffffffff191614611f6b576040517f08c379a0000000000000000000000000000000000000000000000000000000008152600401611f62906143c3565b60405180910390fd5b505b505050505050565b600033905090565b6000600360009054906101000a900473ffffffffffffffffffffffffffffffffffffffff16905081600360006101000a81548173ffffffffffffffffffffffffffffffffffffffff021916908373ffffffffffffffffffffffffffffffffffffffff1602179055508173ffffffffffffffffffffffffffffffffffffffff168173ffffffffffffffffffffffffffffffffffffffff167f8be0079c531659141344cd1fd0a4f28419497f9722a3daafe3b4186f6b6457e060405160405180910390a35050565b816000808673ffffffffffffffffffffffffffffffffffffffff1673ffffffffffffffffffffffffffffffffffffffff16815260200190815260200160002060008581526020019081526020016000205461209e91906145e1565b6000808673ffffffffffffffffffffffffffffffffffffffff1673ffffffffffffffffffffffffffffffffffffffff1681526020019081526020016000206000858152602001908152602001600020819055508373ffffffffffffffffffffffffffffffffffffffff16600073ffffffffffffffffffffffffffffffffffffffff163373ffffffffffffffffffffffffffffffffffffffff167fc3d58168c5ae7397731d063d5bbf3d657854427343f4c083240f7aacaa2d0f62868660405161216892919061445e565b60405180910390a461217f60008585855a866127a8565b50505050565b806002908051906020019061219b929190612f0a565b5050565b81518351146121e3576040517f08c379a00000000000000000000000000000000000000000000000000000000081526004016121da906143a3565b60405180910390fd5b60008351905060005b818110156123755783818151811061222d577f4e487b7100000000000000000000000000000000000000000000000000000000600052603260045260246000fd5b60200260200101516000808873ffffffffffffffffffffffffffffffffffffffff1673ffffffffffffffffffffffffffffffffffffffff16815260200190815260200160002060008784815181106122ae577f4e487b7100000000000000000000000000000000000000000000000000000000600052603260045260246000fd5b60200260200101518152602001908152602001600020546122cf91906145e1565b6000808873ffffffffffffffffffffffffffffffffffffffff1673ffffffffffffffffffffffffffffffffffffffff1681526020019081526020016000206000878481518110612348577f4e487b7100000000000000000000000000000000000000000000000000000000600052603260045260246000fd5b6020026020010151815260200190815260200160002081905550808061236d906147c0565b9150506121ec565b508473ffffffffffffffffffffffffffffffffffffffff16600073ffffffffffffffffffffffffffffffffffffffff163373ffffffffffffffffffffffffffffffffffffffff167f4a39dc06d4c0dbc64b70af90fd698a233a518aa5d07e595d983b8c0526c8f7fb87876040516123ed92919061418b565b60405180910390a461240460008686865a87611e27565b5050505050565b803373ffffffffffffffffffffffffffffffffffffffff166006600083815260200190815260200160002060009054906101000a900473ffffffffffffffffffffffffffffffffffffffff1673ffffffffffffffffffffffffffffffffffffffff16146124ad576040517f08c379a00000000000000000000000000000000000000000000000000000000081526004016124a490614423565b60405180910390fd5b826006600084815260200190815260200160002060006101000a81548173ffffffffffffffffffffffffffffffffffffffff021916908373ffffffffffffffffffffffffffffffffffffffff160217905550505050565b6000600160055461251591906145e1565b905090565b6005600081548092919061252d906147c0565b9190505550565b6000600160008473ffffffffffffffffffffffffffffffffffffffff1673ffffffffffffffffffffffffffffffffffffffff16815260200190815260200160002060008373ffffffffffffffffffffffffffffffffffffffff1673ffffffffffffffffffffffffffffffffffffffff16815260200190815260200160002060009054906101000a900460ff16905092915050565b806000808673ffffffffffffffffffffffffffffffffffffffff1673ffffffffffffffffffffffffffffffffffffffff1681526020019081526020016000206000848152602001908152602001600020546126239190614668565b6000808673ffffffffffffffffffffffffffffffffffffffff1673ffffffffffffffffffffffffffffffffffffffff168152602001908152602001600020600084815260200190815260200160002081905550806000808573ffffffffffffffffffffffffffffffffffffffff1673ffffffffffffffffffffffffffffffffffffffff1681526020019081526020016000206000848152602001908152602001600020546126d191906145e1565b6000808573ffffffffffffffffffffffffffffffffffffffff1673ffffffffffffffffffffffffffffffffffffffff1681526020019081526020016000206000848152602001908152602001600020819055508273ffffffffffffffffffffffffffffffffffffffff168473ffffffffffffffffffffffffffffffffffffffff163373ffffffffffffffffffffffffffffffffffffffff167fc3d58168c5ae7397731d063d5bbf3d657854427343f4c083240f7aacaa2d0f62858560405161279a92919061445e565b60405180910390a450505050565b6127c78573ffffffffffffffffffffffffffffffffffffffff16612e8d565b156128ee5760008573ffffffffffffffffffffffffffffffffffffffff1663f23a6e6184338a8989886040518763ffffffff1660e01b815260040161281095949392919061410f565b602060405180830381600088803b15801561282a57600080fd5b5087f115801561283e573d6000803e3d6000fd5b50505050506040513d601f19601f8201168201806040525081019061286391906137df565b905063f23a6e6160e01b7bffffffffffffffffffffffffffffffffffffffffffffffffffffffff1916817bffffffffffffffffffffffffffffffffffffffffffffffffffffffff1916146128ec576040517f08c379a00000000000000000000000000000000000000000000000000000000081526004016128e3906143e3565b60405180910390fd5b505b505050505050565b60007fd9b67a26000000000000000000000000000000000000000000000000000000007bffffffffffffffffffffffffffffffffffffffffffffffffffffffff1916827bffffffffffffffffffffffffffffffffffffffffffffffffffffffff191614156129675760019050612973565b61297082612ea0565b90505b919050565b6060600086905060008690506000869050600086905060008690506000815183518551875189516129a991906145e1565b6129b391906145e1565b6129bd91906145e1565b6129c791906145e1565b67ffffffffffffffff811115612a06577f4e487b7100000000000000000000000000000000000000000000000000000000600052604160045260246000fd5b6040519080825280601f01601f191660200182016040528015612a385781602001600182028036833780820191505090505b50905060008190506000805b8851811015612b1857888181518110612a86577f4e487b7100000000000000000000000000000000000000000000000000000000600052603260045260246000fd5b602001015160f81c60f81b838380612a9d906147c0565b945081518110612ad6577f4e487b7100000000000000000000000000000000000000000000000000000000600052603260045260246000fd5b60200101907effffffffffffffffffffffffffffffffffffffffffffffffffffffffffffff1916908160001a9053508080612b10906147c0565b915050612a44565b5060005b8751811015612bf057878181518110612b5e577f4e487b7100000000000000000000000000000000000000000000000000000000600052603260045260246000fd5b602001015160f81c60f81b838380612b75906147c0565b945081518110612bae577f4e487b7100000000000000000000000000000000000000000000000000000000600052603260045260246000fd5b60200101907effffffffffffffffffffffffffffffffffffffffffffffffffffffffffffff1916908160001a9053508080612be8906147c0565b915050612b1c565b5060005b8651811015612cc857868181518110612c36577f4e487b7100000000000000000000000000000000000000000000000000000000600052603260045260246000fd5b602001015160f81c60f81b838380612c4d906147c0565b945081518110612c86577f4e487b7100000000000000000000000000000000000000000000000000000000600052603260045260246000fd5b60200101907effffffffffffffffffffffffffffffffffffffffffffffffffffffffffffff1916908160001a9053508080612cc0906147c0565b915050612bf4565b5060005b8551811015612da057858181518110612d0e577f4e487b7100000000000000000000000000000000000000000000000000000000600052603260045260246000fd5b602001015160f81c60f81b838380612d25906147c0565b945081518110612d5e577f4e487b7100000000000000000000000000000000000000000000000000000000600052603260045260246000fd5b60200101907effffffffffffffffffffffffffffffffffffffffffffffffffffffffffffff1916908160001a9053508080612d98906147c0565b915050612ccc565b5060005b8451811015612e7857848181518110612de6577f4e487b7100000000000000000000000000000000000000000000000000000000600052603260045260246000fd5b602001015160f81c60f81b838380612dfd906147c0565b945081518110612e36577f4e487b7100000000000000000000000000000000000000000000000000000000600052603260045260246000fd5b60200101907effffffffffffffffffffffffffffffffffffffffffffffffffffffffffffff1916908160001a9053508080612e70906147c0565b915050612da4565b50819850505050505050505095945050505050565b600080823b905060008111915050919050565b60007f01ffc9a7000000000000000000000000000000000000000000000000000000007bffffffffffffffffffffffffffffffffffffffffffffffffffffffff1916827bffffffffffffffffffffffffffffffffffffffffffffffffffffffff1916149050919050565b828054612f169061478e565b90600052602060002090601f016020900481019282612f385760008555612f7f565b82601f10612f5157805160ff1916838001178555612f7f565b82800160010185558215612f7f579182015b82811115612f7e578251825591602001919060010190612f63565b5b509050612f8c9190612f90565b5090565b5b80821115612fa9576000816000905550600101612f91565b5090565b6000612fc0612fbb846144b8565b614487565b90508083825260208201905082856020860282011115612fdf57600080fd5b60005b8581101561300f5781612ff58882613101565b845260208401935060208301925050600181019050612fe2565b5050509392505050565b600061302c613027846144e4565b614487565b9050808382526020820190508285602086028201111561304b57600080fd5b60005b8581101561307b578161306188826132a6565b84526020840193506020830192505060018101905061304e565b5050509392505050565b600061309861309384614510565b614487565b9050828152602081018484840111156130b057600080fd5b6130bb848285614722565b509392505050565b60006130d66130d184614540565b614487565b9050828152602081018484840111156130ee57600080fd5b6130f9848285614722565b509392505050565b60008135905061311081614907565b92915050565b600082601f83011261312757600080fd5b8135613137848260208601612fad565b91505092915050565b600082601f83011261315157600080fd5b8135613161848260208601613019565b91505092915050565b6000813590506131798161491e565b92915050565b60008135905061318e81614935565b92915050565b6000815190506131a381614935565b92915050565b60008083601f8401126131bb57600080fd5b8235905067ffffffffffffffff8111156131d457600080fd5b6020830191508360018202830111156131ec57600080fd5b9250929050565b600082601f83011261320457600080fd5b8135613214848260208601613085565b91505092915050565b60008151905061322c8161494c565b92915050565b60008083601f84011261324457600080fd5b8235905067ffffffffffffffff81111561325d57600080fd5b60208301915083600182028301111561327557600080fd5b9250929050565b600082601f83011261328d57600080fd5b813561329d8482602086016130c3565b91505092915050565b6000813590506132b581614963565b92915050565b6000602082840312156132cd57600080fd5b60006132db84828501613101565b91505092915050565b600080604083850312156132f757600080fd5b600061330585828601613101565b925050602061331685828601613101565b9150509250929050565b600080600080600060a0868803121561333857600080fd5b600061334688828901613101565b955050602061335788828901613101565b945050604086013567ffffffffffffffff81111561337457600080fd5b61338088828901613140565b935050606086013567ffffffffffffffff81111561339d57600080fd5b6133a988828901613140565b925050608086013567ffffffffffffffff8111156133c657600080fd5b6133d2888289016131f3565b9150509295509295909350565b600080600080600060a086880312156133f757600080fd5b600061340588828901613101565b955050602061341688828901613101565b9450506040613427888289016132a6565b9350506060613438888289016132a6565b925050608086013567ffffffffffffffff81111561345557600080fd5b613461888289016131f3565b9150509295509295909350565b6000806040838503121561348157600080fd5b600061348f85828601613101565b925050602083013567ffffffffffffffff8111156134ac57600080fd5b6134b885828601613140565b9150509250929050565b600080600080608085870312156134d857600080fd5b60006134e687828801613101565b945050602085013567ffffffffffffffff81111561350357600080fd5b61350f87828801613140565b935050604085013567ffffffffffffffff81111561352c57600080fd5b61353887828801613140565b925050606085013567ffffffffffffffff81111561355557600080fd5b613561878288016131f3565b91505092959194509250565b6000806040838503121561358057600080fd5b600061358e85828601613101565b925050602061359f8582860161316a565b9150509250929050565b600080604083850312156135bc57600080fd5b60006135ca85828601613101565b92505060206135db858286016132a6565b9150509250929050565b600080600080600080608087890312156135fe57600080fd5b600061360c89828a01613101565b965050602061361d89828a016132a6565b955050604087013567ffffffffffffffff81111561363a57600080fd5b61364689828a01613232565b9450945050606087013567ffffffffffffffff81111561366557600080fd5b61367189828a016131a9565b92509250509295509295509295565b60008060006060848603121561369557600080fd5b60006136a386828701613101565b93505060206136b4868287016132a6565b92505060406136c5868287016132a6565b9150509250925092565b600080600080608085870312156136e557600080fd5b60006136f387828801613101565b9450506020613704878288016132a6565b9350506040613715878288016132a6565b925050606085013567ffffffffffffffff81111561373257600080fd5b61373e878288016131f3565b91505092959194509250565b6000806040838503121561375d57600080fd5b600083013567ffffffffffffffff81111561377757600080fd5b61378385828601613116565b925050602083013567ffffffffffffffff8111156137a057600080fd5b6137ac85828601613140565b9150509250929050565b6000602082840312156137c857600080fd5b60006137d68482850161317f565b91505092915050565b6000602082840312156137f157600080fd5b60006137ff84828501613194565b91505092915050565b60006020828403121561381a57600080fd5b60006138288482850161321d565b91505092915050565b60006020828403121561384357600080fd5b600082013567ffffffffffffffff81111561385d57600080fd5b6138698482850161327c565b91505092915050565b60006020828403121561388457600080fd5b6000613892848285016132a6565b91505092915050565b60006138a7838361406e565b60208301905092915050565b6138bc8161469c565b82525050565b60006138cd82614580565b6138d781856145ae565b93506138e283614570565b8060005b838110156139135781516138fa888261389b565b9750613905836145a1565b9250506001810190506138e6565b5085935050505092915050565b613929816146ae565b82525050565b600061393a8261458b565b61394481856145bf565b9350613954818560208601614731565b61395d816148f6565b840191505092915050565b600061397483856145d0565b9350613981838584614722565b61398a836148f6565b840190509392505050565b60006139a082614596565b6139aa81856145d0565b93506139ba818560208601614731565b6139c3816148f6565b840191505092915050565b60006139db602b836145d0565b91507f4552433131353523736166655472616e7366657246726f6d3a20494e56414c4960008301527f445f524543495049454e540000000000000000000000000000000000000000006020830152604082019050919050565b6000613a41602f836145d0565b91507f455243313135355472616461626c652362617463684d696e743a204f4e4c595f60008301527f43524541544f525f414c4c4f57454400000000000000000000000000000000006020830152604082019050919050565b6000613aa76026836145d0565b91507f4f776e61626c653a206e6577206f776e657220697320746865207a65726f206160008301527f64647265737300000000000000000000000000000000000000000000000000006020830152604082019050919050565b6000613b0d602a836145d0565b91507f4552433131353523736166655472616e7366657246726f6d3a20494e56414c4960008301527f445f4f50455241544f52000000000000000000000000000000000000000000006020830152604082019050919050565b6000613b736035836145d0565b91507f45524331313535235f7361666542617463685472616e7366657246726f6d3a2060008301527f494e56414c49445f4152524159535f4c454e47544800000000000000000000006020830152604082019050919050565b6000613bd96030836145d0565b91507f45524331313535237361666542617463685472616e7366657246726f6d3a204960008301527f4e56414c49445f524543495049454e54000000000000000000000000000000006020830152604082019050919050565b6000613c3f6025836145d0565b91507f4552433732315472616461626c65237572693a204e4f4e4558495354454e545f60008301527f544f4b454e0000000000000000000000000000000000000000000000000000006020830152604082019050919050565b6000613ca56020836145d0565b91507f4f776e61626c653a2063616c6c6572206973206e6f7420746865206f776e65726000830152602082019050919050565b6000613ce5602c836145d0565b91507f455243313135352362616c616e63654f6642617463683a20494e56414c49445f60008301527f41525241595f4c454e47544800000000000000000000000000000000000000006020830152604082019050919050565b6000613d4b602f836145d0565b91507f45524331313535237361666542617463685472616e7366657246726f6d3a204960008301527f4e56414c49445f4f50455241544f5200000000000000000000000000000000006020830152604082019050919050565b6000613db1602a836145d0565b91507f455243313135355472616461626c65236275726e46726f6d3a20494e56414c4960008301527f445f4f50455241544f52000000000000000000000000000000000000000000006020830152604082019050919050565b6000613e17602f836145d0565b91507f455243313135355472616461626c65236f776e6572734f6e6c793a204f4e4c5960008301527f5f4f574e4552535f414c4c4f57454400000000000000000000000000000000006020830152604082019050919050565b6000613e7d6030836145d0565b91507f455243313135354d696e744275726e2362617463684d696e743a20494e56414c60008301527f49445f4152524159535f4c454e475448000000000000000000000000000000006020830152604082019050919050565b6000613ee3603f836145d0565b91507f45524331313535235f63616c6c6f6e455243313135354261746368526563656960008301527f7665643a20494e56414c49445f4f4e5f524543454956455f4d455353414745006020830152604082019050919050565b6000613f49603a836145d0565b91507f45524331313535235f63616c6c6f6e4552433131353552656365697665643a2060008301527f494e56414c49445f4f4e5f524543454956455f4d4553534147450000000000006020830152604082019050919050565b6000613faf602c836145d0565b91507f455243313135355472616461626c652373657443726561746f723a20494e564160008301527f4c49445f414444524553532e00000000000000000000000000000000000000006020830152604082019050919050565b60006140156031836145d0565b91507f455243313135355472616461626c652363726561746f724f6e6c793a204f4e4c60008301527f595f43524541544f525f414c4c4f5745440000000000000000000000000000006020830152604082019050919050565b61407781614718565b82525050565b61408681614718565b82525050565b60006020820190506140a160008301846138b3565b92915050565b600060a0820190506140bc60008301886138b3565b6140c960208301876138b3565b81810360408301526140db81866138c2565b905081810360608301526140ef81856138c2565b90508181036080830152614103818461392f565b90509695505050505050565b600060a08201905061412460008301886138b3565b61413160208301876138b3565b61413e604083018661407d565b61414b606083018561407d565b818103608083015261415d818461392f565b90509695505050505050565b6000602082019050818103600083015261418381846138c2565b905092915050565b600060408201905081810360008301526141a581856138c2565b905081810360208301526141b981846138c2565b90509392505050565b60006020820190506141d76000830184613920565b92915050565b600060208201905081810360008301526141f8818486613968565b90509392505050565b6000602082019050818103600083015261421b8184613995565b905092915050565b6000602082019050818103600083015261423c816139ce565b9050919050565b6000602082019050818103600083015261425c81613a34565b9050919050565b6000602082019050818103600083015261427c81613a9a565b9050919050565b6000602082019050818103600083015261429c81613b00565b9050919050565b600060208201905081810360008301526142bc81613b66565b9050919050565b600060208201905081810360008301526142dc81613bcc565b9050919050565b600060208201905081810360008301526142fc81613c32565b9050919050565b6000602082019050818103600083015261431c81613c98565b9050919050565b6000602082019050818103600083015261433c81613cd8565b9050919050565b6000602082019050818103600083015261435c81613d3e565b9050919050565b6000602082019050818103600083015261437c81613da4565b9050919050565b6000602082019050818103600083015261439c81613e0a565b9050919050565b600060208201905081810360008301526143bc81613e70565b9050919050565b600060208201905081810360008301526143dc81613ed6565b9050919050565b600060208201905081810360008301526143fc81613f3c565b9050919050565b6000602082019050818103600083015261441c81613fa2565b9050919050565b6000602082019050818103600083015261443c81614008565b9050919050565b6000602082019050614458600083018461407d565b92915050565b6000604082019050614473600083018561407d565b614480602083018461407d565b9392505050565b6000604051905081810181811067ffffffffffffffff821117156144ae576144ad6148c7565b5b8060405250919050565b600067ffffffffffffffff8211156144d3576144d26148c7565b5b602082029050602081019050919050565b600067ffffffffffffffff8211156144ff576144fe6148c7565b5b602082029050602081019050919050565b600067ffffffffffffffff82111561452b5761452a6148c7565b5b601f19601f8301169050602081019050919050565b600067ffffffffffffffff82111561455b5761455a6148c7565b5b601f19601f8301169050602081019050919050565b6000819050602082019050919050565b600081519050919050565b600081519050919050565b600081519050919050565b6000602082019050919050565b600082825260208201905092915050565b600082825260208201905092915050565b600082825260208201905092915050565b60006145ec82614718565b91506145f783614718565b9250827fffffffffffffffffffffffffffffffffffffffffffffffffffffffffffffffff0382111561462c5761462b61483a565b5b828201905092915050565b600061464282614718565b915061464d83614718565b92508261465d5761465c614869565b5b828204905092915050565b600061467382614718565b915061467e83614718565b9250828210156146915761469061483a565b5b828203905092915050565b60006146a7826146f8565b9050919050565b60008115159050919050565b60007fffffffff0000000000000000000000000000000000000000000000000000000082169050919050565b60006146f18261469c565b9050919050565b600073ffffffffffffffffffffffffffffffffffffffff82169050919050565b6000819050919050565b82818337600083830152505050565b60005b8381101561474f578082015181840152602081019050614734565b8381111561475e576000848401525b50505050565b600061476f82614718565b915060008214156147835761478261483a565b5b600182039050919050565b600060028204905060018216806147a657607f821691505b602082108114156147ba576147b9614898565b5b50919050565b60006147cb82614718565b91507fffffffffffffffffffffffffffffffffffffffffffffffffffffffffffffffff8214156147fe576147fd61483a565b5b600182019050919050565b600061481482614718565b915061481f83614718565b92508261482f5761482e614869565b5b828206905092915050565b7f4e487b7100000000000000000000000000000000000000000000000000000000600052601160045260246000fd5b7f4e487b7100000000000000000000000000000000000000000000000000000000600052601260045260246000fd5b7f4e487b7100000000000000000000000000000000000000000000000000000000600052602260045260246000fd5b7f4e487b7100000000000000000000000000000000000000000000000000000000600052604160045260246000fd5b6000601f19601f8301169050919050565b6149108161469c565b811461491b57600080fd5b50565b614927816146ae565b811461493257600080fd5b50565b61493e816146ba565b811461494957600080fd5b50565b614955816146e6565b811461496057600080fd5b50565b61496c81614718565b811461497757600080fd5b5056fea26469706673582212203d93e45c94821c023814b356ed17cf19d327c81ebd88d3339f999de6cee71ac564736f6c63430008000033",
  "immutableReferences": {},
  "source": "// SPDX-License-Identifier: GPL-3.0\npragma solidity ^0.8.0;\n\nimport \"@openzeppelin/contracts/access/Ownable.sol\";\n\nimport \"../multi-token-standard/tokens/ERC1155/ERC1155.sol\";\nimport \"../multi-token-standard/tokens/ERC1155/ERC1155Metadata.sol\";\nimport \"../multi-token-standard/tokens/ERC1155/ERC1155MintBurn.sol\";\nimport \"./Strings.sol\";\n\ncontract OwnableDelegateProxy {}\n\ncontract ProxyRegistry {\n    mapping(address => OwnableDelegateProxy) public proxies;\n}\n\n/**\n * @title ERC1155Tradable\n * ERC1155Tradable - ERC1155 contract that whitelists an operator address, has create and mint functionality, and supports useful standards from OpenZeppelin,\n  like _exists(), name(), symbol(), and totalSupply()\n */\ncontract ERC1155Tradable is ERC1155, ERC1155MintBurn, ERC1155Metadata, Ownable {\n    using Strings for string;\n\n    address proxyRegistryAddress;\n    uint256 private _currentTokenID = 0;\n    mapping(uint256 => address) public creators;\n    mapping(uint256 => uint256) public tokenSupply;\n    // Contract name\n    string public name;\n    // Contract symbol\n    string public symbol;\n\n    /**\n     * @dev Require msg.sender to be the creator of the token id\n     */\n    modifier creatorOnly(uint256 _id) {\n        require(\n            creators[_id] == msg.sender,\n            \"ERC1155Tradable#creatorOnly: ONLY_CREATOR_ALLOWED\"\n        );\n        _;\n    }\n\n    /**\n     * @dev Require msg.sender to own more than 0 of the token id\n     */\n    modifier ownersOnly(uint256 _id) {\n        require(\n            balances[msg.sender][_id] > 0,\n            \"ERC1155Tradable#ownersOnly: ONLY_OWNERS_ALLOWED\"\n        );\n        _;\n    }\n\n    constructor(\n        string memory _name,\n        string memory _symbol,\n        address _proxyRegistryAddress\n    ) {\n        name = _name;\n        symbol = _symbol;\n        proxyRegistryAddress = _proxyRegistryAddress;\n    }\n\n    function uri(uint256 _id) public view override returns (string memory) {\n        require(_exists(_id), \"ERC721Tradable#uri: NONEXISTENT_TOKEN\");\n        return Strings.strConcat(baseMetadataURI, Strings.uint2str(_id));\n    }\n\n    /**\n     * @dev Returns the total quantity for a token ID\n     * @param _id uint256 ID of the token to query\n     * @return amount of token in existence\n     */\n    function totalSupply(uint256 _id) public view returns (uint256) {\n        return tokenSupply[_id];\n    }\n\n    /**\n     * @dev Will update the base URL of token's URI\n     * @param _newBaseMetadataURI New base URL of token's URI\n     */\n    function setBaseMetadataURI(string memory _newBaseMetadataURI)\n        public\n        onlyOwner\n    {\n        _setBaseMetadataURI(_newBaseMetadataURI);\n    }\n\n    /**\n     * @dev Creates a new token type and assigns _initialSupply to an address\n     * NOTE: remove onlyOwner if you want third parties to create new tokens on your contract (which may change your IDs)\n     * @param _initialOwner address of the first owner of the token\n     * @param _initialSupply amount to supply the first owner\n     * @param _uri Optional URI for this token type\n     * @param _data Data to pass if receiver is contract\n     * @return The newly created token ID\n     */\n    function create(\n        address _initialOwner,\n        uint256 _initialSupply,\n        string calldata _uri,\n        bytes calldata _data\n    ) external onlyOwner returns (uint256) {\n        uint256 _id = _getNextTokenID();\n        _incrementTokenTypeId();\n        creators[_id] = msg.sender;\n\n        if (bytes(_uri).length > 0) {\n            emit URI(_uri, _id);\n        }\n\n        _mint(_initialOwner, _id, _initialSupply, _data);\n        tokenSupply[_id] = _initialSupply;\n        return _id;\n    }\n\n    /**\n     * @dev Mints some amount of tokens to an address\n     * @param _to          Address of the future owner of the token\n     * @param _id          Token ID to mint\n     * @param _quantity    Amount of tokens to mint\n     * @param _data        Data to pass if receiver is contract\n     */\n    function mint(\n        address _to,\n        uint256 _id,\n        uint256 _quantity,\n        bytes memory _data\n    ) public creatorOnly(_id) {\n        _mint(_to, _id, _quantity, _data);\n        tokenSupply[_id] = tokenSupply[_id] + _quantity;\n    }\n\n    /**\n     * @dev Mint tokens for each id in _ids\n     * @param _to          The address to mint tokens to\n     * @param _ids         Array of ids to mint\n     * @param _quantities  Array of amounts of tokens to mint per id\n     * @param _data        Data to pass if receiver is contract\n     */\n    function batchMint(\n        address _to,\n        uint256[] memory _ids,\n        uint256[] memory _quantities,\n        bytes memory _data\n    ) public {\n        for (uint256 i = 0; i < _ids.length; i++) {\n            uint256 _id = _ids[i];\n            require(\n                creators[_id] == msg.sender,\n                \"ERC1155Tradable#batchMint: ONLY_CREATOR_ALLOWED\"\n            );\n            uint256 quantity = _quantities[i];\n            tokenSupply[_id] = tokenSupply[_id] + quantity;\n        }\n        _batchMint(_to, _ids, _quantities, _data);\n    }\n\n    /**\n     * @dev Burns some amount of tokens to an address\n     * @param _from        Burn from\n     * @param _id          Token ID to mint\n     * @param _quantity    Amount of tokens to burn\n     */\n    function burnFrom(\n        address _from,\n        uint256 _id,\n        uint256 _quantity\n    ) public {\n        require(\n            balances[_from][_id] > 0,\n            \"ERC1155Tradable#ownersOnly: ONLY_OWNERS_ALLOWED\"\n        );\n        require(\n            (msg.sender == _from) || isApprovedForAll(_from, msg.sender),\n            \"ERC1155Tradable#burnFrom: INVALID_OPERATOR\"\n        );\n\n        _burn(_from, _id, _quantity);\n        tokenSupply[_id] = tokenSupply[_id] - _quantity;\n    }\n\n    /**\n     * @dev Change the creator address for given tokens\n     * @param _to   Address of the new creator\n     * @param _ids  Array of Token IDs to change creator\n     */\n    function setCreator(address _to, uint256[] memory _ids) public {\n        require(\n            _to != address(0),\n            \"ERC1155Tradable#setCreator: INVALID_ADDRESS.\"\n        );\n        for (uint256 i = 0; i < _ids.length; i++) {\n            uint256 id = _ids[i];\n            _setCreator(_to, id);\n        }\n    }\n\n    /**\n     * Override isApprovedForAll to whitelist user's OpenSea proxy accounts to enable gas-free listings.\n     */\n    function isApprovedForAll(address _owner, address _operator)\n        public\n        view\n        override\n        returns (bool isOperator)\n    {\n        // Whitelist OpenSea proxy contract for easy trading.\n        ProxyRegistry proxyRegistry = ProxyRegistry(proxyRegistryAddress);\n        if (address(proxyRegistry.proxies(_owner)) == _operator) {\n            return true;\n        }\n\n        return ERC1155.isApprovedForAll(_owner, _operator);\n    }\n\n    /**\n     * @dev Change the creator address for given token\n     * @param _to   Address of the new creator\n     * @param _id  Token IDs to change creator of\n     */\n    function _setCreator(address _to, uint256 _id) internal creatorOnly(_id) {\n        creators[_id] = _to;\n    }\n\n    /**\n     * @dev Returns whether the specified token exists by checking to see if it has a creator\n     * @param _id uint256 ID of the token to query the existence of\n     * @return bool whether the token exists\n     */\n    function _exists(uint256 _id) internal view returns (bool) {\n        return creators[_id] != address(0);\n    }\n\n    /**\n     * @dev calculates the next token ID based on value of _currentTokenID\n     * @return uint256 for the next token ID\n     */\n    function _getNextTokenID() private view returns (uint256) {\n        return _currentTokenID + 1;\n    }\n\n    /**\n     * @dev increments the value of _currentTokenID\n     */\n    function _incrementTokenTypeId() private {\n        _currentTokenID++;\n    }\n\n    function supportsInterface(bytes4 _interfaceID)\n        public\n        view\n        virtual\n        override(ERC1155, ERC1155Metadata)\n        returns (bool)\n    {\n        if (_interfaceID == type(IERC1155).interfaceId) {\n            return true;\n        }\n        return super.supportsInterface(_interfaceID);\n    }\n}\n",
  "sourcePath": "E:\\Optimusfox\\1111 abosch\\contracts\\opensea\\ERC1155Tradable.sol",
  "compiler": {
    "name": "solc",
    "version": "0.8.0+commit.c7dfd78e.Emscripten.clang"
  },
  "schemaVersion": "3.4.1",
  "updatedAt": "2021-09-28T11:07:38.260Z",
  "devdoc": {
    "kind": "dev",
    "methods": {
      "balanceOf(address,uint256)": {
        "params": {
          "_id": "ID of the Token",
          "_owner": "The address of the token holder"
        },
        "returns": {
          "_0": "The _owner's balance of the Token type requested"
        }
      },
      "balanceOfBatch(address[],uint256[])": {
        "params": {
          "_ids": "ID of the Tokens",
          "_owners": "The addresses of the token holders"
        },
        "returns": {
          "_0": "The _owner's balance of the Token types requested (i.e. balance for each (owner, id) pair)"
        }
      },
      "batchMint(address,uint256[],uint256[],bytes)": {
        "details": "Mint tokens for each id in _ids",
        "params": {
          "_data": "Data to pass if receiver is contract",
          "_ids": "Array of ids to mint",
          "_quantities": "Array of amounts of tokens to mint per id",
          "_to": "The address to mint tokens to"
        }
      },
      "burnFrom(address,uint256,uint256)": {
        "details": "Burns some amount of tokens to an address",
        "params": {
          "_from": "Burn from",
          "_id": "Token ID to mint",
          "_quantity": "Amount of tokens to burn"
        }
      },
      "create(address,uint256,string,bytes)": {
        "details": "Creates a new token type and assigns _initialSupply to an address NOTE: remove onlyOwner if you want third parties to create new tokens on your contract (which may change your IDs)",
        "params": {
          "_data": "Data to pass if receiver is contract",
          "_initialOwner": "address of the first owner of the token",
          "_initialSupply": "amount to supply the first owner",
          "_uri": "Optional URI for this token type"
        },
        "returns": {
          "_0": "The newly created token ID"
        }
      },
      "mint(address,uint256,uint256,bytes)": {
        "details": "Mints some amount of tokens to an address",
        "params": {
          "_data": "Data to pass if receiver is contract",
          "_id": "Token ID to mint",
          "_quantity": "Amount of tokens to mint",
          "_to": "Address of the future owner of the token"
        }
      },
      "owner()": {
        "details": "Returns the address of the current owner."
      },
      "renounceOwnership()": {
        "details": "Leaves the contract without owner. It will not be possible to call `onlyOwner` functions anymore. Can only be called by the current owner. NOTE: Renouncing ownership will leave the contract without an owner, thereby removing any functionality that is only available to the owner."
      },
      "safeBatchTransferFrom(address,address,uint256[],uint256[],bytes)": {
        "params": {
          "_amounts": "Transfer amounts per token type",
          "_data": "Additional data with no specified format, sent in call to `_to`",
          "_from": "Source addresses",
          "_ids": "IDs of each token type",
          "_to": "Target addresses"
        }
      },
      "safeTransferFrom(address,address,uint256,uint256,bytes)": {
        "params": {
          "_amount": "Transfered amount",
          "_data": "Additional data with no specified format, sent in call to `_to`",
          "_from": "Source address",
          "_id": "ID of the token type",
          "_to": "Target address"
        }
      },
      "setApprovalForAll(address,bool)": {
        "params": {
          "_approved": "True if the operator is approved, false to revoke approval",
          "_operator": "Address to add to the set of authorized operators"
        }
      },
      "setBaseMetadataURI(string)": {
        "details": "Will update the base URL of token's URI",
        "params": {
          "_newBaseMetadataURI": "New base URL of token's URI"
        }
      },
      "setCreator(address,uint256[])": {
        "details": "Change the creator address for given tokens",
        "params": {
          "_ids": "Array of Token IDs to change creator",
          "_to": "Address of the new creator"
        }
      },
      "totalSupply(uint256)": {
        "details": "Returns the total quantity for a token ID",
        "params": {
          "_id": "uint256 ID of the token to query"
        },
        "returns": {
          "_0": "amount of token in existence"
        }
      },
      "transferOwnership(address)": {
        "details": "Transfers ownership of the contract to a new account (`newOwner`). Can only be called by the current owner."
      },
      "uri(uint256)": {
        "details": "URIs are defined in RFC 3986.      URIs are assumed to be deterministically generated based on token ID",
        "returns": {
          "_0": "URI string"
        }
      }
    },
    "title": "ERC1155Tradable ERC1155Tradable - ERC1155 contract that whitelists an operator address, has create and mint functionality, and supports useful standards from OpenZeppelin, like _exists(), name(), symbol(), and totalSupply()",
    "version": 1
  },
  "userdoc": {
    "kind": "user",
    "methods": {
      "balanceOf(address,uint256)": {
        "notice": "Get the balance of an account's Tokens"
      },
      "balanceOfBatch(address[],uint256[])": {
        "notice": "Get the balance of multiple account/token pairs"
      },
      "isApprovedForAll(address,address)": {
        "notice": "Override isApprovedForAll to whitelist user's OpenSea proxy accounts to enable gas-free listings."
      },
      "safeBatchTransferFrom(address,address,uint256[],uint256[],bytes)": {
        "notice": "Send multiple types of Tokens from the _from address to the _to address (with safety call)"
      },
      "safeTransferFrom(address,address,uint256,uint256,bytes)": {
        "notice": "Transfers amount amount of an _id from the _from address to the _to address specified"
      },
      "setApprovalForAll(address,bool)": {
        "notice": "Enable or disable approval for a third party (\"operator\") to manage all of caller's tokens"
      },
      "uri(uint256)": {
        "notice": "A distinct Uniform Resource Identifier (URI) for a given token."
      }
    },
    "version": 1
  }
}