{
  "contractName": "ERC1155Meta",
  "abi": [
    {
      "anonymous": false,
      "inputs": [
        {
          "indexed": true,
          "internalType": "address",
          "name": "_owner",
          "type": "address"
        },
        {
          "indexed": true,
          "internalType": "address",
          "name": "_operator",
          "type": "address"
        },
        {
          "indexed": false,
          "internalType": "bool",
          "name": "_approved",
          "type": "bool"
        }
      ],
      "name": "ApprovalForAll",
      "type": "event"
    },
    {
      "anonymous": false,
      "inputs": [
        {
          "indexed": true,
          "internalType": "address",
          "name": "signer",
          "type": "address"
        },
        {
          "indexed": false,
          "internalType": "uint256",
          "name": "newNonce",
          "type": "uint256"
        }
      ],
      "name": "NonceChange",
      "type": "event"
    },
    {
      "anonymous": false,
      "inputs": [
        {
          "indexed": true,
          "internalType": "address",
          "name": "_operator",
          "type": "address"
        },
        {
          "indexed": true,
          "internalType": "address",
          "name": "_from",
          "type": "address"
        },
        {
          "indexed": true,
          "internalType": "address",
          "name": "_to",
          "type": "address"
        },
        {
          "indexed": false,
          "internalType": "uint256[]",
          "name": "_ids",
          "type": "uint256[]"
        },
        {
          "indexed": false,
          "internalType": "uint256[]",
          "name": "_amounts",
          "type": "uint256[]"
        }
      ],
      "name": "TransferBatch",
      "type": "event"
    },
    {
      "anonymous": false,
      "inputs": [
        {
          "indexed": true,
          "internalType": "address",
          "name": "_operator",
          "type": "address"
        },
        {
          "indexed": true,
          "internalType": "address",
          "name": "_from",
          "type": "address"
        },
        {
          "indexed": true,
          "internalType": "address",
          "name": "_to",
          "type": "address"
        },
        {
          "indexed": false,
          "internalType": "uint256",
          "name": "_id",
          "type": "uint256"
        },
        {
          "indexed": false,
          "internalType": "uint256",
          "name": "_amount",
          "type": "uint256"
        }
      ],
      "name": "TransferSingle",
      "type": "event"
    },
    {
      "inputs": [
        {
          "internalType": "address",
          "name": "_owner",
          "type": "address"
        },
        {
          "internalType": "uint256",
          "name": "_id",
          "type": "uint256"
        }
      ],
      "name": "balanceOf",
      "outputs": [
        {
          "internalType": "uint256",
          "name": "",
          "type": "uint256"
        }
      ],
      "stateMutability": "view",
      "type": "function"
    },
    {
      "inputs": [
        {
          "internalType": "address[]",
          "name": "_owners",
          "type": "address[]"
        },
        {
          "internalType": "uint256[]",
          "name": "_ids",
          "type": "uint256[]"
        }
      ],
      "name": "balanceOfBatch",
      "outputs": [
        {
          "internalType": "uint256[]",
          "name": "",
          "type": "uint256[]"
        }
      ],
      "stateMutability": "view",
      "type": "function"
    },
    {
      "inputs": [
        {
          "internalType": "address",
          "name": "_owner",
          "type": "address"
        },
        {
          "internalType": "address",
          "name": "_operator",
          "type": "address"
        }
      ],
      "name": "isApprovedForAll",
      "outputs": [
        {
          "internalType": "bool",
          "name": "isOperator",
          "type": "bool"
        }
      ],
      "stateMutability": "view",
      "type": "function"
    },
    {
      "inputs": [
        {
          "internalType": "address",
          "name": "_signerAddress",
          "type": "address"
        },
        {
          "internalType": "bytes32",
          "name": "_hash",
          "type": "bytes32"
        },
        {
          "internalType": "bytes",
          "name": "_data",
          "type": "bytes"
        },
        {
          "internalType": "bytes",
          "name": "_sig",
          "type": "bytes"
        }
      ],
      "name": "isValidSignature",
      "outputs": [
        {
          "internalType": "bool",
          "name": "isValid",
          "type": "bool"
        }
      ],
      "stateMutability": "view",
      "type": "function"
    },
    {
      "inputs": [
        {
          "internalType": "address",
          "name": "_from",
          "type": "address"
        },
        {
          "internalType": "address",
          "name": "_to",
          "type": "address"
        },
        {
          "internalType": "uint256[]",
          "name": "_ids",
          "type": "uint256[]"
        },
        {
          "internalType": "uint256[]",
          "name": "_amounts",
          "type": "uint256[]"
        },
        {
          "internalType": "bytes",
          "name": "_data",
          "type": "bytes"
        }
      ],
      "name": "safeBatchTransferFrom",
      "outputs": [],
      "stateMutability": "nonpayable",
      "type": "function"
    },
    {
      "inputs": [
        {
          "internalType": "address",
          "name": "_from",
          "type": "address"
        },
        {
          "internalType": "address",
          "name": "_to",
          "type": "address"
        },
        {
          "internalType": "uint256",
          "name": "_id",
          "type": "uint256"
        },
        {
          "internalType": "uint256",
          "name": "_amount",
          "type": "uint256"
        },
        {
          "internalType": "bytes",
          "name": "_data",
          "type": "bytes"
        }
      ],
      "name": "safeTransferFrom",
      "outputs": [],
      "stateMutability": "nonpayable",
      "type": "function"
    },
    {
      "inputs": [
        {
          "internalType": "address",
          "name": "_operator",
          "type": "address"
        },
        {
          "internalType": "bool",
          "name": "_approved",
          "type": "bool"
        }
      ],
      "name": "setApprovalForAll",
      "outputs": [],
      "stateMutability": "nonpayable",
      "type": "function"
    },
    {
      "inputs": [
        {
          "internalType": "bytes4",
          "name": "_interfaceID",
          "type": "bytes4"
        }
      ],
      "name": "supportsInterface",
      "outputs": [
        {
          "internalType": "bool",
          "name": "",
          "type": "bool"
        }
      ],
      "stateMutability": "view",
      "type": "function"
    },
    {
      "inputs": [
        {
          "internalType": "address",
          "name": "_from",
          "type": "address"
        },
        {
          "internalType": "address",
          "name": "_to",
          "type": "address"
        },
        {
          "internalType": "uint256",
          "name": "_id",
          "type": "uint256"
        },
        {
          "internalType": "uint256",
          "name": "_amount",
          "type": "uint256"
        },
        {
          "internalType": "bool",
          "name": "_isGasFee",
          "type": "bool"
        },
        {
          "internalType": "bytes",
          "name": "_data",
          "type": "bytes"
        }
      ],
      "name": "metaSafeTransferFrom",
      "outputs": [],
      "stateMutability": "nonpayable",
      "type": "function"
    },
    {
      "inputs": [
        {
          "internalType": "address",
          "name": "_from",
          "type": "address"
        },
        {
          "internalType": "address",
          "name": "_to",
          "type": "address"
        },
        {
          "internalType": "uint256[]",
          "name": "_ids",
          "type": "uint256[]"
        },
        {
          "internalType": "uint256[]",
          "name": "_amounts",
          "type": "uint256[]"
        },
        {
          "internalType": "bool",
          "name": "_isGasFee",
          "type": "bool"
        },
        {
          "internalType": "bytes",
          "name": "_data",
          "type": "bytes"
        }
      ],
      "name": "metaSafeBatchTransferFrom",
      "outputs": [],
      "stateMutability": "nonpayable",
      "type": "function"
    },
    {
      "inputs": [
        {
          "internalType": "address",
          "name": "_owner",
          "type": "address"
        },
        {
          "internalType": "address",
          "name": "_operator",
          "type": "address"
        },
        {
          "internalType": "bool",
          "name": "_approved",
          "type": "bool"
        },
        {
          "internalType": "bool",
          "name": "_isGasFee",
          "type": "bool"
        },
        {
          "internalType": "bytes",
          "name": "_data",
          "type": "bytes"
        }
      ],
      "name": "metaSetApprovalForAll",
      "outputs": [],
      "stateMutability": "nonpayable",
      "type": "function"
    },
    {
      "inputs": [
        {
          "internalType": "address",
          "name": "_signer",
          "type": "address"
        }
      ],
      "name": "getNonce",
      "outputs": [
        {
          "internalType": "uint256",
          "name": "nonce",
          "type": "uint256"
        }
      ],
      "stateMutability": "view",
      "type": "function"
    }
  ],
  "bytecode": "0x608060405234801561001057600080fd5b5061486f806100206000396000f3fe608060405234801561001057600080fd5b50600436106100b35760003560e01c8063a3d4926e11610071578063a3d4926e146101b0578063ce0b514b146101cc578063e985e9c5146101e8578063f242432a14610218578063f5d4c82014610234578063fa4e12d714610250576100b3565b8062fdd58e146100b857806301ffc9a7146100e85780632d0335ab146101185780632eb2c2d6146101485780634e1273f414610164578063a22cb46514610194575b600080fd5b6100d260048036038101906100cd9190612f80565b610280565b6040516100df91906143eb565b60405180910390f35b61010260048036038101906100fd9190613051565b6102da565b60405161010f9190613f46565b60405180910390f35b610132600480360381019061012d9190612a98565b61035c565b60405161013f91906143eb565b60405180910390f35b610162600480360381019061015d9190612c33565b6103a5565b005b61017e60048036038101906101799190612fbc565b6104b5565b60405161018b9190613eed565b60405180910390f35b6101ae60048036038101906101a99190612eb1565b6106ae565b005b6101ca60048036038101906101c59190612b62565b6107ab565b005b6101e660048036038101906101e19190612d81565b610943565b005b61020260048036038101906101fd9190612b26565b610a8f565b60405161020f9190613f46565b60405180910390f35b610232600480360381019061022d9190612e22565b610b23565b005b61024e60048036038101906102499190612cf2565b610c33565b005b61026a60048036038101906102659190612eed565b610dd3565b6040516102779190613f46565b60405180910390f35b60008060008473ffffffffffffffffffffffffffffffffffffffff1673ffffffffffffffffffffffffffffffffffffffff168152602001908152602001600020600083815260200190815260200160002054905092915050565b60007fd9b67a26000000000000000000000000000000000000000000000000000000007bffffffffffffffffffffffffffffffffffffffffffffffffffffffff1916827bffffffffffffffffffffffffffffffffffffffffffffffffffffffff1916141561034b5760019050610357565b610354826116ab565b90505b919050565b6000600260008373ffffffffffffffffffffffffffffffffffffffff1673ffffffffffffffffffffffffffffffffffffffff168152602001908152602001600020549050919050565b8473ffffffffffffffffffffffffffffffffffffffff163373ffffffffffffffffffffffffffffffffffffffff1614806103e557506103e48533610a8f565b5b610424576040517f08c379a000000000000000000000000000000000000000000000000000000000815260040161041b906142eb565b60405180910390fd5b600073ffffffffffffffffffffffffffffffffffffffff168473ffffffffffffffffffffffffffffffffffffffff161415610494576040517f08c379a000000000000000000000000000000000000000000000000000000000815260040161048b9061426b565b60405180910390fd5b6104a085858585611715565b6104ae858585855a86611adf565b5050505050565b606081518351146104fb576040517f08c379a00000000000000000000000000000000000000000000000000000000081526004016104f29061428b565b60405180910390fd5b6000835167ffffffffffffffff81111561053e577f4e487b7100000000000000000000000000000000000000000000000000000000600052604160045260246000fd5b60405190808252806020026020018201604052801561056c5781602001602082028036833780820191505090505b50905060005b84518110156106a3576000808683815181106105b7577f4e487b7100000000000000000000000000000000000000000000000000000000600052603260045260246000fd5b602002602001015173ffffffffffffffffffffffffffffffffffffffff1673ffffffffffffffffffffffffffffffffffffffff1681526020019081526020016000206000858381518110610634577f4e487b7100000000000000000000000000000000000000000000000000000000600052603260045260246000fd5b6020026020010151815260200190815260200160002054828281518110610684577f4e487b7100000000000000000000000000000000000000000000000000000000600052603260045260246000fd5b602002602001018181525050808061069b906146e3565b915050610572565b508091505092915050565b80600160003373ffffffffffffffffffffffffffffffffffffffff1673ffffffffffffffffffffffffffffffffffffffff16815260200190815260200160002060008473ffffffffffffffffffffffffffffffffffffffff1673ffffffffffffffffffffffffffffffffffffffff16815260200190815260200160002060006101000a81548160ff0219169083151502179055508173ffffffffffffffffffffffffffffffffffffffff163373ffffffffffffffffffffffffffffffffffffffff167f17307eab39ab6107e8899845ad3d59bd9653f200f220920489ca2b5937696c318360405161079f9190613f46565b60405180910390a35050565b600073ffffffffffffffffffffffffffffffffffffffff168573ffffffffffffffffffffffffffffffffffffffff16141561081b576040517f08c379a00000000000000000000000000000000000000000000000000000000081526004016108129061432b565b60405180910390fd5b6060610825612700565b60006108d889857fa3d4926e8cf8fe8e020cd29f514c256bc2eec62aa2337e415f1a33a4828af5a060001b8c8c8c6040516020016108639190613cb8565b604051602081830303815290604052805190602001208c60405160200161088a9190613cb8565b604051602081830303815290604052805190602001208c6108ac5760006108af565b60015b6040516020016108c496959493929190613f8a565b604051602081830303815290604052611c2d565b90506108e689898989611715565b841561092957808060200190518101906109009190613150565b809450819350505061091a89898989866020015188611adf565b6109248983611e6c565b610938565b610937898989895a86611adf565b5b505050505050505050565b600073ffffffffffffffffffffffffffffffffffffffff168573ffffffffffffffffffffffffffffffffffffffff1614156109b3576040517f08c379a00000000000000000000000000000000000000000000000000000000081526004016109aa906141eb565b60405180910390fd5b60606109bd612700565b6000610a2489857fce0b514b3931bdbe4d5d44e4f035afe7113767b7db71949271f6a62d9c60f55860001b8c8c8c8c8c6109f85760006109fb565b60015b604051602001610a109695949392919061403e565b604051602081830303815290604052611c2d565b9050610a32898989896121f8565b8415610a755780806020019051810190610a4c9190613150565b8094508193505050610a66898989898660200151886123d8565b610a708983611e6c565b610a84565b610a83898989895a866123d8565b5b505050505050505050565b6000600160008473ffffffffffffffffffffffffffffffffffffffff1673ffffffffffffffffffffffffffffffffffffffff16815260200190815260200160002060008373ffffffffffffffffffffffffffffffffffffffff1673ffffffffffffffffffffffffffffffffffffffff16815260200190815260200160002060009054906101000a900460ff16905092915050565b8473ffffffffffffffffffffffffffffffffffffffff163373ffffffffffffffffffffffffffffffffffffffff161480610b635750610b628533610a8f565b5b610ba2576040517f08c379a0000000000000000000000000000000000000000000000000000000008152600401610b999061418b565b60405180910390fd5b600073ffffffffffffffffffffffffffffffffffffffff168473ffffffffffffffffffffffffffffffffffffffff161415610c12576040517f08c379a0000000000000000000000000000000000000000000000000000000008152600401610c099061414b565b60405180910390fd5b610c1e858585856121f8565b610c2c858585855a866123d8565b5050505050565b6000610ca686837ff5d4c820494c8595de274c7ff619bead38aac4fbc3d143b5bf956aa4b84fa52460001b898989610c6c576000610c6f565b60015b89610c7b576000610c7e565b60015b604051602001610c92959493929190613feb565b604051602081830303815290604052611c2d565b905083600160008873ffffffffffffffffffffffffffffffffffffffff1673ffffffffffffffffffffffffffffffffffffffff16815260200190815260200160002060008773ffffffffffffffffffffffffffffffffffffffff1673ffffffffffffffffffffffffffffffffffffffff16815260200190815260200160002060006101000a81548160ff0219169083151502179055508473ffffffffffffffffffffffffffffffffffffffff168673ffffffffffffffffffffffffffffffffffffffff167f17307eab39ab6107e8899845ad3d59bd9653f200f220920489ca2b5937696c3186604051610d999190613f46565b60405180910390a38215610dcb57600081806020019051810190610dbd919061310f565b9050610dc98782611e6c565b505b505050505050565b600080825111610e18576040517f08c379a0000000000000000000000000000000000000000000000000000000008152600401610e0f9061430b565b60405180910390fd5b600073ffffffffffffffffffffffffffffffffffffffff168573ffffffffffffffffffffffffffffffffffffffff161415610e88576040517f08c379a0000000000000000000000000000000000000000000000000000000008152600401610e7f906142cb565b60405180910390fd5b6000610e9383612526565b60f81c9050600580811115610ed1577f4e487b7100000000000000000000000000000000000000000000000000000000600052602160045260246000fd5b60ff168160ff1610610f18576040517f08c379a0000000000000000000000000000000000000000000000000000000008152600401610f0f906141cb565b60405180910390fd5b60008160ff166005811115610f56577f4e487b7100000000000000000000000000000000000000000000000000000000600052602160045260246000fd5b905060008060008060006005811115610f98577f4e487b7100000000000000000000000000000000000000000000000000000000600052602160045260246000fd5b856005811115610fd1577f4e487b7100000000000000000000000000000000000000000000000000000000600052602160045260246000fd5b1415611012576040517f08c379a00000000000000000000000000000000000000000000000000000000081526004016110099061420b565b60405180910390fd5b6001600581111561104c577f4e487b7100000000000000000000000000000000000000000000000000000000600052602160045260246000fd5b856005811115611085577f4e487b7100000000000000000000000000000000000000000000000000000000600052602160045260246000fd5b14156111d25760618851146110cf576040517f08c379a00000000000000000000000000000000000000000000000000000000081526004016110c69061424b565b60405180910390fd5b6110e36000896125cc90919063ffffffff16565b92506110f96020896125cc90919063ffffffff16565b915087604081518110611135577f4e487b7100000000000000000000000000000000000000000000000000000000600052603260045260246000fd5b602001015160f81c60f81b60f81c935060018a8585856040516000815260200160405260405161116894939291906140cf565b6020604051602081039080840390855afa15801561118a573d6000803e3d6000fd5b5050506020604051035190508073ffffffffffffffffffffffffffffffffffffffff168b73ffffffffffffffffffffffffffffffffffffffff161496505050505050506116a3565b6002600581111561120c577f4e487b7100000000000000000000000000000000000000000000000000000000600052602160045260246000fd5b856005811115611245577f4e487b7100000000000000000000000000000000000000000000000000000000600052602160045260246000fd5b14156113b857606188511461128f576040517f08c379a00000000000000000000000000000000000000000000000000000000081526004016112869061424b565b60405180910390fd5b6112a36000896125cc90919063ffffffff16565b92506112b96020896125cc90919063ffffffff16565b9150876040815181106112f5577f4e487b7100000000000000000000000000000000000000000000000000000000600052603260045260246000fd5b602001015160f81c60f81b60f81c935060018a6040516020016113189190613d76565b604051602081830303815290604052805190602001208585856040516000815260200160405260405161134e94939291906140cf565b6020604051602081039080840390855afa158015611370573d6000803e3d6000fd5b5050506020604051035190508073ffffffffffffffffffffffffffffffffffffffff168b73ffffffffffffffffffffffffffffffffffffffff161496505050505050506116a3565b600360058111156113f2577f4e487b7100000000000000000000000000000000000000000000000000000000600052602160045260246000fd5b85600581111561142b577f4e487b7100000000000000000000000000000000000000000000000000000000600052602160045260246000fd5b1415611510578a73ffffffffffffffffffffffffffffffffffffffff166320c13b0b8a8a6040518363ffffffff1660e01b815260040161146c929190614114565b60206040518083038186803b15801561148457600080fd5b505afa158015611498573d6000803e3d6000fd5b505050506040513d601f19601f820116820180604052508101906114bc919061307a565b7bffffffffffffffffffffffffffffffffffffffffffffffffffffffff19166320c13b0b60e01b7bffffffffffffffffffffffffffffffffffffffffffffffffffffffff19161496505050505050506116a3565b6004600581111561154a577f4e487b7100000000000000000000000000000000000000000000000000000000600052602160045260246000fd5b856005811115611583577f4e487b7100000000000000000000000000000000000000000000000000000000600052602160045260246000fd5b1415611668578a73ffffffffffffffffffffffffffffffffffffffff16631626ba7e8b8a6040518363ffffffff1660e01b81526004016115c492919061409f565b60206040518083038186803b1580156115dc57600080fd5b505afa1580156115f0573d6000803e3d6000fd5b505050506040513d601f19601f82011682018060405250810190611614919061307a565b7bffffffffffffffffffffffffffffffffffffffffffffffffffffffff1916631626ba7e60e01b7bffffffffffffffffffffffffffffffffffffffffffffffffffffffff19161496505050505050506116a3565b6040517f08c379a000000000000000000000000000000000000000000000000000000000815260040161169a906141cb565b60405180910390fd5b949350505050565b60007f01ffc9a7000000000000000000000000000000000000000000000000000000007bffffffffffffffffffffffffffffffffffffffffffffffffffffffff1916827bffffffffffffffffffffffffffffffffffffffffffffffffffffffff1916149050919050565b8051825114611759576040517f08c379a0000000000000000000000000000000000000000000000000000000008152600401611750906141ab565b60405180910390fd5b60008251905060005b81811015611a59578281815181106117a3577f4e487b7100000000000000000000000000000000000000000000000000000000600052603260045260246000fd5b60200260200101516000808873ffffffffffffffffffffffffffffffffffffffff1673ffffffffffffffffffffffffffffffffffffffff1681526020019081526020016000206000868481518110611824577f4e487b7100000000000000000000000000000000000000000000000000000000600052603260045260246000fd5b602002602001015181526020019081526020016000205461184591906145d0565b6000808873ffffffffffffffffffffffffffffffffffffffff1673ffffffffffffffffffffffffffffffffffffffff16815260200190815260200160002060008684815181106118be577f4e487b7100000000000000000000000000000000000000000000000000000000600052603260045260246000fd5b6020026020010151815260200190815260200160002081905550828181518110611911577f4e487b7100000000000000000000000000000000000000000000000000000000600052603260045260246000fd5b60200260200101516000808773ffffffffffffffffffffffffffffffffffffffff1673ffffffffffffffffffffffffffffffffffffffff1681526020019081526020016000206000868481518110611992577f4e487b7100000000000000000000000000000000000000000000000000000000600052603260045260246000fd5b60200260200101518152602001908152602001600020546119b3919061457a565b6000808773ffffffffffffffffffffffffffffffffffffffff1673ffffffffffffffffffffffffffffffffffffffff1681526020019081526020016000206000868481518110611a2c577f4e487b7100000000000000000000000000000000000000000000000000000000600052603260045260246000fd5b60200260200101518152602001908152602001600020819055508080611a51906146e3565b915050611762565b508373ffffffffffffffffffffffffffffffffffffffff168573ffffffffffffffffffffffffffffffffffffffff163373ffffffffffffffffffffffffffffffffffffffff167f4a39dc06d4c0dbc64b70af90fd698a233a518aa5d07e595d983b8c0526c8f7fb8686604051611ad0929190613f0f565b60405180910390a45050505050565b611afe8573ffffffffffffffffffffffffffffffffffffffff16612639565b15611c255760008573ffffffffffffffffffffffffffffffffffffffff1663bc197c8184338a8989886040518763ffffffff1660e01b8152600401611b47959493929190613d9c565b602060405180830381600088803b158015611b6157600080fd5b5087f1158015611b75573d6000803e3d6000fd5b50505050506040513d601f19601f82011682018060405250810190611b9a919061307a565b905063bc197c8160e01b7bffffffffffffffffffffffffffffffffffffffffffffffffffffffff1916817bffffffffffffffffffffffffffffffffffffffffffffffffffffffff191614611c23576040517f08c379a0000000000000000000000000000000000000000000000000000000008152600401611c1a9061434b565b60405180910390fd5b505b505050505050565b60608083806020019051810190611c4491906130a3565b80935081925050506000600260008773ffffffffffffffffffffffffffffffffffffffff1673ffffffffffffffffffffffffffffffffffffffff1681526020019081526020016000205490506000611ca66041846125cc90919063ffffffff16565b60001c9050818110158015611cc65750606482611cc3919061457a565b81105b611d05576040517f08c379a0000000000000000000000000000000000000000000000000000000008152600401611cfc906143ab565b60405180910390fd5b6000611d4186838780519060200120604051602001611d2693929190613ccf565b6040516020818303038152906040528051906020012061264c565b90506000868387604051602001611d5a93929190613d08565b6040516020818303038152906040529050600183611d78919061457a565b600260008b73ffffffffffffffffffffffffffffffffffffffff1673ffffffffffffffffffffffffffffffffffffffff168152602001908152602001600020819055508873ffffffffffffffffffffffffffffffffffffffff167fb861b7bdbe611a846ab271b8d2810391bc8b5a968f390c322438ecab66bccf59600185611e00919061457a565b604051611e0d91906143eb565b60405180910390a2611e2189838388610dd3565b611e60576040517f08c379a0000000000000000000000000000000000000000000000000000000008152600401611e579061422b565b60405180910390fd5b50505050509392505050565b6000611e7b8260600151612526565b60f81c9050600280811115611eb9577f4e487b7100000000000000000000000000000000000000000000000000000000600052602160045260246000fd5b60ff168160ff1610611f00576040517f08c379a0000000000000000000000000000000000000000000000000000000008152600401611ef7906143cb565b60405180910390fd5b60008160ff166002811115611f3e577f4e487b7100000000000000000000000000000000000000000000000000000000600052602160045260246000fd5b905060008060008086600001519050600073ffffffffffffffffffffffffffffffffffffffff16876040015173ffffffffffffffffffffffffffffffffffffffff1614611f8f578660400151611f91565b335b925060006002811115611fcd577f4e487b7100000000000000000000000000000000000000000000000000000000600052602160045260246000fd5b856002811115612006577f4e487b7100000000000000000000000000000000000000000000000000000000600052602160045260246000fd5b14156121055786606001518060200190518101906120249190612aea565b80935081955050503073ffffffffffffffffffffffffffffffffffffffff168473ffffffffffffffffffffffffffffffffffffffff16141561208e5761206c888484846121f8565b6120898884845a85604051806020016040528060008152506123d8565b612100565b8373ffffffffffffffffffffffffffffffffffffffff1663f242432a898585856040518563ffffffff1660e01b81526004016120cd9493929190613e95565b600060405180830381600087803b1580156120e757600080fd5b505af11580156120fb573d6000803e3d6000fd5b505050505b6121ee565b866060015180602001905181019061211d9190612ac1565b93508373ffffffffffffffffffffffffffffffffffffffff166323b872dd8985846040518463ffffffff1660e01b815260040161215c93929190613e04565b602060405180830381600087803b15801561217657600080fd5b505af115801561218a573d6000803e3d6000fd5b505050506040513d601f19601f820116820180604052508101906121ae9190613028565b6121ed576040517f08c379a00000000000000000000000000000000000000000000000000000000081526004016121e4906142ab565b60405180910390fd5b5b5050505050505050565b806000808673ffffffffffffffffffffffffffffffffffffffff1673ffffffffffffffffffffffffffffffffffffffff16815260200190815260200160002060008481526020019081526020016000205461225391906145d0565b6000808673ffffffffffffffffffffffffffffffffffffffff1673ffffffffffffffffffffffffffffffffffffffff168152602001908152602001600020600084815260200190815260200160002081905550806000808573ffffffffffffffffffffffffffffffffffffffff1673ffffffffffffffffffffffffffffffffffffffff168152602001908152602001600020600084815260200190815260200160002054612301919061457a565b6000808573ffffffffffffffffffffffffffffffffffffffff1673ffffffffffffffffffffffffffffffffffffffff1681526020019081526020016000206000848152602001908152602001600020819055508273ffffffffffffffffffffffffffffffffffffffff168473ffffffffffffffffffffffffffffffffffffffff163373ffffffffffffffffffffffffffffffffffffffff167fc3d58168c5ae7397731d063d5bbf3d657854427343f4c083240f7aacaa2d0f6285856040516123ca929190614406565b60405180910390a450505050565b6123f78573ffffffffffffffffffffffffffffffffffffffff16612639565b1561251e5760008573ffffffffffffffffffffffffffffffffffffffff1663f23a6e6184338a8989886040518763ffffffff1660e01b8152600401612440959493929190613e3b565b602060405180830381600088803b15801561245a57600080fd5b5087f115801561246e573d6000803e3d6000fd5b50505050506040513d601f19601f82011682018060405250810190612493919061307a565b905063f23a6e6160e01b7bffffffffffffffffffffffffffffffffffffffffffffffffffffffff1916817bffffffffffffffffffffffffffffffffffffffffffffffffffffffff19161461251c576040517f08c379a00000000000000000000000000000000000000000000000000000000081526004016125139061436b565b60405180910390fd5b505b505050505050565b60008082511161256b576040517f08c379a00000000000000000000000000000000000000000000000000000000081526004016125629061416b565b60405180910390fd5b816001835161257a91906145d0565b815181106125b1577f4e487b7100000000000000000000000000000000000000000000000000000000600052603260045260246000fd5b602001015160f81c60f81b9050600182510380835250919050565b60006020826125db919061457a565b8351101561261e576040517f08c379a00000000000000000000000000000000000000000000000000000000081526004016126159061438b565b60405180910390fd5b60208261262b919061457a565b915081830151905092915050565b600080823b905060008111915050919050565b60006040518060400160405280600281526020017f19010000000000000000000000000000000000000000000000000000000000008152507f035aff83d86937d35b32e04f0ddc6ff469290eef2f1b692d8a815c89404d474960001b306040516020016126ba929190613f61565b60405160208183030381529060405280519060200120836040516020016126e393929190613d3d565b604051602081830303815290604052805190602001209050919050565b60405180608001604052806000815260200160008152602001600073ffffffffffffffffffffffffffffffffffffffff168152602001606081525090565b600061275161274c84614460565b61442f565b9050808382526020820190508285602086028201111561277057600080fd5b60005b858110156127a057816127868882612892565b845260208401935060208301925050600181019050612773565b5050509392505050565b60006127bd6127b88461448c565b61442f565b905080838252602082019050828560208602820111156127dc57600080fd5b60005b8581101561280c57816127f28882612a6e565b8452602084019350602083019250506001810190506127df565b5050509392505050565b6000612829612824846144b8565b61442f565b90508281526020810184848401111561284157600080fd5b61284c8482856146a1565b509392505050565b6000612867612862846144b8565b61442f565b90508281526020810184848401111561287f57600080fd5b61288a8482856146b0565b509392505050565b6000813590506128a1816147af565b92915050565b6000815190506128b6816147af565b92915050565b6000815190506128cb816147c6565b92915050565b600082601f8301126128e257600080fd5b81356128f284826020860161273e565b91505092915050565b600082601f83011261290c57600080fd5b813561291c8482602086016127aa565b91505092915050565b600081359050612934816147dd565b92915050565b600081519050612949816147dd565b92915050565b60008135905061295e816147f4565b92915050565b6000813590506129738161480b565b92915050565b6000815190506129888161480b565b92915050565b600082601f83011261299f57600080fd5b81356129af848260208601612816565b91505092915050565b600082601f8301126129c957600080fd5b81516129d9848260208601612854565b91505092915050565b6000608082840312156129f457600080fd5b6129fe608061442f565b90506000612a0e84828501612a83565b6000830152506020612a2284828501612a83565b6020830152506040612a36848285016128a7565b604083015250606082015167ffffffffffffffff811115612a5657600080fd5b612a62848285016129b8565b60608301525092915050565b600081359050612a7d81614822565b92915050565b600081519050612a9281614822565b92915050565b600060208284031215612aaa57600080fd5b6000612ab884828501612892565b91505092915050565b600060208284031215612ad357600080fd5b6000612ae1848285016128bc565b91505092915050565b60008060408385031215612afd57600080fd5b6000612b0b858286016128bc565b9250506020612b1c85828601612a83565b9150509250929050565b60008060408385031215612b3957600080fd5b6000612b4785828601612892565b9250506020612b5885828601612892565b9150509250929050565b60008060008060008060c08789031215612b7b57600080fd5b6000612b8989828a01612892565b9650506020612b9a89828a01612892565b955050604087013567ffffffffffffffff811115612bb757600080fd5b612bc389828a016128fb565b945050606087013567ffffffffffffffff811115612be057600080fd5b612bec89828a016128fb565b9350506080612bfd89828a01612925565b92505060a087013567ffffffffffffffff811115612c1a57600080fd5b612c2689828a0161298e565b9150509295509295509295565b600080600080600060a08688031215612c4b57600080fd5b6000612c5988828901612892565b9550506020612c6a88828901612892565b945050604086013567ffffffffffffffff811115612c8757600080fd5b612c93888289016128fb565b935050606086013567ffffffffffffffff811115612cb057600080fd5b612cbc888289016128fb565b925050608086013567ffffffffffffffff811115612cd957600080fd5b612ce58882890161298e565b9150509295509295909350565b600080600080600060a08688031215612d0a57600080fd5b6000612d1888828901612892565b9550506020612d2988828901612892565b9450506040612d3a88828901612925565b9350506060612d4b88828901612925565b925050608086013567ffffffffffffffff811115612d6857600080fd5b612d748882890161298e565b9150509295509295909350565b60008060008060008060c08789031215612d9a57600080fd5b6000612da889828a01612892565b9650506020612db989828a01612892565b9550506040612dca89828a01612a6e565b9450506060612ddb89828a01612a6e565b9350506080612dec89828a01612925565b92505060a087013567ffffffffffffffff811115612e0957600080fd5b612e1589828a0161298e565b9150509295509295509295565b600080600080600060a08688031215612e3a57600080fd5b6000612e4888828901612892565b9550506020612e5988828901612892565b9450506040612e6a88828901612a6e565b9350506060612e7b88828901612a6e565b925050608086013567ffffffffffffffff811115612e9857600080fd5b612ea48882890161298e565b9150509295509295909350565b60008060408385031215612ec457600080fd5b6000612ed285828601612892565b9250506020612ee385828601612925565b9150509250929050565b60008060008060808587031215612f0357600080fd5b6000612f1187828801612892565b9450506020612f228782880161294f565b935050604085013567ffffffffffffffff811115612f3f57600080fd5b612f4b8782880161298e565b925050606085013567ffffffffffffffff811115612f6857600080fd5b612f748782880161298e565b91505092959194509250565b60008060408385031215612f9357600080fd5b6000612fa185828601612892565b9250506020612fb285828601612a6e565b9150509250929050565b60008060408385031215612fcf57600080fd5b600083013567ffffffffffffffff811115612fe957600080fd5b612ff5858286016128d1565b925050602083013567ffffffffffffffff81111561301257600080fd5b61301e858286016128fb565b9150509250929050565b60006020828403121561303a57600080fd5b60006130488482850161293a565b91505092915050565b60006020828403121561306357600080fd5b600061307184828501612964565b91505092915050565b60006020828403121561308c57600080fd5b600061309a84828501612979565b91505092915050565b600080604083850312156130b657600080fd5b600083015167ffffffffffffffff8111156130d057600080fd5b6130dc858286016129b8565b925050602083015167ffffffffffffffff8111156130f957600080fd5b613105858286016129b8565b9150509250929050565b60006020828403121561312157600080fd5b600082015167ffffffffffffffff81111561313b57600080fd5b613147848285016129e2565b91505092915050565b6000806040838503121561316357600080fd5b600083015167ffffffffffffffff81111561317d57600080fd5b613189858286016129e2565b925050602083015167ffffffffffffffff8111156131a657600080fd5b6131b2858286016129b8565b9150509250929050565b60006131c88383613c65565b60208301905092915050565b60006131e08383613c83565b60208301905092915050565b6131f581614604565b82525050565b6000613206826144f8565b6132108185614526565b935061321b836144e8565b8060005b8381101561324c57815161323388826131bc565b975061323e83614519565b92505060018101905061321f565b5085935050505092915050565b6000613264826144f8565b61326e8185614537565b9350613279836144e8565b8060005b838110156132aa57815161329188826131d4565b975061329c83614519565b92505060018101905061327d565b5085935050505092915050565b6132c081614628565b82525050565b6132cf81614634565b82525050565b6132e66132e182614634565b61472c565b82525050565b60006132f782614503565b6133018185614542565b93506133118185602086016146b0565b61331a8161479e565b840191505092915050565b600061333082614503565b61333a8185614553565b935061334a8185602086016146b0565b80840191505092915050565b60006133618261450e565b61336b818561456f565b935061337b8185602086016146b0565b80840191505092915050565b6000613394602b8361455e565b91507f4552433131353523736166655472616e7366657246726f6d3a20494e56414c4960008301527f445f524543495049454e540000000000000000000000000000000000000000006020830152604082019050919050565b60006133fa601c8361456f565b91507f19457468657265756d205369676e6564204d6573736167653a0a3332000000006000830152601c82019050919050565b600061343a60378361455e565b91507f4c6962427974657323706f704c617374427974653a20475245415445525f544860008301527f414e5f5a45524f5f4c454e4754485f52455155495245440000000000000000006020830152604082019050919050565b60006134a0602a8361455e565b91507f4552433131353523736166655472616e7366657246726f6d3a20494e56414c4960008301527f445f4f50455241544f52000000000000000000000000000000000000000000006020830152604082019050919050565b600061350660358361455e565b91507f45524331313535235f7361666542617463685472616e7366657246726f6d3a2060008301527f494e56414c49445f4152524159535f4c454e47544800000000000000000000006020830152604082019050919050565b600061356c603a8361455e565b91507f5369676e617475726556616c696461746f7223697356616c69645369676e617460008301527f7572653a20554e535550504f525445445f5349474e41545552450000000000006020830152604082019050919050565b60006135d260338361455e565b91507f455243313135354d657461236d657461536166655472616e7366657246726f6d60008301527f3a20494e56414c49445f524543495049454e54000000000000000000000000006020830152604082019050919050565b600061363860368361455e565b91507f5369676e617475726556616c696461746f7223697356616c69645369676e617460008301527f7572653a20494c4c4547414c5f5349474e4154555245000000000000000000006020830152604082019050919050565b600061369e60338361455e565b91507f455243313135354d657461235f7369676e617475726556616c69646174696f6e60008301527f3a20494e56414c49445f5349474e4154555245000000000000000000000000006020830152604082019050919050565b600061370460378361455e565b91507f5369676e617475726556616c696461746f7223697356616c69645369676e617460008301527f7572653a204c454e4754485f39375f52455155495245440000000000000000006020830152604082019050919050565b600061376a60308361455e565b91507f45524331313535237361666542617463685472616e7366657246726f6d3a204960008301527f4e56414c49445f524543495049454e54000000000000000000000000000000006020830152604082019050919050565b60006137d0602c8361455e565b91507f455243313135352362616c616e63654f6642617463683a20494e56414c49445f60008301527f41525241595f4c454e47544800000000000000000000000000000000000000006020830152604082019050919050565b600061383660328361455e565b91507f455243313135354d657461235f7472616e736665724761734665653a2045524360008301527f32305f5452414e534645525f4641494c454400000000000000000000000000006020830152604082019050919050565b600061389c60338361455e565b91507f5369676e617475726556616c696461746f7223697356616c69645369676e617460008301527f7572653a20494e56414c49445f5349474e4552000000000000000000000000006020830152604082019050919050565b6000613902602f8361455e565b91507f45524331313535237361666542617463685472616e7366657246726f6d3a204960008301527f4e56414c49445f4f50455241544f5200000000000000000000000000000000006020830152604082019050919050565b600061396860438361455e565b91507f5369676e617475726556616c696461746f7223697356616c69645369676e617460008301527f7572653a204c454e4754485f475245415445525f5448414e5f305f524551554960208301527f52454400000000000000000000000000000000000000000000000000000000006040830152606082019050919050565b60006139f460388361455e565b91507f455243313135354d657461236d6574615361666542617463685472616e73666560008301527f7246726f6d3a20494e56414c49445f524543495049454e5400000000000000006020830152604082019050919050565b6000613a5a600083614542565b9150600082019050919050565b6000613a74603f8361455e565b91507f45524331313535235f63616c6c6f6e455243313135354261746368526563656960008301527f7665643a20494e56414c49445f4f4e5f524543454956455f4d455353414745006020830152604082019050919050565b6000613ada603a8361455e565b91507f45524331313535235f63616c6c6f6e4552433131353552656365697665643a2060008301527f494e56414c49445f4f4e5f524543454956455f4d4553534147450000000000006020830152604082019050919050565b6000613b40603c8361455e565b91507f4c696242797465732372656164427974657333323a20475245415445525f4f5260008301527f5f455155414c5f544f5f33325f4c454e4754485f5245515549524544000000006020830152604082019050919050565b6000613ba6602f8361455e565b91507f455243313135354d657461235f7369676e617475726556616c69646174696f6e60008301527f3a20494e56414c49445f4e4f4e434500000000000000000000000000000000006020830152604082019050919050565b6000613c0c602e8361455e565b91507f455243313135354d657461235f7472616e736665724761734665653a20554e5360008301527f5550504f525445445f544f4b454e0000000000000000000000000000000000006020830152604082019050919050565b613c6e8161468a565b82525050565b613c7d8161468a565b82525050565b613c8c8161468a565b82525050565b613ca3613c9e8261468a565b614736565b82525050565b613cb281614694565b82525050565b6000613cc48284613259565b915081905092915050565b6000613cdb8286613325565b9150613ce78285613c92565b602082019150613cf782846132d5565b602082019150819050949350505050565b6000613d148286613325565b9150613d208285613c92565b602082019150613d308284613325565b9150819050949350505050565b6000613d498286613356565b9150613d5582856132d5565b602082019150613d6582846132d5565b602082019150819050949350505050565b6000613d81826133ed565b9150613d8d82846132d5565b60208201915081905092915050565b600060a082019050613db160008301886131ec565b613dbe60208301876131ec565b8181036040830152613dd081866131fb565b90508181036060830152613de481856131fb565b90508181036080830152613df881846132ec565b90509695505050505050565b6000606082019050613e1960008301866131ec565b613e2660208301856131ec565b613e336040830184613c74565b949350505050565b600060a082019050613e5060008301886131ec565b613e5d60208301876131ec565b613e6a6040830186613c74565b613e776060830185613c74565b8181036080830152613e8981846132ec565b90509695505050505050565b600060a082019050613eaa60008301876131ec565b613eb760208301866131ec565b613ec46040830185613c74565b613ed16060830184613c74565b8181036080830152613ee281613a4d565b905095945050505050565b60006020820190508181036000830152613f0781846131fb565b905092915050565b60006040820190508181036000830152613f2981856131fb565b90508181036020830152613f3d81846131fb565b90509392505050565b6000602082019050613f5b60008301846132b7565b92915050565b6000604082019050613f7660008301856132c6565b613f8360208301846131ec565b9392505050565b600060c082019050613f9f60008301896132c6565b613fac60208301886131ec565b613fb960408301876131ec565b613fc660608301866132c6565b613fd360808301856132c6565b613fe060a0830184613c74565b979650505050505050565b600060a08201905061400060008301886132c6565b61400d60208301876131ec565b61401a60408301866131ec565b6140276060830185613c74565b6140346080830184613c74565b9695505050505050565b600060c08201905061405360008301896132c6565b61406060208301886131ec565b61406d60408301876131ec565b61407a6060830186613c74565b6140876080830185613c74565b61409460a0830184613c74565b979650505050505050565b60006040820190506140b460008301856132c6565b81810360208301526140c681846132ec565b90509392505050565b60006080820190506140e460008301876132c6565b6140f16020830186613ca9565b6140fe60408301856132c6565b61410b60608301846132c6565b95945050505050565b6000604082019050818103600083015261412e81856132ec565b9050818103602083015261414281846132ec565b90509392505050565b6000602082019050818103600083015261416481613387565b9050919050565b600060208201905081810360008301526141848161342d565b9050919050565b600060208201905081810360008301526141a481613493565b9050919050565b600060208201905081810360008301526141c4816134f9565b9050919050565b600060208201905081810360008301526141e48161355f565b9050919050565b60006020820190508181036000830152614204816135c5565b9050919050565b600060208201905081810360008301526142248161362b565b9050919050565b6000602082019050818103600083015261424481613691565b9050919050565b60006020820190508181036000830152614264816136f7565b9050919050565b600060208201905081810360008301526142848161375d565b9050919050565b600060208201905081810360008301526142a4816137c3565b9050919050565b600060208201905081810360008301526142c481613829565b9050919050565b600060208201905081810360008301526142e48161388f565b9050919050565b60006020820190508181036000830152614304816138f5565b9050919050565b600060208201905081810360008301526143248161395b565b9050919050565b60006020820190508181036000830152614344816139e7565b9050919050565b6000602082019050818103600083015261436481613a67565b9050919050565b6000602082019050818103600083015261438481613acd565b9050919050565b600060208201905081810360008301526143a481613b33565b9050919050565b600060208201905081810360008301526143c481613b99565b9050919050565b600060208201905081810360008301526143e481613bff565b9050919050565b60006020820190506144006000830184613c74565b92915050565b600060408201905061441b6000830185613c74565b6144286020830184613c74565b9392505050565b6000604051905081810181811067ffffffffffffffff821117156144565761445561476f565b5b8060405250919050565b600067ffffffffffffffff82111561447b5761447a61476f565b5b602082029050602081019050919050565b600067ffffffffffffffff8211156144a7576144a661476f565b5b602082029050602081019050919050565b600067ffffffffffffffff8211156144d3576144d261476f565b5b601f19601f8301169050602081019050919050565b6000819050602082019050919050565b600081519050919050565b600081519050919050565b600081519050919050565b6000602082019050919050565b600082825260208201905092915050565b600081905092915050565b600082825260208201905092915050565b600081905092915050565b600082825260208201905092915050565b600081905092915050565b60006145858261468a565b91506145908361468a565b9250827fffffffffffffffffffffffffffffffffffffffffffffffffffffffffffffffff038211156145c5576145c4614740565b5b828201905092915050565b60006145db8261468a565b91506145e68361468a565b9250828210156145f9576145f8614740565b5b828203905092915050565b600061460f8261466a565b9050919050565b60006146218261466a565b9050919050565b60008115159050919050565b6000819050919050565b60007fffffffff0000000000000000000000000000000000000000000000000000000082169050919050565b600073ffffffffffffffffffffffffffffffffffffffff82169050919050565b6000819050919050565b600060ff82169050919050565b82818337600083830152505050565b60005b838110156146ce5780820151818401526020810190506146b3565b838111156146dd576000848401525b50505050565b60006146ee8261468a565b91507fffffffffffffffffffffffffffffffffffffffffffffffffffffffffffffffff82141561472157614720614740565b5b600182019050919050565b6000819050919050565b6000819050919050565b7f4e487b7100000000000000000000000000000000000000000000000000000000600052601160045260246000fd5b7f4e487b7100000000000000000000000000000000000000000000000000000000600052604160045260246000fd5b6000601f19601f8301169050919050565b6147b881614604565b81146147c357600080fd5b50565b6147cf81614616565b81146147da57600080fd5b50565b6147e681614628565b81146147f157600080fd5b50565b6147fd81614634565b811461480857600080fd5b50565b6148148161463e565b811461481f57600080fd5b50565b61482b8161468a565b811461483657600080fd5b5056fea26469706673582212206c8a50996e4efe1c2cbdf7dee085a52cfe0dd2ef13b1cb269c382e57a0241f7364736f6c63430008000033",
  "immutableReferences": {},
  "source": "// SPDX-License-Identifier: GPL-3.0\npragma solidity ^0.8.0;\npragma experimental ABIEncoderV2;\n\nimport \"./ERC1155.sol\";\nimport \"../../interfaces/IERC20.sol\";\nimport \"../../interfaces/IERC1155.sol\";\nimport \"../../utils/LibBytes.sol\";\nimport \"../../utils/SignatureValidator.sol\";\n\n/**\n * @dev ERC-1155 with native metatransaction methods. These additional functions allow users\n *      to presign function calls and allow third parties to execute these on their behalf\n */\ncontract ERC1155Meta is ERC1155, SignatureValidator {\n    using LibBytes for bytes;\n\n    /***********************************|\n    |       Variables and Structs       |\n    |__________________________________*/\n\n    /**\n     * Gas Receipt\n     *   feeTokenData : (bool, address, ?unit256)\n     *     1st element should be the address of the token\n     *     2nd argument (if ERC-1155) should be the ID of the token\n     *     Last element should be a 0x0 if ERC-20 and 0x1 for ERC-1155\n     */\n    struct GasReceipt {\n        uint256 gasFee; // Fixed cost for the tx\n        uint256 gasLimitCallback; // Maximum amount of gas the callback in transfer functions can use\n        address feeRecipient; // Address to send payment to\n        bytes feeTokenData; // Data for token to pay for gas\n    }\n\n    // Which token standard is used to pay gas fee\n    enum FeeTokenType {\n        ERC1155, // 0x00, ERC-1155 token - DEFAULT\n        ERC20, // 0x01, ERC-20 token\n        NTypes // 0x02, number of signature types. Always leave at end.\n    }\n\n    // Signature nonce per address\n    mapping(address => uint256) internal nonces;\n\n    /***********************************|\n    |               Events              |\n    |__________________________________*/\n\n    event NonceChange(address indexed signer, uint256 newNonce);\n\n    /****************************************|\n    |     Public Meta Transfer Functions     |\n    |_______________________________________*/\n\n    /**\n     * @notice Allows anyone with a valid signature to transfer _amount amount of a token _id on the bahalf of _from\n     * @param _from     Source address\n     * @param _to       Target address\n     * @param _id       ID of the token type\n     * @param _amount   Transfered amount\n     * @param _isGasFee Whether gas is reimbursed to executor or not\n     * @param _data     Encodes a meta transfer indicator, signature, gas payment receipt and extra transfer data\n     *   _data should be encoded as (\n     *   (bytes32 r, bytes32 s, uint8 v, uint256 nonce, SignatureType sigType),\n     *   (GasReceipt g, ?bytes transferData)\n     * )\n     *   i.e. high level encoding should be (bytes, bytes), where the latter bytes array is a nested bytes array\n     */\n    function metaSafeTransferFrom(\n        address _from,\n        address _to,\n        uint256 _id,\n        uint256 _amount,\n        bool _isGasFee,\n        bytes memory _data\n    ) public {\n        require(\n            _to != address(0),\n            \"ERC1155Meta#metaSafeTransferFrom: INVALID_RECIPIENT\"\n        );\n\n        // Initializing\n        bytes memory transferData;\n        GasReceipt memory gasReceipt;\n\n        // Verify signature and extract the signed data\n        bytes memory signedData =\n            _signatureValidation(\n                _from,\n                _data,\n                abi.encode(\n                    META_TX_TYPEHASH,\n                    _from, // Address as uint256\n                    _to, // Address as uint256\n                    _id,\n                    _amount,\n                    _isGasFee ? uint256(1) : uint256(0) // Boolean as uint256\n                )\n            );\n\n        // Transfer asset\n        _safeTransferFrom(_from, _to, _id, _amount);\n\n        // If Gas is being reimbursed\n        if (_isGasFee) {\n            (gasReceipt, transferData) = abi.decode(\n                signedData,\n                (GasReceipt, bytes)\n            );\n\n            // We need to somewhat protect relayers against gas griefing attacks in recipient contract.\n            // Hence we only pass the gasLimit to the recipient such that the relayer knows the griefing\n            // limit. Nothing can prevent the receiver to revert the transaction as close to the gasLimit as\n            // possible, but the relayer can now only accept meta-transaction gasLimit within a certain range.\n            _callonERC1155Received(\n                _from,\n                _to,\n                _id,\n                _amount,\n                gasReceipt.gasLimitCallback,\n                transferData\n            );\n\n            // Transfer gas cost\n            _transferGasFee(_from, gasReceipt);\n        } else {\n            _callonERC1155Received(\n                _from,\n                _to,\n                _id,\n                _amount,\n                gasleft(),\n                signedData\n            );\n        }\n    }\n\n    /**\n     * @notice Allows anyone with a valid signature to transfer multiple types of tokens on the bahalf of _from\n     * @param _from     Source addresses\n     * @param _to       Target addresses\n     * @param _ids      IDs of each token type\n     * @param _amounts  Transfer amounts per token type\n     * @param _isGasFee Whether gas is reimbursed to executor or not\n     * @param _data     Encodes a meta transfer indicator, signature, gas payment receipt and extra transfer data\n     *   _data should be encoded as (\n     *   (bytes32 r, bytes32 s, uint8 v, uint256 nonce, SignatureType sigType),\n     *   (GasReceipt g, ?bytes transferData)\n     * )\n     *   i.e. high level encoding should be (bytes, bytes), where the latter bytes array is a nested bytes array\n     */\n    function metaSafeBatchTransferFrom(\n        address _from,\n        address _to,\n        uint256[] memory _ids,\n        uint256[] memory _amounts,\n        bool _isGasFee,\n        bytes memory _data\n    ) public {\n        require(\n            _to != address(0),\n            \"ERC1155Meta#metaSafeBatchTransferFrom: INVALID_RECIPIENT\"\n        );\n\n        // Initializing\n        bytes memory transferData;\n        GasReceipt memory gasReceipt;\n\n        // Verify signature and extract the signed data\n        bytes memory signedData =\n            _signatureValidation(\n                _from,\n                _data,\n                abi.encode(\n                    META_BATCH_TX_TYPEHASH,\n                    _from, // Address as uint256\n                    _to, // Address as uint256\n                    keccak256(abi.encodePacked(_ids)),\n                    keccak256(abi.encodePacked(_amounts)),\n                    _isGasFee ? uint256(1) : uint256(0) // Boolean as uint256\n                )\n            );\n\n        // Transfer assets\n        _safeBatchTransferFrom(_from, _to, _ids, _amounts);\n\n        // If gas fee being reimbursed\n        if (_isGasFee) {\n            (gasReceipt, transferData) = abi.decode(\n                signedData,\n                (GasReceipt, bytes)\n            );\n\n            // We need to somewhat protect relayers against gas griefing attacks in recipient contract.\n            // Hence we only pass the gasLimit to the recipient such that the relayer knows the griefing\n            // limit. Nothing can prevent the receiver to revert the transaction as close to the gasLimit as\n            // possible, but the relayer can now only accept meta-transaction gasLimit within a certain range.\n            _callonERC1155BatchReceived(\n                _from,\n                _to,\n                _ids,\n                _amounts,\n                gasReceipt.gasLimitCallback,\n                transferData\n            );\n\n            // Handle gas reimbursement\n            _transferGasFee(_from, gasReceipt);\n        } else {\n            _callonERC1155BatchReceived(\n                _from,\n                _to,\n                _ids,\n                _amounts,\n                gasleft(),\n                signedData\n            );\n        }\n    }\n\n    /***********************************|\n    |         Operator Functions        |\n    |__________________________________*/\n\n    /**\n     * @notice Approve the passed address to spend on behalf of _from if valid signature is provided\n     * @param _owner     Address that wants to set operator status  _spender\n     * @param _operator  Address to add to the set of authorized operators\n     * @param _approved  True if the operator is approved, false to revoke approval\n     * @param _isGasFee  Whether gas will be reimbursed or not, with vlid signature\n     * @param _data      Encodes signature and gas payment receipt\n     *   _data should be encoded as (\n     *     (bytes32 r, bytes32 s, uint8 v, uint256 nonce, SignatureType sigType),\n     *     (GasReceipt g)\n     *   )\n     *   i.e. high level encoding should be (bytes, bytes), where the latter bytes array is a nested bytes array\n     */\n    function metaSetApprovalForAll(\n        address _owner,\n        address _operator,\n        bool _approved,\n        bool _isGasFee,\n        bytes memory _data\n    ) public {\n        // Verify signature and extract the signed data\n        bytes memory signedData =\n            _signatureValidation(\n                _owner,\n                _data,\n                abi.encode(\n                    META_APPROVAL_TYPEHASH,\n                    _owner, // Address as uint256\n                    _operator, // Address as uint256\n                    _approved ? uint256(1) : uint256(0), // Boolean as uint256\n                    _isGasFee ? uint256(1) : uint256(0) // Boolean as uint256\n                )\n            );\n\n        // Update operator status\n        operators[_owner][_operator] = _approved;\n\n        // Emit event\n        emit ApprovalForAll(_owner, _operator, _approved);\n\n        // Handle gas reimbursement\n        if (_isGasFee) {\n            GasReceipt memory gasReceipt = abi.decode(signedData, (GasReceipt));\n            _transferGasFee(_owner, gasReceipt);\n        }\n    }\n\n    /****************************************|\n    |      Signature Validation Functions     |\n    |_______________________________________*/\n\n    // keccak256(\n    //   \"metaSafeTransferFrom(address,address,uint256,uint256,bool,bytes)\"\n    // );\n    bytes32 internal constant META_TX_TYPEHASH =\n        0xce0b514b3931bdbe4d5d44e4f035afe7113767b7db71949271f6a62d9c60f558;\n\n    // keccak256(\n    //   \"metaSafeBatchTransferFrom(address,address,uint256[],uint256[],bool,bytes)\"\n    // );\n    bytes32 internal constant META_BATCH_TX_TYPEHASH =\n        0xa3d4926e8cf8fe8e020cd29f514c256bc2eec62aa2337e415f1a33a4828af5a0;\n\n    // keccak256(\n    //   \"metaSetApprovalForAll(address,address,bool,bool,bytes)\"\n    // );\n    bytes32 internal constant META_APPROVAL_TYPEHASH =\n        0xf5d4c820494c8595de274c7ff619bead38aac4fbc3d143b5bf956aa4b84fa524;\n\n    /**\n     * @notice Verifies signatures for this contract\n     * @param _signer     Address of signer\n     * @param _sigData    Encodes signature, gas payment receipt and transfer data (if any)\n     * @param _encMembers Encoded EIP-712 type members (except nonce and _data), all need to be 32 bytes size\n     * @dev _data should be encoded as (\n     *   (bytes32 r, bytes32 s, uint8 v, uint256 nonce, SignatureType sigType),\n     *   (GasReceipt g, ?bytes transferData)\n     * )\n     *   i.e. high level encoding should be (bytes, bytes), where the latter bytes array is a nested bytes array\n     * @dev A valid nonce is a nonce that is within 100 value from the current nonce\n     */\n    function _signatureValidation(\n        address _signer,\n        bytes memory _sigData,\n        bytes memory _encMembers\n    ) internal returns (bytes memory signedData) {\n        bytes memory sig;\n\n        // Get signature and data to sign\n        (sig, signedData) = abi.decode(_sigData, (bytes, bytes));\n\n        // Get current nonce and nonce used for signature\n        uint256 currentNonce = nonces[_signer]; // Lowest valid nonce for signer\n        uint256 nonce = uint256(sig.readBytes32(65)); // Nonce passed in the signature object\n\n        // Verify if nonce is valid\n        require(\n            (nonce >= currentNonce) && (nonce < (currentNonce + 100)),\n            \"ERC1155Meta#_signatureValidation: INVALID_NONCE\"\n        );\n\n        // Take hash of bytes arrays\n        bytes32 hash =\n            hashEIP712Message(\n                keccak256(\n                    abi.encodePacked(_encMembers, nonce, keccak256(signedData))\n                )\n            );\n\n        // Complete data to pass to signer verifier\n        bytes memory fullData =\n            abi.encodePacked(_encMembers, nonce, signedData);\n\n        //Update signature nonce\n        nonces[_signer] = nonce + 1;\n        emit NonceChange(_signer, nonce + 1);\n\n        // Verify if _from is the signer\n        require(\n            isValidSignature(_signer, hash, fullData, sig),\n            \"ERC1155Meta#_signatureValidation: INVALID_SIGNATURE\"\n        );\n        return signedData;\n    }\n\n    /**\n     * @notice Returns the current nonce associated with a given address\n     * @param _signer Address to query signature nonce for\n     */\n    function getNonce(address _signer) public view returns (uint256 nonce) {\n        return nonces[_signer];\n    }\n\n    /***********************************|\n    |    Gas Reimbursement Functions    |\n    |__________________________________*/\n\n    /**\n     * @notice Will reimburse tx.origin or fee recipient for the gas spent execution a transaction\n     *         Can reimbuse in any ERC-20 or ERC-1155 token\n     * @param _from  Address from which the payment will be made from\n     * @param _g     GasReceipt object that contains gas reimbursement information\n     */\n    function _transferGasFee(address _from, GasReceipt memory _g) internal {\n        // Pop last byte to get token fee type\n        uint8 feeTokenTypeRaw = uint8(_g.feeTokenData.popLastByte());\n\n        // Ensure valid fee token type\n        require(\n            feeTokenTypeRaw < uint8(FeeTokenType.NTypes),\n            \"ERC1155Meta#_transferGasFee: UNSUPPORTED_TOKEN\"\n        );\n\n        // Convert to FeeTokenType corresponding value\n        FeeTokenType feeTokenType = FeeTokenType(feeTokenTypeRaw);\n\n        // Declarations\n        address tokenAddress;\n        address feeRecipient;\n        uint256 tokenID;\n        uint256 fee = _g.gasFee;\n\n        // If receiver is 0x0, then anyone can claim, otherwise, refund addresse provided\n        feeRecipient = _g.feeRecipient == address(0)\n            ? msg.sender\n            : _g.feeRecipient;\n\n        // Fee token is ERC1155\n        if (feeTokenType == FeeTokenType.ERC1155) {\n            (tokenAddress, tokenID) = abi.decode(\n                _g.feeTokenData,\n                (address, uint256)\n            );\n\n            // Fee is paid from this ERC1155 contract\n            if (tokenAddress == address(this)) {\n                _safeTransferFrom(_from, feeRecipient, tokenID, fee);\n\n                // No need to protect against griefing since recipient (if contract) is most likely owned by the relayer\n                _callonERC1155Received(\n                    _from,\n                    feeRecipient,\n                    tokenID,\n                    gasleft(),\n                    fee,\n                    \"\"\n                );\n\n                // Fee is paid from another ERC-1155 contract\n            } else {\n                IERC1155(tokenAddress).safeTransferFrom(\n                    _from,\n                    feeRecipient,\n                    tokenID,\n                    fee,\n                    \"\"\n                );\n            }\n\n            // Fee token is ERC20\n        } else {\n            tokenAddress = abi.decode(_g.feeTokenData, (address));\n            require(\n                IERC20(tokenAddress).transferFrom(_from, feeRecipient, fee),\n                \"ERC1155Meta#_transferGasFee: ERC20_TRANSFER_FAILED\"\n            );\n        }\n    }\n}\n",
  "sourcePath": "E:/Optimusfox/1111 abosch/contracts/multi-token-standard/tokens/ERC1155/ERC1155Meta.sol",
  "compiler": {
    "name": "solc",
    "version": "0.8.0+commit.c7dfd78e.Emscripten.clang"
  },
  "schemaVersion": "3.4.1",
  "updatedAt": "2021-09-28T11:07:38.201Z",
  "devdoc": {
    "details": "ERC-1155 with native metatransaction methods. These additional functions allow users      to presign function calls and allow third parties to execute these on their behalf",
    "kind": "dev",
    "methods": {
      "balanceOf(address,uint256)": {
        "params": {
          "_id": "ID of the Token",
          "_owner": "The address of the token holder"
        },
        "returns": {
          "_0": "The _owner's balance of the Token type requested"
        }
      },
      "balanceOfBatch(address[],uint256[])": {
        "params": {
          "_ids": "ID of the Tokens",
          "_owners": "The addresses of the token holders"
        },
        "returns": {
          "_0": "The _owner's balance of the Token types requested (i.e. balance for each (owner, id) pair)"
        }
      },
      "getNonce(address)": {
        "params": {
          "_signer": "Address to query signature nonce for"
        }
      },
      "isApprovedForAll(address,address)": {
        "params": {
          "_operator": "Address of authorized operator",
          "_owner": "The owner of the Tokens"
        },
        "returns": {
          "isOperator": "True if the operator is approved, false if not"
        }
      },
      "isValidSignature(address,bytes32,bytes,bytes)": {
        "details": "Verifies that a hash has been signed by the given signer.",
        "params": {
          "_data": "Full EIP-712 data structure that was hashed and signed",
          "_hash": "Hash of the EIP-712 encoded data",
          "_sig": "Proof that the hash has been signed by signer.      For non wallet signatures, _sig is expected to be an array tightly encoded as      (bytes32 r, bytes32 s, uint8 v, uint256 nonce, SignatureType sigType)",
          "_signerAddress": "Address that should have signed the given hash."
        },
        "returns": {
          "isValid": "True if the address recovered from the provided signature matches the input signer address."
        }
      },
      "metaSafeBatchTransferFrom(address,address,uint256[],uint256[],bool,bytes)": {
        "params": {
          "_amounts": "Transfer amounts per token type",
          "_data": "Encodes a meta transfer indicator, signature, gas payment receipt and extra transfer data   _data should be encoded as (   (bytes32 r, bytes32 s, uint8 v, uint256 nonce, SignatureType sigType),   (GasReceipt g, ?bytes transferData) )   i.e. high level encoding should be (bytes, bytes), where the latter bytes array is a nested bytes array",
          "_from": "Source addresses",
          "_ids": "IDs of each token type",
          "_isGasFee": "Whether gas is reimbursed to executor or not",
          "_to": "Target addresses"
        }
      },
      "metaSafeTransferFrom(address,address,uint256,uint256,bool,bytes)": {
        "params": {
          "_amount": "Transfered amount",
          "_data": "Encodes a meta transfer indicator, signature, gas payment receipt and extra transfer data   _data should be encoded as (   (bytes32 r, bytes32 s, uint8 v, uint256 nonce, SignatureType sigType),   (GasReceipt g, ?bytes transferData) )   i.e. high level encoding should be (bytes, bytes), where the latter bytes array is a nested bytes array",
          "_from": "Source address",
          "_id": "ID of the token type",
          "_isGasFee": "Whether gas is reimbursed to executor or not",
          "_to": "Target address"
        }
      },
      "metaSetApprovalForAll(address,address,bool,bool,bytes)": {
        "params": {
          "_approved": "True if the operator is approved, false to revoke approval",
          "_data": "Encodes signature and gas payment receipt   _data should be encoded as (     (bytes32 r, bytes32 s, uint8 v, uint256 nonce, SignatureType sigType),     (GasReceipt g)   )   i.e. high level encoding should be (bytes, bytes), where the latter bytes array is a nested bytes array",
          "_isGasFee": "Whether gas will be reimbursed or not, with vlid signature",
          "_operator": "Address to add to the set of authorized operators",
          "_owner": "Address that wants to set operator status  _spender"
        }
      },
      "safeBatchTransferFrom(address,address,uint256[],uint256[],bytes)": {
        "params": {
          "_amounts": "Transfer amounts per token type",
          "_data": "Additional data with no specified format, sent in call to `_to`",
          "_from": "Source addresses",
          "_ids": "IDs of each token type",
          "_to": "Target addresses"
        }
      },
      "safeTransferFrom(address,address,uint256,uint256,bytes)": {
        "params": {
          "_amount": "Transfered amount",
          "_data": "Additional data with no specified format, sent in call to `_to`",
          "_from": "Source address",
          "_id": "ID of the token type",
          "_to": "Target address"
        }
      },
      "setApprovalForAll(address,bool)": {
        "params": {
          "_approved": "True if the operator is approved, false to revoke approval",
          "_operator": "Address to add to the set of authorized operators"
        }
      },
      "supportsInterface(bytes4)": {
        "params": {
          "_interfaceID": "The interface identifier, as specified in ERC-165"
        },
        "returns": {
          "_0": "`true` if the contract implements `_interfaceID` and"
        }
      }
    },
    "version": 1
  },
  "userdoc": {
    "kind": "user",
    "methods": {
      "balanceOf(address,uint256)": {
        "notice": "Get the balance of an account's Tokens"
      },
      "balanceOfBatch(address[],uint256[])": {
        "notice": "Get the balance of multiple account/token pairs"
      },
      "getNonce(address)": {
        "notice": "Returns the current nonce associated with a given address"
      },
      "isApprovedForAll(address,address)": {
        "notice": "Queries the approval status of an operator for a given owner"
      },
      "metaSafeBatchTransferFrom(address,address,uint256[],uint256[],bool,bytes)": {
        "notice": "Allows anyone with a valid signature to transfer multiple types of tokens on the bahalf of _from"
      },
      "metaSafeTransferFrom(address,address,uint256,uint256,bool,bytes)": {
        "notice": "Allows anyone with a valid signature to transfer _amount amount of a token _id on the bahalf of _from"
      },
      "metaSetApprovalForAll(address,address,bool,bool,bytes)": {
        "notice": "Approve the passed address to spend on behalf of _from if valid signature is provided"
      },
      "safeBatchTransferFrom(address,address,uint256[],uint256[],bytes)": {
        "notice": "Send multiple types of Tokens from the _from address to the _to address (with safety call)"
      },
      "safeTransferFrom(address,address,uint256,uint256,bytes)": {
        "notice": "Transfers amount amount of an _id from the _from address to the _to address specified"
      },
      "setApprovalForAll(address,bool)": {
        "notice": "Enable or disable approval for a third party (\"operator\") to manage all of caller's tokens"
      },
      "supportsInterface(bytes4)": {
        "notice": "Query if a contract implements an interface"
      }
    },
    "version": 1
  }
}