{
  "contractName": "KoiRouter",
  "abi": [
    {
      "inputs": [
        {
          "internalType": "address",
          "name": "_koiToken",
          "type": "address"
        },
        {
          "internalType": "address",
          "name": "_vault",
          "type": "address"
        }
      ],
      "stateMutability": "nonpayable",
      "type": "constructor"
    },
    {
      "anonymous": false,
      "inputs": [
        {
          "indexed": false,
          "internalType": "address",
          "name": "user",
          "type": "address"
        },
        {
          "indexed": false,
          "internalType": "address",
          "name": "token",
          "type": "address"
        },
        {
          "indexed": false,
          "internalType": "uint256",
          "name": "id",
          "type": "uint256"
        },
        {
          "indexed": false,
          "internalType": "uint256",
          "name": "amount",
          "type": "uint256"
        },
        {
          "indexed": false,
          "internalType": "string",
          "name": "arAddress",
          "type": "string"
        }
      ],
      "name": "Deposit",
      "type": "event"
    },
    {
      "inputs": [],
      "name": "koiToken",
      "outputs": [
        {
          "internalType": "address",
          "name": "",
          "type": "address"
        }
      ],
      "stateMutability": "view",
      "type": "function"
    },
    {
      "inputs": [],
      "name": "vault",
      "outputs": [
        {
          "internalType": "address",
          "name": "",
          "type": "address"
        }
      ],
      "stateMutability": "view",
      "type": "function"
    },
    {
      "inputs": [
        {
          "internalType": "address",
          "name": "token",
          "type": "address"
        },
        {
          "internalType": "uint256",
          "name": "id",
          "type": "uint256"
        },
        {
          "internalType": "uint256",
          "name": "amount",
          "type": "uint256"
        },
        {
          "internalType": "string",
          "name": "arAddress",
          "type": "string"
        }
      ],
      "name": "deposit",
      "outputs": [],
      "stateMutability": "nonpayable",
      "type": "function"
    }
  ],
  "bytecode": "0x608060405234801561001057600080fd5b50604051610656380380610656833981810160405281019061003291906100cf565b816000806101000a81548173ffffffffffffffffffffffffffffffffffffffff021916908373ffffffffffffffffffffffffffffffffffffffff16021790555080600160006101000a81548173ffffffffffffffffffffffffffffffffffffffff021916908373ffffffffffffffffffffffffffffffffffffffff1602179055505050610154565b6000815190506100c98161013d565b92915050565b600080604083850312156100e257600080fd5b60006100f0858286016100ba565b9250506020610101858286016100ba565b9150509250929050565b60006101168261011d565b9050919050565b600073ffffffffffffffffffffffffffffffffffffffff82169050919050565b6101468161010b565b811461015157600080fd5b50565b6104f3806101636000396000f3fe608060405234801561001057600080fd5b50600436106100415760003560e01c80633a8cbc38146100465780638c567e8814610062578063fbfa77cf14610080575b600080fd5b610060600480360381019061005b9190610237565b61009e565b005b61006a610179565b6040516100779190610342565b60405180910390f35b61008861019d565b6040516100959190610342565b60405180910390f35b8473ffffffffffffffffffffffffffffffffffffffff1663f242432a33600160009054906101000a900473ffffffffffffffffffffffffffffffffffffffff1687876040518563ffffffff1660e01b81526004016100ff94939291906103b9565b600060405180830381600087803b15801561011957600080fd5b505af115801561012d573d6000803e3d6000fd5b505050507f907ff0b577abac3b4513f9292baa8233f05fb09942f8ee9a6b676216d557598a33868686868660405161016a9695949392919061035d565b60405180910390a15050505050565b60008054906101000a900473ffffffffffffffffffffffffffffffffffffffff1681565b600160009054906101000a900473ffffffffffffffffffffffffffffffffffffffff1681565b6000813590506101d28161048f565b92915050565b60008083601f8401126101ea57600080fd5b8235905067ffffffffffffffff81111561020357600080fd5b60208301915083600182028301111561021b57600080fd5b9250929050565b600081359050610231816104a6565b92915050565b60008060008060006080868803121561024f57600080fd5b600061025d888289016101c3565b955050602061026e88828901610222565b945050604061027f88828901610222565b935050606086013567ffffffffffffffff81111561029c57600080fd5b6102a8888289016101d8565b92509250509295509295909350565b6102c081610433565b82525050565b60006102d28385610422565b93506102df83858461046f565b6102e88361047e565b840190509392505050565b6000610300600283610411565b91507f30780000000000000000000000000000000000000000000000000000000000006000830152602082019050919050565b61033c81610465565b82525050565b600060208201905061035760008301846102b7565b92915050565b600060a08201905061037260008301896102b7565b61037f60208301886102b7565b61038c6040830187610333565b6103996060830186610333565b81810360808301526103ac8184866102c6565b9050979650505050505050565b600060a0820190506103ce60008301876102b7565b6103db60208301866102b7565b6103e86040830185610333565b6103f56060830184610333565b8181036080830152610406816102f3565b905095945050505050565b600082825260208201905092915050565b600082825260208201905092915050565b600061043e82610445565b9050919050565b600073ffffffffffffffffffffffffffffffffffffffff82169050919050565b6000819050919050565b82818337600083830152505050565b6000601f19601f8301169050919050565b61049881610433565b81146104a357600080fd5b50565b6104af81610465565b81146104ba57600080fd5b5056fea2646970667358221220df91c0aa2b0fcbc73c13453ae44717d17bc777007e29198b82166a5a7584da0d64736f6c63430008000033",
  "immutableReferences": {},
  "source": "// SPDX-License-Identifier: GPL-3.0\npragma solidity ^0.8.0;\n\nimport \"./multi-token-standard/interfaces/IERC1155.sol\";\nimport \"./KoiToken.sol\";\n\ninterface IKoiToken {\n    function burnFrom(\n        address _from,\n        uint256 _id,\n        uint256 _quantity\n    ) external;\n}\n/**\n * @notice KoiRouter contract\n */\ncontract KoiRouter {\n    // Events\n    event Deposit(address user, address token, uint256 id, uint256 amount, string arAddress);\n\n    // Storage\n    address public koiToken;\n    address public vault;\n\n    constructor(address _koiToken, address _vault) {\n        koiToken = _koiToken;\n        vault = _vault;\n    }\n\n    function deposit(\n        address token,\n        uint256 id,\n        uint256 amount,\n        string calldata arAddress\n    ) external {\n        \n            \n            IERC1155(token).safeTransferFrom(\n                msg.sender,\n                vault,\n                id,\n                amount,\n                \"0x\"\n            );\n        \n\n        emit Deposit(msg.sender, token, id, amount,arAddress);\n    }\n}\n",
  "sourcePath": "E:/Optimusfox/1111 abosch/contracts/KoiRouter.sol",
  "compiler": {
    "name": "solc",
    "version": "0.8.0+commit.c7dfd78e.Emscripten.clang"
  },
  "schemaVersion": "3.4.1",
  "updatedAt": "2021-09-28T11:07:38.140Z",
  "devdoc": {
    "kind": "dev",
    "methods": {},
    "version": 1
  },
  "userdoc": {
    "kind": "user",
    "methods": {},
    "notice": "KoiRouter contract",
    "version": 1
  }
}