{
  "contractName": "ProxyRegistry",
  "abi": [
    {
      "inputs": [
        {
          "internalType": "address",
          "name": "",
          "type": "address"
        }
      ],
      "name": "proxies",
      "outputs": [
        {
          "internalType": "contract OwnableDelegateProxy",
          "name": "",
          "type": "address"
        }
      ],
      "stateMutability": "view",
      "type": "function"
    }
  ],
  "bytecode": "0x608060405234801561001057600080fd5b5061019e806100206000396000f3fe608060405234801561001057600080fd5b506004361061002b5760003560e01c8063c455279114610030575b600080fd5b61004a600480360381019061004591906100a8565b610060565b60405161005791906100e0565b60405180910390f35b60006020528060005260406000206000915054906101000a900473ffffffffffffffffffffffffffffffffffffffff1681565b6000813590506100a281610151565b92915050565b6000602082840312156100ba57600080fd5b60006100c884828501610093565b91505092915050565b6100da8161012d565b82525050565b60006020820190506100f560008301846100d1565b92915050565b60006101068261010d565b9050919050565b600073ffffffffffffffffffffffffffffffffffffffff82169050919050565b60006101388261013f565b9050919050565b600061014a8261010d565b9050919050565b61015a816100fb565b811461016557600080fd5b5056fea26469706673582212204c2fff4b0fe23902ee27ce5c504cc7f72e575e95bb374bef0af7f17b2ecbb39a64736f6c63430008000033",
  "immutableReferences": {},
  "source": "// SPDX-License-Identifier: GPL-3.0\npragma solidity ^0.8.0;\n\nimport \"@openzeppelin/contracts/access/Ownable.sol\";\n\nimport \"../multi-token-standard/tokens/ERC1155/ERC1155.sol\";\nimport \"../multi-token-standard/tokens/ERC1155/ERC1155Metadata.sol\";\nimport \"../multi-token-standard/tokens/ERC1155/ERC1155MintBurn.sol\";\nimport \"./Strings.sol\";\n\ncontract OwnableDelegateProxy {}\n\ncontract ProxyRegistry {\n    mapping(address => OwnableDelegateProxy) public proxies;\n}\n\n/**\n * @title ERC1155Tradable\n * ERC1155Tradable - ERC1155 contract that whitelists an operator address, has create and mint functionality, and supports useful standards from OpenZeppelin,\n  like _exists(), name(), symbol(), and totalSupply()\n */\ncontract ERC1155Tradable is ERC1155, ERC1155MintBurn, ERC1155Metadata, Ownable {\n    using Strings for string;\n\n    address proxyRegistryAddress;\n    uint256 private _currentTokenID = 0;\n    mapping(uint256 => address) public creators;\n    mapping(uint256 => uint256) public tokenSupply;\n    // Contract name\n    string public name;\n    // Contract symbol\n    string public symbol;\n\n    /**\n     * @dev Require msg.sender to be the creator of the token id\n     */\n    modifier creatorOnly(uint256 _id) {\n        require(\n            creators[_id] == msg.sender,\n            \"ERC1155Tradable#creatorOnly: ONLY_CREATOR_ALLOWED\"\n        );\n        _;\n    }\n\n    /**\n     * @dev Require msg.sender to own more than 0 of the token id\n     */\n    modifier ownersOnly(uint256 _id) {\n        require(\n            balances[msg.sender][_id] > 0,\n            \"ERC1155Tradable#ownersOnly: ONLY_OWNERS_ALLOWED\"\n        );\n        _;\n    }\n\n    constructor(\n        string memory _name,\n        string memory _symbol,\n        address _proxyRegistryAddress\n    ) {\n        name = _name;\n        symbol = _symbol;\n        proxyRegistryAddress = _proxyRegistryAddress;\n    }\n\n    function uri(uint256 _id) public view override returns (string memory) {\n        require(_exists(_id), \"ERC721Tradable#uri: NONEXISTENT_TOKEN\");\n        return Strings.strConcat(baseMetadataURI, Strings.uint2str(_id));\n    }\n\n    /**\n     * @dev Returns the total quantity for a token ID\n     * @param _id uint256 ID of the token to query\n     * @return amount of token in existence\n     */\n    function totalSupply(uint256 _id) public view returns (uint256) {\n        return tokenSupply[_id];\n    }\n\n    /**\n     * @dev Will update the base URL of token's URI\n     * @param _newBaseMetadataURI New base URL of token's URI\n     */\n    function setBaseMetadataURI(string memory _newBaseMetadataURI)\n        public\n        onlyOwner\n    {\n        _setBaseMetadataURI(_newBaseMetadataURI);\n    }\n\n    /**\n     * @dev Creates a new token type and assigns _initialSupply to an address\n     * NOTE: remove onlyOwner if you want third parties to create new tokens on your contract (which may change your IDs)\n     * @param _initialOwner address of the first owner of the token\n     * @param _initialSupply amount to supply the first owner\n     * @param _uri Optional URI for this token type\n     * @param _data Data to pass if receiver is contract\n     * @return The newly created token ID\n     */\n    function create(\n        address _initialOwner,\n        uint256 _initialSupply,\n        string calldata _uri,\n        bytes calldata _data\n    ) external onlyOwner returns (uint256) {\n        uint256 _id = _getNextTokenID();\n        _incrementTokenTypeId();\n        creators[_id] = msg.sender;\n\n        if (bytes(_uri).length > 0) {\n            emit URI(_uri, _id);\n        }\n\n        _mint(_initialOwner, _id, _initialSupply, _data);\n        tokenSupply[_id] = _initialSupply;\n        return _id;\n    }\n\n    /**\n     * @dev Mints some amount of tokens to an address\n     * @param _to          Address of the future owner of the token\n     * @param _id          Token ID to mint\n     * @param _quantity    Amount of tokens to mint\n     * @param _data        Data to pass if receiver is contract\n     */\n    function mint(\n        address _to,\n        uint256 _id,\n        uint256 _quantity,\n        bytes memory _data\n    ) public creatorOnly(_id) {\n        _mint(_to, _id, _quantity, _data);\n        tokenSupply[_id] = tokenSupply[_id] + _quantity;\n    }\n\n    /**\n     * @dev Mint tokens for each id in _ids\n     * @param _to          The address to mint tokens to\n     * @param _ids         Array of ids to mint\n     * @param _quantities  Array of amounts of tokens to mint per id\n     * @param _data        Data to pass if receiver is contract\n     */\n    function batchMint(\n        address _to,\n        uint256[] memory _ids,\n        uint256[] memory _quantities,\n        bytes memory _data\n    ) public {\n        for (uint256 i = 0; i < _ids.length; i++) {\n            uint256 _id = _ids[i];\n            require(\n                creators[_id] == msg.sender,\n                \"ERC1155Tradable#batchMint: ONLY_CREATOR_ALLOWED\"\n            );\n            uint256 quantity = _quantities[i];\n            tokenSupply[_id] = tokenSupply[_id] + quantity;\n        }\n        _batchMint(_to, _ids, _quantities, _data);\n    }\n\n    /**\n     * @dev Burns some amount of tokens to an address\n     * @param _from        Burn from\n     * @param _id          Token ID to mint\n     * @param _quantity    Amount of tokens to burn\n     */\n    function burnFrom(\n        address _from,\n        uint256 _id,\n        uint256 _quantity\n    ) public {\n        require(\n            balances[_from][_id] > 0,\n            \"ERC1155Tradable#ownersOnly: ONLY_OWNERS_ALLOWED\"\n        );\n        require(\n            (msg.sender == _from) || isApprovedForAll(_from, msg.sender),\n            \"ERC1155Tradable#burnFrom: INVALID_OPERATOR\"\n        );\n\n        _burn(_from, _id, _quantity);\n        tokenSupply[_id] = tokenSupply[_id] - _quantity;\n    }\n\n    /**\n     * @dev Change the creator address for given tokens\n     * @param _to   Address of the new creator\n     * @param _ids  Array of Token IDs to change creator\n     */\n    function setCreator(address _to, uint256[] memory _ids) public {\n        require(\n            _to != address(0),\n            \"ERC1155Tradable#setCreator: INVALID_ADDRESS.\"\n        );\n        for (uint256 i = 0; i < _ids.length; i++) {\n            uint256 id = _ids[i];\n            _setCreator(_to, id);\n        }\n    }\n\n    /**\n     * Override isApprovedForAll to whitelist user's OpenSea proxy accounts to enable gas-free listings.\n     */\n    function isApprovedForAll(address _owner, address _operator)\n        public\n        view\n        override\n        returns (bool isOperator)\n    {\n        // Whitelist OpenSea proxy contract for easy trading.\n        ProxyRegistry proxyRegistry = ProxyRegistry(proxyRegistryAddress);\n        if (address(proxyRegistry.proxies(_owner)) == _operator) {\n            return true;\n        }\n\n        return ERC1155.isApprovedForAll(_owner, _operator);\n    }\n\n    /**\n     * @dev Change the creator address for given token\n     * @param _to   Address of the new creator\n     * @param _id  Token IDs to change creator of\n     */\n    function _setCreator(address _to, uint256 _id) internal creatorOnly(_id) {\n        creators[_id] = _to;\n    }\n\n    /**\n     * @dev Returns whether the specified token exists by checking to see if it has a creator\n     * @param _id uint256 ID of the token to query the existence of\n     * @return bool whether the token exists\n     */\n    function _exists(uint256 _id) internal view returns (bool) {\n        return creators[_id] != address(0);\n    }\n\n    /**\n     * @dev calculates the next token ID based on value of _currentTokenID\n     * @return uint256 for the next token ID\n     */\n    function _getNextTokenID() private view returns (uint256) {\n        return _currentTokenID + 1;\n    }\n\n    /**\n     * @dev increments the value of _currentTokenID\n     */\n    function _incrementTokenTypeId() private {\n        _currentTokenID++;\n    }\n\n    function supportsInterface(bytes4 _interfaceID)\n        public\n        view\n        virtual\n        override(ERC1155, ERC1155Metadata)\n        returns (bool)\n    {\n        if (_interfaceID == type(IERC1155).interfaceId) {\n            return true;\n        }\n        return super.supportsInterface(_interfaceID);\n    }\n}\n",
  "sourcePath": "E:\\Optimusfox\\1111 abosch\\contracts\\opensea\\ERC1155Tradable.sol",
  "compiler": {
    "name": "solc",
    "version": "0.8.0+commit.c7dfd78e.Emscripten.clang"
  },
  "schemaVersion": "3.4.1",
  "updatedAt": "2021-09-28T11:07:38.276Z",
  "devdoc": {
    "kind": "dev",
    "methods": {},
    "version": 1
  },
  "userdoc": {
    "kind": "user",
    "methods": {},
    "version": 1
  }
}