{
  "contractName": "SignatureValidator",
  "abi": [
    {
      "inputs": [
        {
          "internalType": "address",
          "name": "_signerAddress",
          "type": "address"
        },
        {
          "internalType": "bytes32",
          "name": "_hash",
          "type": "bytes32"
        },
        {
          "internalType": "bytes",
          "name": "_data",
          "type": "bytes"
        },
        {
          "internalType": "bytes",
          "name": "_sig",
          "type": "bytes"
        }
      ],
      "name": "isValidSignature",
      "outputs": [
        {
          "internalType": "bool",
          "name": "isValid",
          "type": "bool"
        }
      ],
      "stateMutability": "view",
      "type": "function"
    }
  ],
  "bytecode": "0x608060405234801561001057600080fd5b5061140c806100206000396000f3fe608060405234801561001057600080fd5b506004361061002b5760003560e01c8063fa4e12d714610030575b600080fd5b61004a60048036038101906100459190610af2565b610060565b6040516100579190610f81565b60405180910390f35b6000808251116100a5576040517f08c379a000000000000000000000000000000000000000000000000000000000815260040161009c906110e8565b60405180910390fd5b600073ffffffffffffffffffffffffffffffffffffffff168573ffffffffffffffffffffffffffffffffffffffff161415610115576040517f08c379a000000000000000000000000000000000000000000000000000000000815260040161010c906110c8565b60405180910390fd5b600061012083610938565b60f81c905060058081111561015e577f4e487b7100000000000000000000000000000000000000000000000000000000600052602160045260246000fd5b60ff168160ff16106101a5576040517f08c379a000000000000000000000000000000000000000000000000000000000815260040161019c90611068565b60405180910390fd5b60008160ff1660058111156101e3577f4e487b7100000000000000000000000000000000000000000000000000000000600052602160045260246000fd5b905060008060008060006005811115610225577f4e487b7100000000000000000000000000000000000000000000000000000000600052602160045260246000fd5b85600581111561025e577f4e487b7100000000000000000000000000000000000000000000000000000000600052602160045260246000fd5b141561029f576040517f08c379a000000000000000000000000000000000000000000000000000000000815260040161029690611088565b60405180910390fd5b600160058111156102d9577f4e487b7100000000000000000000000000000000000000000000000000000000600052602160045260246000fd5b856005811115610312577f4e487b7100000000000000000000000000000000000000000000000000000000600052602160045260246000fd5b141561045f57606188511461035c576040517f08c379a0000000000000000000000000000000000000000000000000000000008152600401610353906110a8565b60405180910390fd5b6103706000896109de90919063ffffffff16565b92506103866020896109de90919063ffffffff16565b9150876040815181106103c2577f4e487b7100000000000000000000000000000000000000000000000000000000600052603260045260246000fd5b602001015160f81c60f81b60f81c935060018a858585604051600081526020016040526040516103f59493929190610fcc565b6020604051602081039080840390855afa158015610417573d6000803e3d6000fd5b5050506020604051035190508073ffffffffffffffffffffffffffffffffffffffff168b73ffffffffffffffffffffffffffffffffffffffff16149650505050505050610930565b60026005811115610499577f4e487b7100000000000000000000000000000000000000000000000000000000600052602160045260246000fd5b8560058111156104d2577f4e487b7100000000000000000000000000000000000000000000000000000000600052602160045260246000fd5b141561064557606188511461051c576040517f08c379a0000000000000000000000000000000000000000000000000000000008152600401610513906110a8565b60405180910390fd5b6105306000896109de90919063ffffffff16565b92506105466020896109de90919063ffffffff16565b915087604081518110610582577f4e487b7100000000000000000000000000000000000000000000000000000000600052603260045260246000fd5b602001015160f81c60f81b60f81c935060018a6040516020016105a59190610f5b565b60405160208183030381529060405280519060200120858585604051600081526020016040526040516105db9493929190610fcc565b6020604051602081039080840390855afa1580156105fd573d6000803e3d6000fd5b5050506020604051035190508073ffffffffffffffffffffffffffffffffffffffff168b73ffffffffffffffffffffffffffffffffffffffff16149650505050505050610930565b6003600581111561067f577f4e487b7100000000000000000000000000000000000000000000000000000000600052602160045260246000fd5b8560058111156106b8577f4e487b7100000000000000000000000000000000000000000000000000000000600052602160045260246000fd5b141561079d578a73ffffffffffffffffffffffffffffffffffffffff166320c13b0b8a8a6040518363ffffffff1660e01b81526004016106f9929190611011565b60206040518083038186803b15801561071157600080fd5b505afa158015610725573d6000803e3d6000fd5b505050506040513d601f19601f820116820180604052508101906107499190610b85565b7bffffffffffffffffffffffffffffffffffffffffffffffffffffffff19166320c13b0b60e01b7bffffffffffffffffffffffffffffffffffffffffffffffffffffffff1916149650505050505050610930565b600460058111156107d7577f4e487b7100000000000000000000000000000000000000000000000000000000600052602160045260246000fd5b856005811115610810577f4e487b7100000000000000000000000000000000000000000000000000000000600052602160045260246000fd5b14156108f5578a73ffffffffffffffffffffffffffffffffffffffff16631626ba7e8b8a6040518363ffffffff1660e01b8152600401610851929190610f9c565b60206040518083038186803b15801561086957600080fd5b505afa15801561087d573d6000803e3d6000fd5b505050506040513d601f19601f820116820180604052508101906108a19190610b85565b7bffffffffffffffffffffffffffffffffffffffffffffffffffffffff1916631626ba7e60e01b7bffffffffffffffffffffffffffffffffffffffffffffffffffffffff1916149650505050505050610930565b6040517f08c379a000000000000000000000000000000000000000000000000000000000815260040161092790611068565b60405180910390fd5b949350505050565b60008082511161097d576040517f08c379a000000000000000000000000000000000000000000000000000000000815260040161097490611048565b60405180910390fd5b816001835161098c9190611217565b815181106109c3577f4e487b7100000000000000000000000000000000000000000000000000000000600052603260045260246000fd5b602001015160f81c60f81b9050600182510380835250919050565b60006020826109ed91906111c1565b83511015610a30576040517f08c379a0000000000000000000000000000000000000000000000000000000008152600401610a2790611108565b60405180910390fd5b602082610a3d91906111c1565b915081830151905092915050565b6000610a5e610a5984611159565b611128565b905082815260208101848484011115610a7657600080fd5b610a818482856112d6565b509392505050565b600081359050610a9881611391565b92915050565b600081359050610aad816113a8565b92915050565b600081519050610ac2816113bf565b92915050565b600082601f830112610ad957600080fd5b8135610ae9848260208601610a4b565b91505092915050565b60008060008060808587031215610b0857600080fd5b6000610b1687828801610a89565b9450506020610b2787828801610a9e565b935050604085013567ffffffffffffffff811115610b4457600080fd5b610b5087828801610ac8565b925050606085013567ffffffffffffffff811115610b6d57600080fd5b610b7987828801610ac8565b91505092959194509250565b600060208284031215610b9757600080fd5b6000610ba584828501610ab3565b91505092915050565b610bb78161125d565b82525050565b610bc681611269565b82525050565b610bdd610bd882611269565b611318565b82525050565b6000610bee82611189565b610bf88185611194565b9350610c088185602086016112e5565b610c1181611380565b840191505092915050565b6000610c29601c836111b6565b91507f19457468657265756d205369676e6564204d6573736167653a0a3332000000006000830152601c82019050919050565b6000610c696037836111a5565b91507f4c6962427974657323706f704c617374427974653a20475245415445525f544860008301527f414e5f5a45524f5f4c454e4754485f52455155495245440000000000000000006020830152604082019050919050565b6000610ccf603a836111a5565b91507f5369676e617475726556616c696461746f7223697356616c69645369676e617460008301527f7572653a20554e535550504f525445445f5349474e41545552450000000000006020830152604082019050919050565b6000610d356036836111a5565b91507f5369676e617475726556616c696461746f7223697356616c69645369676e617460008301527f7572653a20494c4c4547414c5f5349474e4154555245000000000000000000006020830152604082019050919050565b6000610d9b6037836111a5565b91507f5369676e617475726556616c696461746f7223697356616c69645369676e617460008301527f7572653a204c454e4754485f39375f52455155495245440000000000000000006020830152604082019050919050565b6000610e016033836111a5565b91507f5369676e617475726556616c696461746f7223697356616c69645369676e617460008301527f7572653a20494e56414c49445f5349474e4552000000000000000000000000006020830152604082019050919050565b6000610e676043836111a5565b91507f5369676e617475726556616c696461746f7223697356616c69645369676e617460008301527f7572653a204c454e4754485f475245415445525f5448414e5f305f524551554960208301527f52454400000000000000000000000000000000000000000000000000000000006040830152606082019050919050565b6000610ef3603c836111a5565b91507f4c696242797465732372656164427974657333323a20475245415445525f4f5260008301527f5f455155414c5f544f5f33325f4c454e4754485f5245515549524544000000006020830152604082019050919050565b610f55816112c9565b82525050565b6000610f6682610c1c565b9150610f728284610bcc565b60208201915081905092915050565b6000602082019050610f966000830184610bae565b92915050565b6000604082019050610fb16000830185610bbd565b8181036020830152610fc38184610be3565b90509392505050565b6000608082019050610fe16000830187610bbd565b610fee6020830186610f4c565b610ffb6040830185610bbd565b6110086060830184610bbd565b95945050505050565b6000604082019050818103600083015261102b8185610be3565b9050818103602083015261103f8184610be3565b90509392505050565b6000602082019050818103600083015261106181610c5c565b9050919050565b6000602082019050818103600083015261108181610cc2565b9050919050565b600060208201905081810360008301526110a181610d28565b9050919050565b600060208201905081810360008301526110c181610d8e565b9050919050565b600060208201905081810360008301526110e181610df4565b9050919050565b6000602082019050818103600083015261110181610e5a565b9050919050565b6000602082019050818103600083015261112181610ee6565b9050919050565b6000604051905081810181811067ffffffffffffffff8211171561114f5761114e611351565b5b8060405250919050565b600067ffffffffffffffff82111561117457611173611351565b5b601f19601f8301169050602081019050919050565b600081519050919050565b600082825260208201905092915050565b600082825260208201905092915050565b600081905092915050565b60006111cc826112bf565b91506111d7836112bf565b9250827fffffffffffffffffffffffffffffffffffffffffffffffffffffffffffffffff0382111561120c5761120b611322565b5b828201905092915050565b6000611222826112bf565b915061122d836112bf565b9250828210156112405761123f611322565b5b828203905092915050565b60006112568261129f565b9050919050565b60008115159050919050565b6000819050919050565b60007fffffffff0000000000000000000000000000000000000000000000000000000082169050919050565b600073ffffffffffffffffffffffffffffffffffffffff82169050919050565b6000819050919050565b600060ff82169050919050565b82818337600083830152505050565b60005b838110156113035780820151818401526020810190506112e8565b83811115611312576000848401525b50505050565b6000819050919050565b7f4e487b7100000000000000000000000000000000000000000000000000000000600052601160045260246000fd5b7f4e487b7100000000000000000000000000000000000000000000000000000000600052604160045260246000fd5b6000601f19601f8301169050919050565b61139a8161124b565b81146113a557600080fd5b50565b6113b181611269565b81146113bc57600080fd5b50565b6113c881611273565b81146113d357600080fd5b5056fea2646970667358221220bdb210b635c7fdc222ee96605f2040fe8841b0a8d3253132fe3260359ec780ad64736f6c63430008000033",
  "immutableReferences": {},
  "source": "// SPDX-License-Identifier: GPL-3.0\npragma solidity ^0.8.0;\n\nimport \"../interfaces/IERC1271Wallet.sol\";\nimport \"./LibBytes.sol\";\nimport \"./LibEIP712.sol\";\n\n/**\n * @dev Contains logic for signature validation.\n * Signatures from wallet contracts assume ERC-1271 support (https://github.com/ethereum/EIPs/blob/master/EIPS/eip-1271.md)\n * Notes: Methods are strongly inspired by contracts in https://github.com/0xProject/0x-monorepo/blob/development/\n */\ncontract SignatureValidator is LibEIP712 {\n    using LibBytes for bytes;\n\n    /***********************************|\n    |             Variables             |\n    |__________________________________*/\n\n    // bytes4(keccak256(\"isValidSignature(bytes,bytes)\"))\n    bytes4 internal constant ERC1271_MAGICVALUE = 0x20c13b0b;\n\n    // bytes4(keccak256(\"isValidSignature(bytes32,bytes)\"))\n    bytes4 internal constant ERC1271_MAGICVALUE_BYTES32 = 0x1626ba7e;\n\n    // Allowed signature types.\n    enum SignatureType {\n        Illegal, // 0x00, default value\n        EIP712, // 0x01\n        EthSign, // 0x02\n        WalletBytes, // 0x03 To call isValidSignature(bytes, bytes) on wallet contract\n        WalletBytes32, // 0x04 To call isValidSignature(bytes32, bytes) on wallet contract\n        NSignatureTypes // 0x05, number of signature types. Always leave at end.\n    }\n\n    /***********************************|\n    |        Signature Functions        |\n    |__________________________________*/\n\n    /**\n     * @dev Verifies that a hash has been signed by the given signer.\n     * @param _signerAddress  Address that should have signed the given hash.\n     * @param _hash           Hash of the EIP-712 encoded data\n     * @param _data           Full EIP-712 data structure that was hashed and signed\n     * @param _sig            Proof that the hash has been signed by signer.\n     *      For non wallet signatures, _sig is expected to be an array tightly encoded as\n     *      (bytes32 r, bytes32 s, uint8 v, uint256 nonce, SignatureType sigType)\n     * @return isValid True if the address recovered from the provided signature matches the input signer address.\n     */\n    function isValidSignature(\n        address _signerAddress,\n        bytes32 _hash,\n        bytes memory _data,\n        bytes memory _sig\n    ) public view returns (bool isValid) {\n        require(\n            _sig.length > 0,\n            \"SignatureValidator#isValidSignature: LENGTH_GREATER_THAN_0_REQUIRED\"\n        );\n\n        require(\n            _signerAddress != address(0x0),\n            \"SignatureValidator#isValidSignature: INVALID_SIGNER\"\n        );\n\n        // Pop last byte off of signature byte array.\n        uint8 signatureTypeRaw = uint8(_sig.popLastByte());\n\n        // Ensure signature is supported\n        require(\n            signatureTypeRaw < uint8(SignatureType.NSignatureTypes),\n            \"SignatureValidator#isValidSignature: UNSUPPORTED_SIGNATURE\"\n        );\n\n        // Extract signature type\n        SignatureType signatureType = SignatureType(signatureTypeRaw);\n\n        // Variables are not scoped in Solidity.\n        uint8 v;\n        bytes32 r;\n        bytes32 s;\n        address recovered;\n\n        // Always illegal signature.\n        // This is always an implicit option since a signer can create a\n        // signature array with invalid type or length. We may as well make\n        // it an explicit option. This aids testing and analysis. It is\n        // also the initialization value for the enum type.\n        if (signatureType == SignatureType.Illegal) {\n            revert(\"SignatureValidator#isValidSignature: ILLEGAL_SIGNATURE\");\n\n            // Signature using EIP712\n        } else if (signatureType == SignatureType.EIP712) {\n            require(\n                _sig.length == 97,\n                \"SignatureValidator#isValidSignature: LENGTH_97_REQUIRED\"\n            );\n            r = _sig.readBytes32(0);\n            s = _sig.readBytes32(32);\n            v = uint8(_sig[64]);\n            recovered = ecrecover(_hash, v, r, s);\n            isValid = _signerAddress == recovered;\n            return isValid;\n\n            // Signed using web3.eth_sign() or Ethers wallet.signMessage()\n        } else if (signatureType == SignatureType.EthSign) {\n            require(\n                _sig.length == 97,\n                \"SignatureValidator#isValidSignature: LENGTH_97_REQUIRED\"\n            );\n            r = _sig.readBytes32(0);\n            s = _sig.readBytes32(32);\n            v = uint8(_sig[64]);\n            recovered = ecrecover(\n                keccak256(\n                    abi.encodePacked(\"\\x19Ethereum Signed Message:\\n32\", _hash)\n                ),\n                v,\n                r,\n                s\n            );\n            isValid = _signerAddress == recovered;\n            return isValid;\n\n            // Signature verified by wallet contract with data validation.\n        } else if (signatureType == SignatureType.WalletBytes) {\n            isValid =\n                ERC1271_MAGICVALUE ==\n                IERC1271Wallet(_signerAddress).isValidSignature(_data, _sig);\n            return isValid;\n\n            // Signature verified by wallet contract without data validation.\n        } else if (signatureType == SignatureType.WalletBytes32) {\n            isValid =\n                ERC1271_MAGICVALUE_BYTES32 ==\n                IERC1271Wallet(_signerAddress).isValidSignature(_hash, _sig);\n            return isValid;\n        }\n\n        // Anything else is illegal (We do not return false because\n        // the signature may actually be valid, just not in a format\n        // that we currently support. In this case returning false\n        // may lead the caller to incorrectly believe that the\n        // signature was invalid.)\n        revert(\"SignatureValidator#isValidSignature: UNSUPPORTED_SIGNATURE\");\n    }\n}\n",
  "sourcePath": "E:\\Optimusfox\\1111 abosch\\contracts\\multi-token-standard\\utils\\SignatureValidator.sol",
  "compiler": {
    "name": "solc",
    "version": "0.8.0+commit.c7dfd78e.Emscripten.clang"
  },
  "schemaVersion": "3.4.1",
  "updatedAt": "2021-09-28T11:07:38.247Z",
  "devdoc": {
    "details": "Contains logic for signature validation. Signatures from wallet contracts assume ERC-1271 support (https://github.com/ethereum/EIPs/blob/master/EIPS/eip-1271.md) Notes: Methods are strongly inspired by contracts in https://github.com/0xProject/0x-monorepo/blob/development/",
    "kind": "dev",
    "methods": {
      "isValidSignature(address,bytes32,bytes,bytes)": {
        "details": "Verifies that a hash has been signed by the given signer.",
        "params": {
          "_data": "Full EIP-712 data structure that was hashed and signed",
          "_hash": "Hash of the EIP-712 encoded data",
          "_sig": "Proof that the hash has been signed by signer.      For non wallet signatures, _sig is expected to be an array tightly encoded as      (bytes32 r, bytes32 s, uint8 v, uint256 nonce, SignatureType sigType)",
          "_signerAddress": "Address that should have signed the given hash."
        },
        "returns": {
          "isValid": "True if the address recovered from the provided signature matches the input signer address."
        }
      }
    },
    "version": 1
  },
  "userdoc": {
    "kind": "user",
    "methods": {},
    "version": 1
  }
}